:020000040800F2
:10000000383A0120E9020008D7180008DD17000877
:10001000D51800081F060008512000080000000045
:10002000000000000000000000000000290200089D
:10003000DD0600080000000085020008BD1B000866
:100040000303000803030008030300080303000878
:100050000303000803030008030300080303000868
:100060000303000803030008030300080303000858
:1000700021060008030300082D06000803030008FA
:100080000303000803030008030300080303000838
:100090000303000803030008030300080303000828
:1000A0000303000803030008030300080303000818
:1000B0000303000803030008030300080303000808
:1000C00003030008030300080303000803030008F8
:1000D00003030008030300080303000803030008E8
:1000E00003030008030300080303000803030008D8
:1000F00003030008030300080303000803030008C8
:1001000003030008030300080303000803030008B7
:10011000030300080303000803030008791C000818
:100120000303000803030008030300080303000897
:100130000303000803030008030300080303000887
:100140000303000803030008030300080303000877
:100150000303000803030008030300080303000867
:100160000303000803030008030300080303000857
:100170000303000803030008030300080000000055
:10018000030300080303000800F002F800F03CF845
:100190000AA090E8000C82448344AAF10107DA45E2
:1001A00001D100F031F8AFF2090EBAE80F0013F0F8
:1001B000010F18BFFB1A43F001031847783A0000FB
:1001C000983A0000103A24BF78C878C1FAD852078C
:1001D00024BF30C830C144BF04680C6070470000C1
:1001E0000023002400250026103A28BF78C1FBD840
:1001F000520728BF30C148BF0B6070471FB503F0DE
:10020000EBFC1FBD10B510BD00F0D0F91146FFF793
:10021000F5FF02F017FA00F0EEF903B4FFF7F2FF72
:1002200003BC00F0F5F900002C4B19680868B0E831
:10023000F04F80F30988BFF36F8F4FF0000080F319
:10024000118870470000000008480068006880F3CB
:1002500008884FF0000080F3148862B661B6BFF3DF
:100260004F8FBFF36F8F00DF00BF00BF08ED00E0CE
:10027000DFF80C00016841F470010160704700BFB5
:1002800088ED00E0EFF30980BFF36F8F134B1A681E
:100290001EF0100F08BF20ED108A20E9F04F10600B
:1002A00009B44FF0500080F31188BFF34F8FBFF3B4
:1002B0006F8F03F01FF84FF0000080F3118809BC26
:1002C00019680868B0E8F04F1EF0100F08BFB0ECD6
:1002D000108A80F30988BFF36F8F704714000020E5
:1002E000EFF3058070470000094880470948004740
:1002F000FEE7FEE7FEE7FEE7FEE7FEE7FEE7FEE7D6
:10030000FEE7FEE704480549054A064B7047000032
:10031000691C00088901000838340120383A01209E
:10032000383601203836012053EA020C00F069808B
:100330002DE9F04B4FF00006002B1FBFB3FA83F5F9
:1003400003FA05F424FA05F65E4012BF1643B2FA2A
:1003500082F502FA05F4C5F120051EBF22FA05FC5C
:1003600044EA0C04203556EA044C4FEA144418BF02
:10037000641C4FF000084FF00009904271EB030C31
:1003800039D3002919BFB1FA81F701FA07F6B0FA9B
:1003900080F700FA07F6C7F120071EBF20FA07FC16
:1003A00046EA0C062037B6FBF4FCA7EB0507103F26
:1003B00007F01F0BCBF120060CFA0BFB2CFA06F60C
:1003C00044BFB3460026202FA4BF5E464FF0000B6B
:1003D0005BEA060C08BF4FF0010B19EB0B09ABFBF6
:1003E000027C48EB0608C01B06FB02CC0BFB03CCCF
:1003F00071EB0C01C1E70B46024641464846BDE899
:10040000F08B13B54FF000004FF00001AFF3008008
:10041000BDE81C407047032A40F2308010F0030C06
:1004200000F0158011F8013BBCF1020F624498BF47
:1004300011F801CB00F8013B38BF11F8013BA2F1E4
:10044000040298BF00F801CB38BF00F8013B11F05F
:10045000030300F07980083AC0F0088051F8043BAB
:10046000083A51F804CBA0E80810F5E7121D5CBF6C
:1004700051F8043B40F8043BAFF30080D20724BF9F
:1004800011F8013B11F801CB48BF11F8012B24BF33
:1004900000F8013B00F801CB48BF00F8012B704782
:1004A00002F0FF0343EA032242EA024200F002B8EC
:1004B0004FF000020429C0F0128010F0030C00F08D
:1004C0001B80CCF1040CBCF1020F18BF00F8012B0B
:1004D000A8BF20F8022BA1EB0C0100F00DB85FEAD9
:1004E000C17C24BF00F8012B00F8012B48BF00F8A5
:1004F000012B70474FF0000200B513469446964614
:10050000203922BFA0E80C50A0E80C50B1F1200126
:10051000BFF4F7AF090728BFA0E80C5048BF0CC0D4
:100520005DF804EB890028BF40F8042B08BF704732
:1005300048BF20F8022B11F0804F18BF00F8012BA4
:10054000704770477047704710B5203AC0F00B8075
:10055000B1E81850203AA0E81850B1E81850A0E8C7
:100560001850BFF4F5AF5FEA027C24BFB1E8185021
:10057000A0E8185044BF18C918C0BDE810405FEA91
:10058000827C24BF51F8043B40F8043B08BF70470D
:10059000D20728BF31F8023B48BF11F8012B28BF12
:1005A00020F8023B48BF00F8012B7047754600F069
:1005B0002BF8AE4605006946534620F007008546F5
:1005C00018B020B5FFF79EFEBDE820404FF00006B2
:1005D0004FF000074FF000084FF0000B21F007012B
:1005E000AC46ACE8C009ACE8C009ACE8C009ACE86E
:1005F000C0098D46704710B50446AFF30080204611
:10060000BDE81040FFF709BE00487047D83301200D
:1006100001491820ABBEFEE7260002007047FEE746
:10062000014800F05FB80000E8000020014800F039
:1006300059B800004801002001681823CAB2103AD6
:10064000B2FBF3F2054B6FF30901032A9B5CC36510
:1006500000D9091D8165084670470000E23B00088B
:1006600010B5014600208B698A6A4FF0C07453B1FF
:10067000B3F5005F15D072B1012A0CD0022A0AD05E
:10068000032A09D104E01AB1012A06D0022A03D1B3
:10069000C96AC90100D5012010BDC96AA142FAD0BA
:1006A00010BD002AF7D0012AF2D0022AF3D0032A83
:1006B000F3D010BD30B50468256825F48025256089
:1006C000046863608368402B036803D09960006806
:1006D000C26030BD9A600068C16030BD704772B6BC
:1006E000FEE700002DE9F84304464FF00009CDF87D
:1006F000009063484FF41651A56D0068B0FBF1F708
:100700002E6894F85C10082000FA01F131420FD0F5
:1007100021680A6852070BD50A6822F004020A60B1
:1007200094F85C108840A860606D40F0010060653E
:1007300094F85C104FF0010808FA01F0304208D03C
:1007400021684969090604D5A860606D40F002007F
:10075000606594F85C1004208840304208D021681D
:100760000968890704D5A860606D40F004006065E1
:1007700094F85C1010208840304218D02168096835
:10078000090714D5A86020680168490304D50068EA
:10079000000308D5A16C07E00168C90503D401680E
:1007A00021F008010160216C09B12046884794F8C6
:1007B0005C1020208840304231D021680968C90689
:1007C0002DD5A86094F8350005282068016806D06A
:1007D000490347D5006800031DD4616C1CE021F07B
:1007E000160101602068416921F080014161206C9F
:1007F00008B9A06C20B12068016821F008010160EF
:1008000094F85C103F208840A86084F8358084F814
:100810003490216D1FE0E16B09B120468847606D7F
:1008200000282BD0606DC00714D0052084F8350057
:100830002068016821F0010101600098401C0090CF
:10084000B84203D820680068C007F6D184F8358024
:1008500084F83490E16C002910D001B02046BDE846
:10086000F04308470168C905D5D4016821F010019B
:10087000016084F8358084F83490CCE7BDE8F883D3
:10088000100000202DE9F041044600F0ADF90646C5
:100890005CB1022084F83500002584F834502068CB
:1008A000016821F0010101600DE00120BDE8F08147
:1008B00000F09AF9801B052805D9202060650320E7
:1008C00084F83500F2E720680068C007F0D122689C
:1008D000116820480140D4E901031843D4E90336E4
:1008E0003343184363691843A3691843E369184302
:1008F000236A18430843616A042903D1D4E90B131E
:1009000019430843106020684069666A20F00701B7
:1009100030460E43012704280CD1A06A0643E06A42
:1009200040B12046FFF79CFE20B14020606584F86E
:100930003570BAE7206846612046FFF77DFE94F8DF
:100940005C203F2191408160656584F8357000200E
:10095000ACE700003F8010F02DE9F0410446866DC1
:1009600090F83400002501280DD0012084F83400CF
:1009700094F835700020012F07D084F83400022548
:100980002846BDE8F0810220FBE7022784F8357095
:1009900060652046FFF78EFE94F85C103F2088408B
:1009A000B0602068016841F016010160206C20B140
:1009B0002068016841F0080101602068016841F089
:1009C00001010160DCE7000070B5044600F00CF99D
:1009D0000546601C02D004480078044400F004F985
:1009E000401BA042FAD370BD040000202DE9F84F4F
:1009F000DFF8BCA10022012503264FF00F090AF100
:100A0000040BAAF1040E00BF0B6805FA02F42340A0
:100A1000A34270D10F7907F00307012F01D0022FF5
:100A200016D187684FEA420806FA08FC27EA0C0745
:100A3000D1F80CC00CFA08FC4CEA070CC0F808C04E
:100A40004768A7430C79C4F3001494403C434460C6
:100A50000C79E443A4070AD0C4684FEA420C06FAB2
:100A60000CF7BC438F6807FA0CF72743C7600C7973
:100A700004F00304022C12D1D40800EB840CDCF83F
:100A800020405707FF0E09FA07F824EA0804D1F8B6
:100A9000108008FA07F848EA0408CCF820800468B7
:100AA0004FEA420C06FA0CF7BC430F7907F0030734
:100AB00007FA0CF7274307604C6814F4403F70D0E6
:100AC0003C4C276847F480472760246822F00307DE
:100AD00004F480440094384C07EB040CDCF808481C
:100AE00097074FEA177809FA08F7BC43334FB84223
:100AF00002D1002724E054E0314FB84201D1012750
:100B00001EE0304FB84201D1022719E02E4FB84203
:100B100001D1032714E02D4FB84201D104270FE083
:100B20002B4FB84201D105270AE02A4FB84201D124
:100B3000062705E0284FB84201D1072700E0082723
:100B400007FA08F72743CCF80878DAF80040574648
:100B5000D1F804C09C435FEACC2C00D51C433C6018
:100B6000DBF800405F46D1F804C09C435FEA8C2C60
:100B700000D51C433C60DEF800407746D1F804C045
:100B80009C435FEA8C3C00D51C433C60084F083F07
:100B90003C68D1F804C09C435FEACC3C00D51C43C0
:100BA0003C60521C102AFFF42FAFBDE8F88F000004
:100BB000083C01404438024000300140000002403F
:100BC0000004024000080240000C024000100240F5
:100BD0000014024000180240001C02400AB181616A
:100BE00070470904FBE70000014880687047000077
:100BF0000400002002488168027811448160704737
:100C0000040000200B4810B5016841F40071016038
:100C1000016841F480610160016841F48071016004
:100C2000032000F09BF8012000F006F800F050F8D7
:100C3000002010BD003C024030B505461F4887B07B
:100C40000024016841F020010160006806A900F05D
:100C50002000009001A800F02DF90498A8B100F040
:100C600049F940001649174AB0FBF1F11648491EF0
:100C7000026040F2E732C0E90324C0E90114846154
:100C800000F040FB040003D015E000F033F9E9E781
:100C90000D4800F065FB04000DD1372000F030F85E
:100CA000102D07D200222946372000F037F80748D8
:100CB000056000E0012407B0204630BD4038024006
:100CC00040420F0000140040A8010020080000204E
:100CD0000A4808B5016841F480410160006800F4E9
:100CE000804000900548001F016841F0805101607C
:100CF000006800F08050009008BD000044380240B9
:100D0000002809DB00F01F0201219140400980000A
:100D100000F1E020C0F8001170470000F0B40E4B65
:100D20001B680C46C3F30223C3F10705042D00D949
:100D30000425191D072901D2002300E0DB1E01262E
:100D400006FA05F1491E214099409E40761E164044
:100D50003143F0BC01F06FBB0CED00E0064900F040
:100D6000070208684FF6FF03184040EA0220034AD2
:100D700010430860704700000CED00E00000FA0529
:100D80002DE9F0470E46050065D0DFF81481D8F84C
:100D90000000F7B200F00700B04207D288F80070F8
:100DA000D8F8000000F00700B04254D128683D4C4C
:100DB000810712D5400703D5206840F4E050206039
:100DC0002878000703D5206840F460402060206840
:100DD000A96820F0F000084320602878C0072DD0D3
:100DE000304968680839012812D0022813D0032836
:100DF00011D00968890700292DDA216821F0030143
:100E000001432160FFF7F0FE814641F2883A0EE08F
:100E100009688903EFE709688901ECE7FFF7E4FE59
:100E2000A0EB0901514502D90320BDE8F0872068F5
:100E3000696800F00C00B0EB810FEFD1D8F800101A
:100E4000404601F00701B14207D90770006800F081
:100E50000700B04201D00120E7E72878400705D518
:100E60002068E96820F4E0500843206028780007F3
:100E700006D52068296920F4604040EAC10020605E
:100E800000F058F82168084AC1F30311515CC840CA
:100E90000649086006480068FFF7CEFE0020C4E758
:100EA000003C024008380240EA3B000810000020E5
:100EB000080000200F2202600C4A136803F00303AD
:100EC0004360136803F0F0038360136803F4E05396
:100ED000C36012684FF4E05303EAD202026104488F
:100EE000006800F007000860704700000838024002
:100EF000003C02400448054900680968044AC1F3FF
:100F00008221515CC8407047100000200838024020
:100F1000FA3B00080448054900680968044AC1F31F
:100F20004231515CC8407047100000200838024030
:100F3000FA3B0008154810B5006810F00C02144880
:100F400013D04110042A0FD0082A0ED10F4C241FB1
:100F50002268236802F03F025B0207D52068C0F3D5
:100F60008810A0FB010106E0084610BD2168C1F30E
:100F70008811A1FB00010023FFF7D6F92168C1F316
:100F80000141491C4900B0FBF1F010BD0838024096
:100F90000024F4002DE9F84F04006ED02078DFF82B
:100FA0004C93C007A9F104054AD009F10400016877
:100FB000C1F38101012908D00068C0F38100022833
:100FC0000AD1D9F80000400206D52868800337D539
:100FD00060680028E1D033E06068B0F5803F10D051
:100FE000B0F5A02F286810D020F480302860286841
:100FF00020F4802028606068A8B1FFF7F5FD064660
:101000000DE0286840F48030F4E740F48020286048
:10101000F7E700BFFFF7E8FD801B642873D8286856
:101020008003F7D50CE0FFF7DFFD064605E000BFC3
:10103000FFF7DAFD801B6428F0D828688003F7D416
:101040002078DFF8AC8280074FF0000A3ED5A74831
:10105000001D016811F00C0F08D00068C0F381007A
:1010600002280BD1D9F80000400207D42868800775
:1010700016D5E068012800D112E033E1E068B8B18C
:101080000120C8F80000FFF7AFFD064605E000BFED
:10109000FFF7AAFD801B0228C0D828688007F7D573
:1010A0002868216920F0F80040EAC10028600DE0BE
:1010B000C8F800A0FFF798FD064604E0FFF794FD8E
:1010C000801B02281FD828688007F7D420780007E3
:1010D00022D5864F87486169703771B1012101605F
:1010E000FFF782FD064604E0FFF77EFD801B022825
:1010F00009D838688007F7D50EE0C0F800A0FFF7E0
:1011000073FD064605E082E0FFF76EFD801B0228B6
:101110007DD838688007F7D42078400768D5DFF895
:10112000CCB100270BF13C0BDBF80000C0000BD466
:10113000DBF8001041F08051CBF80010DBF8000024
:10114000012700F0805000906B4E3068C00510D42D
:10115000306840F480703060FFF746FD009005E095
:10116000FFF742FD0099401A022850D83068C005A8
:10117000F6D55E4EA0686C3601280FD00528306881
:1011800010D020F001003060306820F004003060A2
:10119000A068B8B1FFF728FD00900FE0306840F07C
:1011A0000100F4E740F004003060F7E7FFF71CFDB2
:1011B0000099411A41F28830814266D83068800730
:1011C000F4D50EE0FFF710FD009007E0FFF70CFDEF
:1011D0000099411A41F28830814256D83068800720
:1011E000F4D42FB1DBF8001021F08051CBF80010BF
:1011F000A069C8B33D49091D0968C1F381010229ED
:101200004AD00228504607D0C8F8600000E03CE011
:10121000FFF7EAFC04463BE04746C8F86000FFF7EA
:10122000E3FC064605E000BFFFF7DEFC801B02285A
:101230002BD828688001F7D4D4E907010843A16AB4
:101240002E4A490802EB0141626A41EA82110843D1
:1012500094F82C1040EA0161C9F8001001203866AA
:10126000FFF7C2FC044606E03EE000BFFFF7BCFC0F
:10127000001B022809D828688001F7D534E000BF98
:10128000FFF7B2FC001B022802D90320BDE8F88F4B
:1012900028688001F4D427E00128F7D0D9F80000AD
:1012A000E26900F4800191421CD1226A00F03F0102
:1012B000914217D147F6C071626A0140B1EB821FBB
:1012C00010D1A26A4FF0FF3300F4403103EB520219
:1012D000B1EB024F06D194F82C1000F07060B0EB27
:1012E000016F01D00120D1E70020CFE70438024090
:1012F00000004742800E4742007000400000FFFFA0
:101300007047704710B5040003D094F83D0010B149
:1013100007E0012010BD002084F83C00204600F0CA
:101320001EF8022084F83D00211D206800F0AAFC70
:10133000012084F8460084F83E0084F83F0084F8D9
:10134000400084F8410084F8420084F8430084F8A7
:10135000440084F8450084F83D00002010BD70472B
:1013600090F83D10012901D001207047022180F83A
:101370003D100168CA6842F00102CA600068114964
:10138000884214D0B0F1804F11D00F4988420ED05E
:101390000E4988420BD00E49884208D00D49884238
:1013A00005D00D49884202D00C49884204D1816899
:1013B00001F00701062903D0016841F00101016035
:1013C0000020704700000140000400400008004079
:1013D000000C0040000401400040014000180040A3
:1013E00070472DE9F04104460068C66805694FF072
:1013F0000007A90713D5B10711D5F91E0161012016
:101400002077206880698007204602D0FFF7E8FF38
:1014100004E000F07EF8204600F07CF827776807AB
:1014200016D5700714D521686FF0040008610220FA
:1014300020772068806910F4407F204602D0FFF7B3
:10144000CFFF04E000F065F8204600F063F827774E
:10145000280715D5300713D521686FF008000861FB
:10146000042020772068C0698007204602D0FFF75B
:10147000B7FF04E000F04DF8204600F04BF8277766
:10148000E80616D5F00614D521686FF01000086143
:10149000082020772068C06910F4407F204602D0E1
:1014A000FFF79EFF04E000F034F8204600F032F829
:1014B0002777E80708D0F00706D021686FF0010011
:1014C0000861204600F028F8280608D5300606D521
:1014D00021686FF0800008612046FFF711FF680661
:1014E00008D5700606D521686FF0400008612046D7
:1014F00000F01CF8A8060AD5B00608D521686FF0E0
:10150000200008612046BDE8F041FFF7FABEBDE8C3
:10151000F08170477047000000680349884201D19C
:10152000FFF768BB7047000000140040704738B5F3
:10153000044690F84200202801D0022038BD61B155
:101540005AB10120206300206063204600F038FD7E
:101550000028F3D1216B012901D0012038BD216879
:101560000A684968009121680C3151E8002F42F067
:10157000100241E80023002BF5D138BD7CB5154D94
:101580000E46002455F82410D1F80411814203D0EE
:10159000641C14F0FF04F5D055F82400D0F808219D
:1015A0004AB13146401C904755F824003146401C52
:1015B000FEF77EFF08E008A0CDE9004008A309A2DD
:1015C0000AA1002000F01CFA55F82400BDE87C4078
:1015D00001F090BC940000201B5B306D0000000007
:1015E000453A00001B5B313B33316D0020202573F1
:1015F00025735B756172745F64656F6364655D55C7
:1016000041525420256420486173204E6F2043616D
:101610006C6C6261636B210D0A2573007CB50E4D05
:10162000002400BF55F82410D1F80411814203D0E2
:10163000641C14F0FF04F5D008A0CDE9004009A314
:1016400009A20BA1002000F0DBF955F82400BDE849
:101650007C4001F04FBC0000940000201B5B306D0B
:1016600000000000453A00001B5B313B33316D0048
:101670002020257325735B756172745F72785D55E8
:101680004152542025642048617320616E204572C8
:10169000726F72210D0A25730000000070B50400FE
:1016A00004D094F84100002510B106E0012070BD7F
:1016B00084F84050204600F023F8242084F84100AC
:1016C0002068C16821F40051C160204600F0F2FB9F
:1016D0002068016921F4904101612068416921F08D
:1016E0002A0141612068C16841F40051C16065640C
:1016F000202084F8410084F842006563002070BD1A
:101700002DE9F04186B0064614216846FEF7F2FE48
:101710002C493068884251D12B480024016841F49B
:1017200080210160006800F4802005902648103870
:10173000016841F0020101600068694600F00200A2
:1017400005904FF4406000900220CDE90104032091
:101750000390072004901D48FFF748F91D4D1C48D1
:101760004FF000672860C5E901744FF48068C5E94F
:1017700003486C61AC61EC612C6228466C62FFF737
:1017800081F808B1FEF7ABFFF563AE63114D104869
:1017900060353030E5E802074020A5E811010D482A
:1017A00045F814496030AC61EC612C626C62FFF763
:1017B00069F808B1FEF793FFB563AE6306B0BDE804
:1017C000F081000000480040403802400004024020
:1017D00028600240E800002070477047FEE70000E4
:1017E0000D4808B5016841F400110160006800224D
:1017F00000F40010009011460C20FFF78FFA0C2027
:10180000FFF77EFA002211460E20FFF787FABDE8A7
:1018100008400E20FFF774BA3038024070B586B029
:1018200014216846FEF766FE1A480024016841F05C
:1018300080010160016801F080010591016841F0BB
:1018400002010160016801F002010591016841F0A7
:1018500008010160016801F008010591016841F08B
:101860000101016000680C4E00F001004FF40065BA
:101870000590002229463046FFF7B0F90120009577
:10188000CDE90104694630460394FFF7AFF806B08E
:1018900070BD000030380240000C02400C4810B50A
:1018A0000A4901604FF4E1314160002181600C225E
:1018B000C160C0E904128161C161FFF7EFFE002839
:1018C00003D0BDE81040FEF70ABF10BD004800403D
:1018D000A0000020FEE7FEE700F034BC2DE9F8434D
:1018E00004461F480078532801D000F02BFCFF204D
:1018F00000258DF800004FF0FF39102C2BD219482D
:10190000174E005D8DF801001836EFF31187202087
:1019100080F31188307DDFF8508000F0030002284A
:101920000CD0304600F040FC02280FD388F800406D
:1019300002226946304600F05DFD08E088F800406C
:1019400002226946304600F028FD00E04D46F8B21C
:1019500080F3118800E04D462846BDE8F88300007A
:10196000202F0120023C0008900000202DE9F041CA
:1019700007460B4815460E460078532801D000F064
:10198000E1FBEFF31184202080F311882A463146D1
:10199000384600F007F8E1B281F31188BDE8F08124
:1019A000202F012070B50E46144900EB400001EBDA
:1019B000C0051446E86A183520B101280FD0022866
:1019C00005D113E0284600F0EFFBA04201D200242D
:1019D00011E022463146284600F00CFD0BE0284677
:1019E00000F0E2FBA042F4D20446F2E7314628467A
:1019F00000F0D3FC0446204670BD0000202F0120DB
:101A00000FB408B504A900916A46039900F004F8E0
:101A100001B05DF814FB00002DE9F04198B00646D6
:101A200007A8029040200025CDE90305CDE9055621
:101A300090460C4614F8011B002973D0252908D0C4
:101A400002A800F08BFC05980028F3DA18B0BDE876
:101A5000F081002001212278232A1ED02B2A19D0C0
:101A60002D2A02D0302A08D102E040F0010001E026
:101A700040F00200641C0029EDD100222178A1F180
:101A800030030A2B0CD202EB820201EB4202303A05
:101A9000641CF3E740F00400ECE740F00800E9E7DD
:101AA0000023CFB22E2F0BD114F8011FA1F1300764
:101AB0000A2F05D203EB830301EB4303303BF3E72B
:101AC0006C290DD068290BD0702956D00BDC252944
:101AD00016D0582931D063290CD0642913D114E0D1
:101AE00014F8011FECE7732934D075291BD078292D
:101AF00009D122E0D8F80000011DC8F800100178D3
:101B000002A800F02BFC641C9DE7D8F800100F1D04
:101B1000C8F800700968CDE900200A2202A800F088
:101B20004FFBF0E735E0D8F800100F1DC8F8007043
:101B30000968CDE900200A2208E0D8F800100F1D3E
:101B4000C8F800700968CDE90020102202A800F052
:101B50009BFBD8E7D8F80000011DC8F80010076803
:101B600007B914A717F8011B0029CCD002A800F070
:101B7000F5FB05980028F5DAC5E7D8F80000011D47
:101B8000C8F8001001680820CDE9000503461022BE
:101B9000DCE7059800287FF759AF049820B102468A
:101BA00007A93046FFF7E2FEDDE90410084405907E
:101BB0004CE70000284E554C4C29000010B501F0B0
:101BC00031FE012803D0BDE8104001F03BBC10BD40
:101BD00030B593B030216846FEF78CFC14210CA878
:101BE000FEF788FC1E480025016841F08051016025
:101BF000006800F0805011901A48016841F480415B
:101C000001600068022400F48040119001200090DF
:101C1000000401908001CDE90640082008904FF4AF
:101C2000A870CDE9090404200B906846FFF7B2F9CB
:101C300008B172B6FEE70CA90F2081E831004FF41D
:101C4000A0500F904FF48050109005210CA8FFF782
:101C500097F8002801D072B6FEE713B030BD00003F
:101C600040380240007000400248016841F47001B1
:101C70000160704788ED00E00148FFF7B2BB00004B
:101C8000A8010020F0B50268294C2A4D2A4E2B4F9E
:101C90002B4B4FF0804CA04209D0604507D0A842A2
:101CA00005D0B04203D0B84201D0984204D122F00E
:101CB000700E4A6842EA0E02A0421BD0604519D05D
:101CC000A84217D0B04215D0B84213D0984211D0D4
:101CD0001C4DA8420ED01C4DA8420BD01B4DA84253
:101CE00008D01B4DA84205D01A4DA84202D01A4D6B
:101CF000A84203D122F44075CA682A434D6922F0F4
:101D000080022A4302608A68C2620A688262A04234
:101D100001D0984201D10969016301214161016942
:101D2000C90703D0016921F001010161F0BD000084
:101D3000000001400004004000080040000C00408A
:101D400000040140004001400044014000480140BF
:101D500000180040001C00400020004070B5846B5B
:101D60002068406994F84110C0F3C0100025212973
:101D700004D118B1E584204600F08EF8206840694F
:101D800094F84210C0F38010222904D118B1E585DF
:101D9000204600F05AF8606C40F010006064204665
:101DA000FFF73CFC70BD10B50146806B09680968FF
:101DB0004FF00002C9052ED4C28501680C3151E8EC
:101DC000003F23F4807341E80034002CF5D1016812
:101DD000143151E8003F23F0010341E80034002CA6
:101DE000F5D10168143151E8003F23F0400341E888
:101DF0000034002CF5D1202180F84210016B01291C
:101E000009D101680C3151E8003F23F0100341E88B
:101E10000034002CF5D14263016B012902D0FFF799
:101E2000DBFC10BD818DFFF7A9FB10BD10B5806BE9
:101E300001214163016B012902D0FFF7CEFC10BDE7
:101E4000818D4908FFF79AFB10BD01680C3151E8FC
:101E5000002F22F4907241E80023002BF5D1016895
:101E6000143151E8002F22F0010241E80023002B39
:101E7000F5D1016B012909D101680C3151E8002F1E
:101E800022F0100241E80023002BF5D1202180F838
:101E9000421000210163704701680C3151E8002FA6
:101EA00022F0C00241E80023002BF5D1202180F868
:101EB0004110704770B5044600680169E26821F47A
:101EC0004051114301612169A068E26908436169D9
:101ED000114308432168CA6849F20C639A430243DC
:101EE000CA6020684169A26921F4407111434161CF
:101EF00031492068884202D03049884202D1FFF738
:101F000009F801E0FEF7F6FFE269002319216425D4
:101F10003226B2F5004F626828D0A0FB0101930F72
:101F20009200FEF701FA0146B0FBF5F06FF01802DF
:101F3000504301EB800006EB0010B0FBF5F000F021
:101F4000F002B1FBF5F002EB0012B1FBF5F06FF01F
:101F50001803584301EB800006EB0010B0FBF5F0CE
:101F600000F00F0021681044886070BDA0FB0101E3
:101F700092185B41FEF7D8F90146B0FBF5F002017B
:101F8000B1FBF5F06FF01803584301EB800006EB4E
:101F9000C000B0FBF5F000F0F80002EB4002B1FB2E
:101FA000F5F0584301EB800006EBC000B0FBF5F004
:101FB00000F00700D6E700000010014000140140C7
:101FC00038B581620446828500201346606422226F
:101FD00084F84220E56B1B4AEA63E56B1A4A2A64DF
:101FE000E56B1A4AEA64E26B10650A462168E06B09
:101FF000091DFEF7B1FC2068016840680090206967
:1020000048B120680C3050E8001F41F4807140E86E
:102010000012002AF5D12068143050E8001F41F06A
:10202000010140E80012002AF5D12068143050E880
:10203000001F41F0400140E80012002AF5D10020C5
:1020400038BD0000A71D00082D1E00085D1D0008FA
:10205000FEE700002DE9F8439946174688460546F5
:10206000012808D916A0009017A318A219A10020D2
:10207000FFF7C6FCF6E7244E56F82500B0B100F095
:1020800091FF4FF4867000F059FEC0F8047105709E
:1020900080F80181C0F80891044646F8250000F058
:1020A00029FF00F09FFF2046BDE8F88304A00090C0
:1020B00005A306A215A10020FFF7A2FCF6E7000089
:1020C0001B5B306D00000000453A00001B5B313B9C
:1020D00033316D002020257325735B756172745F49
:1020E0006372656174655D54686520554152542082
:1020F0004E756D62657220497320496C6C6567612D
:102100006C210D0A25730000940000202020257307
:1021100025735B756172745F6372656174655D558B
:1021200041525420496E7374616E636520416C7234
:10213000656164792043726561746564210D0A25C7
:102140007300000010B5134CA8212046FEF7D2F909
:1021500003202061606110A0A06104F1A800E0618B
:102160004FF4806020620020A0626062E0620AA1F9
:10217000216604F5956161661021A1662067E0661D
:1021800060670849C0F10F028A5C2254401C102885
:10219000F8D310BD202F01205465726D696E616CFB
:1021A00000000000123C00080269C1688A4203D89E
:1021B0008068401A104400E0501A401E704700002A
:1021C0002DE9FC5F0E008146DDE90C47C6F10000F9
:1021D00098469346824600D40846012503E000BF96
:1021E00090FBFBF06D1C5845FADAA84500D945462E
:1021F00024B1002E01DB780700D5641EB80702D594
:10220000B8F1000F0FD0F8070DD164B1A5420AD282
:1022100020214846641E00F0A1F8D9F80C000028DF
:10222000F3DABDE8FC9FD9F80C000028F9DB002E9A
:1022300002DA56462D2102E0780707D52B214846C1
:1022400000F08CF8D9F80C000028EADB07F0030056
:1022500002280FD1B8F1000F0CD15CB1A54209D210
:1022600030214846641E00F079F8D9F80C000028A7
:10227000F3DAD6E7CDE9004743465A4631464846A9
:1022800000F002F8CDE700002DE9F84F8246DDE9C5
:102290000A4B0126984691460D460846374602E00D
:1022A000B0FBF9F07F1C4845FAD2B84500D9474643
:1022B0005FEACB7017D1B4B15FEA8B7002D5B8F189
:1022C000000F02D0202000900BE03020FBE75046AA
:1022D000641E009900F042F8DAF80C00002838DBA0
:1022E0000CB1A742F3D3DAF80C00002831DB00BFB1
:1022F000B8F1010F02D9A8F1010803E0B5FBF6F02F
:10230000484502D306FB09F6F2E7DFF84C8000BF30
:10231000B5FBF6F000FB165518F80010504600F01B
:102320001DF8DAF80C00002803DBB6FBF9F6002EE6
:10233000EED15FEACB700CD0002C0AD0A74208D2B5
:1023400020215046641E00F009F8DAF80C0000283D
:10235000F2DABDE8F88F0000233C000810B504460F
:10236000D4E90130421C934205D323681954A2607A
:10237000E068401CE060D4E90102824209D1216892
:102380002069FFF7F3FAA168884203D04FF0FF30CD
:10239000E06010BD0020A06010BD2DE9F047C468CA
:1023A0001746894606464FF000083069A04201D919
:1023B000051B02E0B168201A0D1AB0686D1E001BE3
:1023C000A84200D80546BD4200D33D4670682A4663
:1023D00020444946FEF71FF8B0687F1B2C44A844F0
:1023E000A944A04200D10024F460002FDDD1404672
:1023F000BDE8F0872DE9F04104468846D4E902079C
:10240000C51BE168606816460844B54206D94146D6
:10241000FEF701F8B819E060BDE8F0812A464146B0
:10242000FDF7F9FF761B08EB050132466068FDF702
:10243000F2FFE660F0E70907090E002804DB00F16F
:10244000E02080F80014704700F00F0000F1E02059
:1024500080F8141D7047000000224FF4006101480D
:10246000FEF7BCBB000C02400122D1020148FEF77E
:10247000B5BB0000000C024000224FF4006101488F
:10248000FEF7ACBB000C02400EB501210E4B0F4A0B
:102490000846FFF7DFFD0E4900240860029401F0B2
:1024A000CFF94FF47A75029020460AA1CDE90001D8
:1024B000641C0AA30AA20CA10020FFF7A1FA294676
:1024C00002A801F065F9EFE701250008A00000204F
:1024D0009C0000201B5B306D00000000493A0000AA
:1024E0001B5B313B33326D0020202573257348651B
:1024F0006172742025640A0D0D0A25730000000026
:102500001CB505A1CDE9000105A306A207A1002085
:10251000FFF776FA1CBD00001B5B306D0000000069
:10252000573A00001B5B313B33336D00202025738D
:10253000257325730A0D0D0A257300001CB515A01F
:10254000009016A316A218A10020FFF759FA11A0B7
:10255000009012A312A21BA10020FFF751FA2049FC
:102560000420CDE9000100234FF482721DA1204810
:1025700001F0E0F8012807A008A309A2009007D005
:102580001CA10020FFF73CFABDE81C4000F072BE21
:1025900021A1F6E71B5B306D00000000493A000006
:1025A0001B5B313B33326D00202025732573737420
:1025B000617274206672656572746F730D0A0D0A1C
:1025C00025730000202025732573616161616161BD
:1025D00061616161616161610D0A0D0A257300002D
:1025E0000000002073746172745F7461736B00008B
:1025F0006D2E00082020257325737374617274207A
:102600007461736B20637265617465206661696CC7
:102610002E0D0A0D0A25730020202573257373746F
:10262000617274207461736B2063726561746520DC
:102630007375636365737366756C2E0D0A0D0A25D9
:1026400073000000FEF7DEFAFFF7C2FAFFF7E6F8C4
:10265000FFF7C6F8FFF722F9FFF7FEFE00F0E4FBF4
:10266000FFF702FF4FF47A70FEF7AEF9FFF704FFB1
:10267000FFF764FFFEE700002DE9F0411E4C0F4616
:102680000546E6682068001D00F046FC38B9206861
:1026900090F82C1001208840216981432161681C39
:1026A00015D1A7B1154922684868906023688268EF
:1026B000DA6022688368121D5A602268121D8260E7
:1026C000206841610868401C0860BDE8F08120680E
:1026D0003544B5424560216805D2E06BBDE8F04164
:1026E000091D00F03ABCA06B091D00F036FCA06A81
:1026F0008542EAD2A562E8E714000020E402002047
:102700002DE9F041054600F04DFC364CA068401C18
:10271000A0602068344F10B1606940B32DE025609F
:10272000A068012829D1002606EB860007EB80006F
:1027300000F005FC761C052EF6D32B48643000F023
:10274000FEFB2948783000F0FAFB27488C3000F077
:10275000F6FB2548A03000F0F2FB2348B43000F02F
:10276000EEFB21486430A0631430E06305E020688C
:10277000E96AC06A884200D82560606A401C6062CD
:10278000A864E96A0120226988401043206101EBB6
:10279000810007EB80004068A8608168E96082687A
:1027A000291D51608160E86A00EB800007EB800121
:1027B000696157F82010491C47F8201000F012FCFE
:1027C000606900280CD02068E96AC06A884207D294
:1027D00006494FF080500860BFF34F8FBFF36F8FF3
:1027E000BDE8F081140000203002002004ED00E07C
:1027F00010B500F0D7FB0E4C2068A0B90D4800F0D2
:102800009EFB0C48143000F09AFB0A48E06014303C
:10281000206100220C210A2000F02AFE206010B165
:1028200005A100F037FCBDE8104000F0DBBB000064
:1028300054000020F8020020546D72510000000086
:1028400030B4026C0B46002A0BD0C1681144C16041
:102850008468A14201D30168C16030BC1846FDF70D
:10286000DABD30BC704710B50446006B00F0CEFBFB
:102870002046BDE8104000F0C9BB00000E484FF4F0
:102880009631420706D0C01D0B4920F00700411ABF
:10289000C1F59631094A00230144C2E90003083911
:1028A000143A21F0070111604B600B600B1AC0E96C
:1028B0000013936053607047200300207C000020C9
:1028C000144E154CA6F1A0074FF08058DFF84C903D
:1028D00012E000BF00F066FBF068C568281D00F03C
:1028E0001BFBA068401EA0606068401E606000F096
:1028F00079FB2846FFF7B7FF60680028EAD13868FF
:102900000128F9D9C9F80080BFF34F8FBFF36F8F4B
:10291000F2E70000D00200201400002004ED00E0E7
:102920002DE9F0470D46DDE90984174682469100FE
:102930009946089EA522206BFDF7B2FD6FF00301BA
:10294000206B01EB8701084420F00707780707D0C8
:10295000502080F31188BFF34F8FBFF36F8FFEE7D6
:1029600065B100202218295C82F83410295C11B16D
:10297000401C1428F6D3002084F84700052E07D306
:10298000502080F31188BFF34F8FBFF36F8FFEE7A6
:10299000E662201D266500F0DDFA04F1180000F063
:1029A000D9FA2461C6F105006462A0614A46514625
:1029B000384600F023FA2060B8F1000F01D0C8F8C3
:1029C0000040BDE8F087000030B5114900E0114635
:1029D0000A688242FBD34B685C18844203D140688A
:1029E00018444860084643681C18944209D1084CB2
:1029F000143C2468A24209D052681A4442600A6812
:102A000012680260814200D0086030BD0460F9E7BE
:102A10007C00002070B5002441600B4D00619142A4
:102A200006D8D11A8269914206D2011D286907E0B1
:102A30009A4203D2994201D3012403E0011DE868C0
:102A400000F08BFA204670BD5400002010B50446FB
:102A500000F0A8FAA06B28B15FF0000400F0C2FA01
:102A6000204610BD0124F9E770B506460D480D4615
:102A7000C068C068C468201D00F04EFA94F82800B1
:102A8000410705D52A463146204600F0B5F803E057
:102A900000F0FE0084F828002046216ABDE870405E
:102AA00008470000540000207FB5374E63E00098CF
:102AB000002860DB029C606910B1201D00F02CFA38
:102AC00003A800F0BBF8054600980A2853D2DFE8B7
:102AD00000F0520505282E460505282E94F82800FA
:102AE0002A4640F0010084F828000199A069019B62
:102AF00001442046FFF78EFF40B394F828004107B9
:102B000007D50198A1692A460144204600F074F8CF
:102B100003E000F0FE0084F82800216A2046884780
:102B200029E014F8280F00F0FE00207023E094F84C
:102B3000280040F0010084F828000198A06130B11D
:102B400041192B461A462046FFF764FF13E0502038
:102B500080F31188BFF34F8FBFF36F8FFEE794F8B8
:102B60002800810703D4204600F050FA03E000F06B
:102B7000FE0084F8280000226946306800F000FD5D
:102B8000002894D17FBD000054000020F8B50D4608
:102B9000064600F0A7FB684600F050F8044600988F
:102BA00010B100F05DFFF8BD1148ADB101690968D1
:102BB000D9B10025311B2A46006800F093FA00F0D5
:102BC0004FFF0028EFD10B494FF080500860BFF352
:102BD0004F8FBFF36F8FF8BDA642EBD800F040FFD8
:102BE00021463046FFF740FFF8BD0125E2E700002F
:102BF0005400002004ED00E070B516460C46054672
:102C000004E0A869296A044428468847A86923463D
:102C1000011932462846FFF7FDFE0028F1D170BDAC
:102C20000548816B096821B1816BC96809688162B7
:102C300070474FF0FF31FAE7140000202DE9F04112
:102C4000064600F0FDFD0E4C0546A068854214D2F4
:102C50004FF0FF3704E0C06839460068FFF704FF13
:102C6000E06801680029F6D12169C4E90310012058
:102C700030602846A560BDE8F0810020F8E700003C
:102C80005400002008484068401C4FF0500080F37A
:102C9000118804D0BFF34F8FBFF36F8FFEE7BFF3F0
:102CA0004F8FBFF36F8FFEE784000020074CE06872
:102CB000016841B1C0680021D0F80000FFF766FF4D
:102CC000FFF7F2FEF3E701210020F7E754000020B0
:102CD0002DE9F041044600F065F994F9455004F1FE
:102CE000240609E0606A48B1304600F04BFE08B1A6
:102CF00000F07AFA6D1E6DB2002DF3DC4FF0FF3656
:102D000084F8456000F06EF900F04CF994F94450F5
:102D100004F1100709E0206948B1384600F032FE9E
:102D200008B100F061FA6D1E6DB2002DF3DC84F87D
:102D30004460BDE8F04100F055B9000070B50446AC
:102D4000002600F0CFFA2C4D286808B9FFF796FD51
:102D50007CB304F00700C0F11000C1438C423DD8A1
:102D6000211800293ADD6868814237D8224814309A
:102D70000246146801E02046144662688A4202D284
:102D80002268002AF7D12A68944227D00668226870
:102D9000026060680836421A102A0FD9601843078B
:102DA00008D0502080F31188BFF34F8FBFF36F8F8F
:102DB000FEE713E042606160FFF706FE6168686845
:102DC000401A6860AA68904200D2A86041F00040B2
:102DD000606000202060E868401CE86000F040FE71
:102DE000700707D0502080F31188BFF34F8FBFF3D7
:102DF0006F8FFEE7304670BD6800002010B5031FDE
:102E00004FF080741C601B1F21F001011960191F15
:102E1000044B0B6014390A60091F6FF0020244383A
:102E20000A6010BD852C000810B5FEF755FDBDE801
:102E3000104001A000F00EB852545420496E69743D
:102E4000205375636365737366756C6C79210D0A25
:102E5000000000000FB408B503A800906A460020E7
:102E60000299FEF7D9FD01B05DF814FB1CB50120F5
:102E7000FEF734FD0DA000900EA30FA210A10020BC
:102E8000FEF7BEFD00F08EF815490320CDE90001E4
:102E900000234FF4827213A1154800F04BFC002070
:102EA00000F042F9BDE81C4000F09CB81B5B306D9F
:102EB00000000000493A00001B5B313B33326D00DB
:102EC000202025732573456E7465722073746172BA
:102ED00074207461736B0D0A0D0A257300000000E5
:102EE00098000020636F6D5F7461736B00000000D9
:102EF0008924000810B5044690F80121D0F8040197
:102F0000611CFEF714FBD4F80401C06B0068016873
:102F100021F00801016010BDD0E9013201699A6019
:102F2000D0E901235A604A68824201D182684A602E
:102F3000002202610868401E08600868704700F1BE
:102F400008014FF0FF32C0E90112C16001610021A8
:102F50000160704700210161704730B50B685A1C51
:102F600002D000F1080202E0026904E0224654683F
:102F700025689D42FAD953684B6099608A60516018
:102F800008610168491C016030BD42684A6093686D
:102F90008B6093685960916008610168491C016009
:102FA00070470000502080F31188BFF34F8FBFF3AC
:102FB0006F8F0A494868401C486001280CD10848B6
:102FC000006810F0FF0F07D0502080F31188BFF386
:102FD0004F8FBFF36F8FFEE7704700008400002023
:102FE00004ED00E00849486828B1401E486001D15E
:102FF00080F311887047502080F31188BFF34F8F02
:10300000BFF36F8FFEE700008400002070B500283A
:103010002AD0A0F108046068002807DB502080F364
:103020001188BFF34F8FBFF36F8FFEE7216839B16F
:10303000502080F31188BFF34F8FBFF36F8FFEE7EF
:1030400020F00040606000F04DF9084D606869684C
:10305000084468602046FFF7B7FC2869401C2861D7
:10306000BDE8704000F0FCBC70BD000068000020AE
:103070004FF0E02000210161816105494FF47A722F
:103080000968B1FBF2F1491E4161072101617047F6
:103090001000002070B5002260B100291ED0104C35
:1030A000002300BF04EBC3056E6886420AD104EB1F
:1030B000C3020FE0502080F31188BFF34F8FBFF39E
:1030C0006F8FFEE71AB954F8336006B92A465B1CC5
:1030D000082BE7D3002A01D0C2E9001070BD000020
:1030E000F001002070B515460E460446FFF75AFF62
:1030F00094F944100020491C01D184F8440094F94B
:103100004510491C01D184F84500FFF76BFFA06B07
:1031100028B92A46314604F1240000F083F82046FD
:10312000BDE87040FFF7D4BD70B50546FFF73AFF24
:10313000264C05B92568281DFFF7EEFE58B9E86A48
:10314000234A00EB800152F8211021B9012181406E
:10315000206988432061A86A18B105F11800FFF7BB
:10316000DBFE606A401C60622068854208D1184816
:10317000291DA030FFF709FF6068401C606004E073
:10318000A068401EA060FFF74BFDFFF72BFF2068F3
:10319000854202D02846FFF766FB6069002814D0FC
:1031A0002068854211D1606B38B1502080F31188BE
:1031B000BFF34F8FBFF36F8FFEE706494FF080508C
:1031C0000860BFF34F8FBFF36F8F70BD14000020F6
:1031D0003002002004ED00E002490A6A0260C9687A
:1031E000416070471400002001490120C861704708
:1031F0001400002010B50C4650B109490968183177
:10320000FFF7ABFE2046BDE810400121FFF734BABE
:10321000502080F31188BFF34F8FBFF36F8FFEE70D
:1032200014000020F0B40C46D0B1114943680D6879
:10323000EB619D680E6835620D689E681835756093
:103240000D6818359D60096888620168491C016035
:103250000AB14FF0FF342046F0BC1146FFF70CBA1C
:10326000502080F31188BFF34F8FBFF36F8FFEE7BD
:10327000140000207CB517480025CDE900502B46EE
:10328000822215A1164800F055FA124C2C3C012858
:1032900003D100F07BFC012802D0401C11D00EE0CD
:1032A000502080F31188BFF34F8FBFF36F8F4FF023
:1032B000FF30A06201206061E56000F049F8206BFA
:1032C0007CBD502080F31188BFF34F8FBFF36F8F09
:1032D000FEE700004000002049444C45000000008B
:1032E000C12800080248416B491C41637047000037
:1032F000140000201448416B11B10121C1617047D5
:103300000021C1610169B1FA81F1C1F11F0101EB35
:1033100081020E4951F822306BB101EB820101F1BB
:1033200008034A6852684A609A4201D152684A606A
:10333000D16801607047502080F31188BFF34F8F30
:10334000BFF36F8FFEE70000140000203002002062
:103350001CB537480168374A914207D1502080F3A5
:103360001188BFF34F8FBFF36F8FFEE700683149BD
:10337000491E884207D1502080F31188BFF34F8F38
:10338000BFF36F8FFEE72C4908780190FF2008708B
:1033900008788DF800009DF800009DF8002000F0EE
:1033A000F000904207D0502080F31188BFF34F8F78
:1033B000BFF36F8FFEE79DF80000204C00F0500037
:1033C00020700720A06005E09DF8002052008DF8D5
:1033D0000020401E9DF800201206F5D4A0600328AE
:1033E00007D0502080F31188BFF34F8FBFF36F8F4A
:1033F000FEE74FF44070A060019808700C48203040
:10340000016841F470010160016841F070410160A0
:10341000FFF72EFE00206060FCF72AFF08480168D5
:1034200041F040410160FCF70FFF00201CBD00008F
:1034300000ED00E071C20F4100E400E084000020D4
:1034400034EF00E010B5502080F31188BFF34F8FA8
:10345000BFF36F8F00F0FAF918B104494FF08050B4
:103460000860002080F3118810BD000004ED00E02A
:103470002DE9F04117460E46050020D04FF0FF30F1
:10348000B0FBF5F0B0421AD305FB06F010F1510F76
:1034900015D85030FFF752FC04000CD004F1500056
:1034A0005EB12060C4E90F562046012100F010F8FB
:1034B000204684F84C70BDE8F0812460F2E750208B
:1034C00080F31188BFF34F8FBFF36F8FFEE70000CB
:1034D0002DE9F0410F4604004FF001062DD0E06BBE
:1034E00098B3B51EB5FBF0F1206C81423ED3FFF7D7
:1034F00059FDD4E90F20216802FB0011A1600021D1
:10350000A163216861600A46D4E90F01401E00FBF7
:1035100001212046E16000F8445F457004F110008D
:10352000A7B1FFF70CFD04F12400FFF708FD00BF71
:10353000FFF758FD3046BDE8F081502080F3118838
:10354000BFF34F8FBFF36F8FFEE70FE021690029B4
:10355000EED000F017FA0028EAD008494FF080506A
:103560000860BFF34F8FBFF36F8FE1E7502080F308
:103570001188BFF34F8FBFF36F8FFEE704ED00E0BC
:103580002DE9F747002683B08A46040003D0BAF13C
:10359000000F08D011E0502080F31188BFF34F8F47
:1035A000BFF36F8FFEE7206C38B1502080F3118895
:1035B000BFF34F8FBFF36F8FFEE700F033F9DFF8F3
:1035C000F4804FF000094FF0805748B9059838B1A2
:1035D000502080F31188BFF34F8FBFF36F8FFEE74A
:1035E000FFF7E0FCA56BC5B151462046FFF728F96F
:1035F0006D1EA563206950B104F1100000F0C2F9FE
:1036000028B1C8F80070BFF34F8FBFF36F8FFFF77B
:10361000E9FC012006B0BDE8F087059808B11EB1AD
:1036200006E0FFF7DFFC27E06846FFF7D5FD01263F
:10363000FFF7D8FCFFF756FEFFF7B4FC94F94400FF
:10364000401C01D184F8449094F94500401C01D1FC
:1036500084F84590FFF7C6FC05A9684600F02CF8F1
:10366000002820460AD0FFF733FB00F0F9F9204686
:10367000FFF7ECF90028B3D00020CBE7FFF7E6F91D
:1036800090B104F124000599FFF7B4FD2046FFF73F
:103690001FFB00F0E5F90028A2D1C8F80070BFF3C5
:1036A0004F8FBFF36F8F9BE72046FFF711FB00F0B2
:1036B000D7F995E704ED00E02DE9F0410C4605004F
:1036C00014D0DCB1FFF76EFC194EF2686B6820680D
:1036D000D11A471C1AD02F68D6F820C0002667459B
:1036E00016D0934214D8012526601BE0502080F3A9
:1036F0001188BFF34F8FBFF36F8FFEE7502080F329
:103700001188BFF34F8FBFF36F8FFEE7002509E0ED
:10371000884205D9401A20602846FFF75DFDF5E78D
:1037200001252660FFF75EFC2846BDE8F081000019
:10373000140000202DE9FF5F8346DDE90E879946DE
:1037400016468A469000FFF7F9FA05001DD0602062
:10375000FFF7F4FA040015D06021FCF7CBFE2563D7
:103760000021CDE90241CDE900874B463246514662
:103770005846FFF7D5F82046FEF7C2FF012004B0F7
:10378000BDE8F09F2846FFF741FC4FF0FF30F6E719
:1037900070B50E4605004FF000040BD096B11F4ADD
:1037A000506BB8B1502080F31188BFF34F8FBFF337
:1037B0006F8FFEE7502080F31188BFF34F8FBFF368
:1037C0006F8FFEE7502080F31188BFF34F8FBFF358
:1037D0006F8FFEE7FFF786FDD2682B689919934239
:1037E00004D98B420BD9914202D808E08B42FAD916
:1037F000881A296001240021FEF73EFF00E02960BD
:1038000000F02EF938B906494FF080500860BFF338
:103810004F8FBFF36F8F204670BD00001400002053
:1038200004ED00E00548416919B1406B18B1002072
:1038300070470120704702207047000014000020EC
:103840000148C06870470000140000202DE9F041D5
:103850004A4C0026606B28B1A069401CA06130462C
:10386000BDE8F081E5686D1CE56013D1A06B0068D0
:1038700038B1502080F31188BFF34F8FBFF36F8FA3
:10388000FEE7A06BE16BA163E063206A401C20624D
:10389000FFF7C6F9A16A3A488D420FD34FF0000EE8
:1038A000A16B096839B1A16BC968C9684A689542BA
:1038B00012D2A26202E04FF0FF31A1622168C96A10
:1038C00001EB810150F82100012800D90126E069AF
:1038D0000028C4D00126C2E7D1E902724B69BA6060
:1038E000D1E902277A605F680A1D974201D1CF684B
:1038F0005F60C1F814E01F687F1E1F60D1F828C008
:10390000BCF1000F15D0D1E907379F60D1E9073727
:103910007B60DCF8047001F118039F4202D10B6A4E
:10392000CCF80430C1F828E0DCF800305B1ECCF89D
:103930000030CB6A0127D4F810C09F4047EA0C073B
:10394000276103EB830300EB83035B688B609F6855
:10395000CF609F687A609A60CA6A02EB820200EBCD
:1039600082034B6150F822305B1C40F82230C96A58
:103970002268D26A914293D9012691E7140000206F
:103980003002002070B5C068C06850B3D0E907327B
:10399000816A9A60D0E907235A604A6800F11803E7
:1039A0009A4201D1026A4A60002585620A68521E65
:1039B0000A6029494A6B0124DAB1284D6A68C2615C
:1039C0009668066296687360936085622A68521CE6
:1039D0002A60C06A0A68D26A90423AD90120CC6152
:1039E00070BD502080F31188BFF34F8FBFF36F8FEE
:1039F000FEE7D0E902634269B360D0E90236736042
:103A00005668031D9E4201D1C6685660456115681F
:103A10006D1E1560C26A0E6904FA02F535430D6128
:103A20000E4D02EB82028C3D05EB820252688260F1
:103A30009668C660966873609360C26A02EB820201
:103A400005EB8203436155F822305B1C45F82230B8
:103A5000BFE7002070BD000014000020BC02002061
:103A60002DE9F041464D00242746686B38B1FFF739
:103A700099FA686B401E6863686B40B17AE0502029
:103A800080F31188BFF34F8FBFF36F8FFEE7A868F5
:103A90003C4B00264FF00108F0BB6BE0D868C468CF
:103AA000D4E90721A06A9160D4E907125160426805
:103AB00004F118018A4201D1216A4160A6620168BD
:103AC000491E0160D4E9022160699160D4E90212C3
:103AD00051604268211D8A4201D1E26842606661FC
:103AE0000268521E0260E26AD5F810C008FA02F0BD
:103AF00040EA0C00286102EB8200224A8C3A02EB79
:103B000080004068A060D0F808C0C4F80CC0D0F8AD
:103B100008C0CCF8041000E012E08160E06A00EB1D
:103B2000800002EB8001616152F82010491C42F8CC
:103B30002010E06A2968C96A884201D3C5F81C8050
:103B400018680028AAD10CB1FFF76AF8AC693CB13B
:103B5000FFF77CFE08B1C5F81C80641EF8D1AE6189
:103B6000E86938B10849012738070860BFF34F8F6B
:103B7000BFF36F8FFFF736FA3846BDE8F0810000DB
:103B800014000020BC02002004ED00E01CB5FEF78C
:103B90002FFE0D48006868B10B490220091DCDE9D0
:103BA000000100234FF4827208A10A48FFF7C2FD0A
:103BB000002807D1502080F31188BFF34F8FBFF347
:103BC0006F8FFEE71CBD000054000020546D722072
:103BD00053766300AD2C00084FF04070E1EE100A00
:103BE00070470006101600061016000000000000C6
:103BF000000001020304060708090000000001029A
:103C00000304303132333435363738394142434496
:103C100045460000000000005454522052454747DA
:103C20004553003031323334353637383941424329
:103C300044454600543C000800000020A00000005D
:103C4000C4010008F43C0008A000002098390100DD
:103C5000E00100080000000001000000100000006A
:103C6000000000000024F40000000000000000003C
:103C70000000000000000000000000000000000044
:103C80000000000000000000000000000000000034
:103C90000000000000000000040000000000000020
:103CA0000000000000000000000000000000000014
:103CB0000000000000000000000000000000000004
:103CC00000000000000000000000000000000000F4
:103CD000000000000000000000000000AAAAAAAA3C
:103CE00000000000000000000000000000000000D4
:043CF00000000000D0
:040000050800018965
:00000001FF
