:020000040800F2
:10000000184501200903000843240008C321000803
:10001000412400083F0600088D2F00080000000062
:10002000000000000000000000000000490200087D
:100030000907000800000000A502000829270008A1
:1000400023030008230300082303000823030008F8
:1000500023030008230300082303000823030008E8
:1000600023030008230300082303000823030008D8
:1000700041060008230300084D060008230300087A
:1000800023030008230300082303000823030008B8
:1000900023030008230300082303000823030008A8
:1000A0002303000823030008230300082303000898
:1000B0002303000823030008230300082303000888
:1000C0002303000823030008230300082303000878
:1000D000230300082303000823030008812F0008DE
:1000E0002303000823030008230300082303000858
:1000F0002303000823030008230300082303000848
:100100002303000823030008230300082303000837
:10011000230300082303000823030008E527000841
:100120002303000823030008230300082303000817
:1001300059060008230300082303000823030008CE
:1001400023030008230300082303000823030008F7
:1001500023030008230300082303000823030008E7
:1001600023030008230300082303000823030008D7
:1001700023030008230300082303000800000000F5
:10018000230300082303000800F002F800F04CF8F5
:100190000AA090E8000C82448344AAF10107DA45E2
:1001A00001D100F041F8AFF2090EBAE80F0013F0E8
:1001B000010F18BFFB1A43F0010318470055000058
:1001C000205500000A4410F8014B14F00F0508BF39
:1001D00010F8015B240908BF10F8014B6D1E05D013
:1001E00010F8013B6D1E01F8013BF9D1641E03D0EC
:1001F000641E01F8015BFBD19142E4D3704700001B
:100200000023002400250026103A28BF78C1FBD81F
:10021000520728BF30C148BF0B6070471FB505F0BB
:10022000B3F91FBD10B510BD00F0D0F91146FFF7AE
:10023000F5FF03F0B7FB00F0EEF903B4FFF7F2FFB0
:1002400003BC00F0F5F900002C4B19680868B0E811
:10025000F04F80F30988BFF36F8F4FF0000080F3F9
:10026000118870470000000008480068006880F3AB
:1002700008884FF0000080F3148862B661B6BFF3BF
:100280004F8FBFF36F8F00DF00BF00BF08ED00E0AE
:10029000DFF80C00016841F470010160704700BF95
:1002A00088ED00E0EFF30980BFF36F8F134B1A68FE
:1002B0001EF0100F08BF20ED108A20E9F04F1060EB
:1002C00009B44FF0500080F31188BFF34F8FBFF394
:1002D0006F8F04F069FA4FF0000080F3118809BCB9
:1002E00019680868B0E8F04F1EF0100F08BFB0ECB6
:1002F000108A80F30988BFF36F8F704718000020C1
:10030000EFF305807047000009488047094800471F
:10031000FEE7FEE7FEE7FEE7FEE7FEE7FEE7FEE7B5
:10032000FEE7FEE704480549054A064B7047000012
:10033000D527000889010008183F01201845012031
:10034000184101201841012053EA020C00F0698095
:100350002DE9F04B4FF00006002B1FBFB3FA83F5D9
:1003600003FA05F424FA05F65E4012BF1643B2FA0A
:1003700082F502FA05F4C5F120051EBF22FA05FC3C
:1003800044EA0C04203556EA044C4FEA144418BFE2
:10039000641C4FF000084FF00009904271EB030C11
:1003A00039D3002919BFB1FA81F701FA07F6B0FA7B
:1003B00080F700FA07F6C7F120071EBF20FA07FCF6
:1003C00046EA0C062037B6FBF4FCA7EB0507103F06
:1003D00007F01F0BCBF120060CFA0BFB2CFA06F6EC
:1003E00044BFB3460026202FA4BF5E464FF0000B4B
:1003F0005BEA060C08BF4FF0010B19EB0B09ABFBD6
:10040000027C48EB0608C01B06FB02CC0BFB03CCAE
:1004100071EB0C01C1E70B46024641464846BDE878
:10042000F08B13B54FF000004FF00001AFF30080E8
:10043000BDE81C407047032A40F2308010F0030CE6
:1004400000F0158011F8013BBCF1020F624498BF27
:1004500011F801CB00F8013B38BF11F8013BA2F1C4
:10046000040298BF00F801CB38BF00F8013B11F03F
:10047000030300F07980083AC0F0088051F8043B8B
:10048000083A51F804CBA0E80810F5E7121D5CBF4C
:1004900051F8043B40F8043BAFF30080D20724BF7F
:1004A00011F8013B11F801CB48BF11F8012B24BF13
:1004B00000F8013B00F801CB48BF00F8012B704762
:1004C00002F0FF0343EA032242EA024200F002B8CC
:1004D0004FF000020429C0F0128010F0030C00F06D
:1004E0001B80CCF1040CBCF1020F18BF00F8012BEB
:1004F000A8BF20F8022BA1EB0C0100F00DB85FEAB9
:10050000C17C24BF00F8012B00F8012B48BF00F884
:10051000012B70474FF0000200B5134694469646F3
:10052000203922BFA0E80C50A0E80C50B1F1200106
:10053000BFF4F7AF090728BFA0E80C5048BF0CC0B4
:100540005DF804EB890028BF40F8042B08BF704712
:1005500048BF20F8022B11F0804F18BF00F8012B84
:10056000704770477047704710B5203AC0F00B8055
:10057000B1E81850203AA0E81850B1E81850A0E8A7
:100580001850BFF4F5AF5FEA027C24BFB1E8185001
:10059000A0E8185044BF18C918C0BDE810405FEA71
:1005A000827C24BF51F8043B40F8043B08BF7047ED
:1005B000D20728BF31F8023B48BF11F8012B28BFF2
:1005C00020F8023B48BF00F8012B7047754600F049
:1005D0002BF8AE4605006946534620F007008546D5
:1005E00018B020B5FFF79EFEBDE820404FF0000692
:1005F0004FF000074FF000084FF0000B21F007010B
:10060000AC46ACE8C009ACE8C009ACE8C009ACE84D
:10061000C0098D46704710B50446AFF300802046F0
:10062000BDE81040FFF709BE00487047B83E012002
:1006300001491820ABBEFEE7260002007047FEE726
:10064000014800F0BFB80000E4020020014800F0BB
:10065000B9B8000044030020014800F0B3B800001E
:100660003C02002001681823CAB2103AB2FBF3F230
:10067000054B6FF30901032A9B5CC36500D9091D73
:1006800081650846704700009255000810B5014684
:1006900000208B698A6A4FF0C07453B1B3F5005FD4
:1006A00015D072B1012A0CD0022A0AD0032A09D12E
:1006B00004E01AB1012A06D0022A03D1C96AC9018D
:1006C00000D5012010BDC96AA142FAD010BD002A90
:1006D000F7D0012AF2D0022AF3D0032AF3D010BDBA
:1006E00030B50468256825F48025256004686360BA
:1006F0008368402B036803D099600068C26030BDF6
:100700009A600068C16030BD704772B6FEE72DE99F
:10071000F0410446876D00F0D7FA064694F835009C
:100720000025022806D08020606584F8345001201E
:10073000BDE8F0812068016821F0160101602068A1
:10074000416921F080014161206C08B9A06C20B1A1
:100750002068016821F0080101602068016821F02B
:10076000010101600CE000F0AFFA801B052807D9F9
:1007700020206065032084F8350084F83450D7E7E2
:1007800020680068C007EED194F85C103F208840D4
:10079000B860012084F8350084F834500020C7E7A1
:1007A00090F83510022903D080214165012070475F
:1007B000052180F835100068016821F00101016011
:1007C000002070472DE9F84304464FF00009CDF8AA
:1007D000009063484FF41651A56D0068B0FBF1F727
:1007E0002E6894F85C10082000FA01F131420FD015
:1007F00021680A6852070BD50A6822F004020A60D1
:1008000094F85C108840A860606D40F0010060655D
:1008100094F85C104FF0010808FA01F0304208D05B
:1008200021684969090604D5A860606D40F002009E
:10083000606594F85C1004208840304208D021683C
:100840000968890704D5A860606D40F00400606500
:1008500094F85C1010208840304218D02168096854
:10086000090714D5A86020680168490304D5006809
:10087000000308D5A16C07E00168C90503D401682D
:1008800021F008010160216C09B12046884794F8E5
:100890005C1020208840304231D021680968C906A8
:1008A0002DD5A86094F8350005282068016806D089
:1008B000490347D5006800031DD4616C1CE021F09A
:1008C000160101602068416921F080014161206CBE
:1008D00008B9A06C20B12068016821F0080101600E
:1008E00094F85C103F208840A86084F8358084F834
:1008F0003490216D1FE0E16B09B120468847606D9F
:1009000000282BD0606DC00714D0052084F8350076
:100910002068016821F0010101600098401C0090EE
:10092000B84203D820680068C007F6D184F8358043
:1009300084F83490E16C002910D001B02046BDE865
:10094000F04308470168C905D5D4016821F01001BA
:10095000016084F8358084F83490CCE7BDE8F883F2
:10096000140000202DE9F041044600F0ADF90646E0
:100970005CB1022084F83500002584F834502068EA
:10098000016821F0010101600DE00120BDE8F08166
:1009900000F09AF9801B052805D920206065032006
:1009A00084F83500F2E720680068C007F0D12268BB
:1009B000116820480140D4E901031843D4E9033603
:1009C0003343184363691843A3691843E369184321
:1009D000236A18430843616A042903D1D4E90B133D
:1009E00019430843106020684069666A20F00701D7
:1009F00030460E43012704280CD1A06A0643E06A62
:100A000040B12046FFF742FE20B14020606584F8E7
:100A10003570BAE7206846612046FFF723FE94F858
:100A20005C203F2191408160656584F8357000202D
:100A3000ACE700003F8010F02DE9F0410446866DE0
:100A400090F83400002501280DD0012084F83400EE
:100A500094F835700020012F07D084F83400022567
:100A60002846BDE8F0810220FBE7022784F83570B4
:100A700060652046FFF734FE94F85C103F20884004
:100A8000B0602068016841F016010160206C20B15F
:100A90002068016841F0080101602068016841F0A8
:100AA00001010160DCE7000070B5044600F00CF9BC
:100AB0000546601C02D004480078044400F004F9A4
:100AC000401BA042FAD370BD080000202DE9F84F6A
:100AD000DFF8BCA10022012503264FF00F090AF11F
:100AE000040BAAF1040E00BF0B6805FA02F42340C0
:100AF000A34270D10F7907F00307012F01D0022F15
:100B000016D187684FEA420806FA08FC27EA0C0764
:100B1000D1F80CC00CFA08FC4CEA070CC0F808C06D
:100B20004768A7430C79C4F3001494403C434460E5
:100B30000C79E443A4070AD0C4684FEA420C06FAD1
:100B40000CF7BC438F6807FA0CF72743C7600C7992
:100B500004F00304022C12D1D40800EB840CDCF85E
:100B600020405707FF0E09FA07F824EA0804D1F8D5
:100B7000108008FA07F848EA0408CCF820800468D6
:100B80004FEA420C06FA0CF7BC430F7907F0030753
:100B900007FA0CF7274307604C6814F4403F70D005
:100BA0003C4C276847F480472760246822F00307FD
:100BB00004F480440094384C07EB040CDCF808483B
:100BC00097074FEA177809FA08F7BC43334FB84242
:100BD00002D1002724E054E0314FB84201D101276F
:100BE0001EE0304FB84201D1022719E02E4FB84223
:100BF00001D1032714E02D4FB84201D104270FE0A3
:100C00002B4FB84201D105270AE02A4FB84201D143
:100C1000062705E0284FB84201D1072700E0082742
:100C200007FA08F72743CCF80878DAF80040574667
:100C3000D1F804C09C435FEACC2C00D51C433C6037
:100C4000DBF800405F46D1F804C09C435FEA8C2C7F
:100C500000D51C433C60DEF800407746D1F804C064
:100C60009C435FEA8C3C00D51C433C60084F083F26
:100C70003C68D1F804C09C435FEACC3C00D51C43DF
:100C80003C60521C102AFFF42FAFBDE8F88F000023
:100C9000083C01404438024000300140000002405E
:100CA0000004024000080240000C02400010024014
:100CB0000014024000180240001C02400AB1816189
:100CC00070470904FBE70000014880687047000096
:100CD0000800002002488168027811448160704752
:100CE000080000200B4810B5016841F40071016054
:100CF000016841F480610160016841F48071016024
:100D0000032000F09BF8012000F006F800F050F8F6
:100D1000002010BD003C024030B505461F4887B09A
:100D20000024016841F020010160006806A900F07C
:100D30002000009001A800F02DF90498A8B100F05F
:100D400049F940001649174AB0FBF1F11648491E0F
:100D5000026040F2E732C0E90324C0E90114846173
:100D600000F0B2FB040003D015E000F033F9E9E72E
:100D70000D4800F0EBFB04000DD1372000F030F8F7
:100D8000102D07D200222946372000F037F80748F7
:100D9000056000E0012407B0204630BD4038024025
:100DA00040420F0000140040A40300200C0000206B
:100DB0000A4808B5016841F480410160006800F408
:100DC000804000900548001F016841F0805101609B
:100DD000006800F08050009008BD000044380240D8
:100DE000002809DB00F01F0201219140400980002A
:100DF00000F1E020C0F8001170470000F0B40E4B85
:100E00001B680C46C3F30223C3F10705042D00D968
:100E10000425191D072901D2002300E0DB1E01264D
:100E200006FA05F1491E214099409E40761E164063
:100E30003143F0BC02F07FBB0CED00E0064900F04E
:100E4000070208684FF6FF03184040EA0220034AF1
:100E500010430860704700000CED00E00000FA0548
:100E60002DE9F0470E46050065D0DFF81481D8F86B
:100E70000000F7B200F00700B04207D288F8007017
:100E8000D8F8000000F00700B04254D128683D4C6B
:100E9000810712D5400703D5206840F4E050206058
:100EA0002878000703D5206840F46040206020685F
:100EB000A96820F0F000084320602878C0072DD0F2
:100EC000304968680839012812D0022813D0032855
:100ED00011D00968890700292DDA216821F0030162
:100EE00001432160FFF7F0FE814641F2883A0EE0AF
:100EF00009688903EFE709688901ECE7FFF7E4FE79
:100F0000A0EB0901514502D90320BDE8F087206814
:100F1000696800F00C00B0EB810FEFD1D8F8001039
:100F2000404601F00701B14207D90770006800F0A0
:100F30000700B04201D00120E7E72878400705D537
:100F40002068E96820F4E050084320602878000712
:100F500006D52068296920F4604040EAC10020607D
:100F600000F058F82168084AC1F30311515CC840E9
:100F70000649086006480068FFF7CEFE0020C4E777
:100F8000003C0240083802409A5500081400002036
:100F90000C0000200F2202600C4A136803F00303C8
:100FA0004360136803F0F0038360136803F4E053B5
:100FB000C36012684FF4E05303EAD20202610448AE
:100FC000006800F007000860704700000838024021
:100FD000003C02400448054900680968044AC1F31E
:100FE0008221515CC840704714000020083802403C
:100FF000AA5500080448054900680968044AC1F375
:101000004231515CC840704714000020083802404B
:10101000AA550008154810B5006810F00C021448D5
:1010200013D04110042A0FD0082A0ED10F4C241FD0
:101030002268236802F03F025B0207D52068C0F3F4
:101040008810A0FB010106E0084610BD2168C1F32D
:101050008811A1FB00010023FFF776F92168C1F395
:101060000141491C4900B0FBF1F010BD08380240B5
:101070000024F4002DE9F84F04006ED02078DFF84A
:101080004C93C007A9F104054AD009F10400016896
:10109000C1F38101012908D00068C0F38100022852
:1010A0000AD1D9F80000400206D52868800337D558
:1010B00060680028E1D033E06068B0F5803F10D070
:1010C000B0F5A02F286810D020F480302860286860
:1010D00020F4802028606068A8B1FFF7F5FD06467F
:1010E0000DE0286840F48030F4E740F48020286068
:1010F000F7E700BFFFF7E8FD801B642873D8286876
:101100008003F7D50CE0FFF7DFFD064605E000BFE2
:10111000FFF7DAFD801B6428F0D828688003F7D435
:101120002078DFF8AC8280074FF0000A3ED5A74850
:10113000001D016811F00C0F08D00068C0F3810099
:1011400002280BD1D9F80000400207D42868800794
:1011500016D5E068012800D112E033E1E068B8B1AB
:101160000120C8F80000FFF7AFFD064605E000BF0C
:10117000FFF7AAFD801B0228C0D828688007F7D592
:101180002868216920F0F80040EAC10028600DE0DD
:10119000C8F800A0FFF798FD064604E0FFF794FDAD
:1011A000801B02281FD828688007F7D42078000702
:1011B00022D5864F87486169703771B1012101607E
:1011C000FFF782FD064604E0FFF77EFD801B022844
:1011D00009D838688007F7D50EE0C0F800A0FFF7FF
:1011E00073FD064605E082E0FFF76EFD801B0228D6
:1011F0007DD838688007F7D42078400768D5DFF8B5
:10120000CCB100270BF13C0BDBF80000C0000BD485
:10121000DBF8001041F08051CBF80010DBF8000043
:10122000012700F0805000906B4E3068C00510D44C
:10123000306840F480703060FFF746FD009005E0B4
:10124000FFF742FD0099401A022850D83068C005C7
:10125000F6D55E4EA0686C3601280FD005283068A0
:1012600010D020F001003060306820F004003060C1
:10127000A068B8B1FFF728FD00900FE0306840F09B
:101280000100F4E740F004003060F7E7FFF71CFDD1
:101290000099411A41F28830814266D8306880074F
:1012A000F4D50EE0FFF710FD009007E0FFF70CFD0E
:1012B0000099411A41F28830814256D8306880073F
:1012C000F4D42FB1DBF8001021F08051CBF80010DE
:1012D000A069C8B33D49091D0968C1F3810102290C
:1012E0004AD00228504607D0C8F8600000E03CE031
:1012F000FFF7EAFC04463BE04746C8F86000FFF70A
:10130000E3FC064605E000BFFFF7DEFC801B022879
:101310002BD828688001F7D4D4E907010843A16AD3
:101320002E4A490802EB0141626A41EA82110843F0
:1013300094F82C1040EA0161C9F8001001203866C9
:10134000FFF7C2FC044606E03EE000BFFFF7BCFC2E
:10135000001B022809D828688001F7D534E000BFB7
:10136000FFF7B2FC001B022802D90320BDE8F88F6A
:1013700028688001F4D427E00128F7D0D9F80000CC
:10138000E26900F4800191421CD1226A00F03F0121
:10139000914217D147F6C071626A0140B1EB821FDA
:1013A00010D1A26A4FF0FF3300F4403103EB520238
:1013B000B1EB024F06D194F82C1000F07060B0EB46
:1013C000016F01D00120D1E70020CFE704380240AF
:1013D00000004742800E4742007000400000FFFFBF
:1013E0007047704710B590F83C20012A22D00122A6
:1013F00080F83C20CA688C6822F4407222434C6812
:1014000022F4806222430C6822F4006222430C69B9
:1014100022F4805222434C6922F400522243C969CB
:10142000002322F480420A4301684A6480F83C3079
:10143000002010BD022010BD70B590F83C20012A9C
:1014400032D0012480F83C40022280F83D2003681D
:101450005A689D6822F070060A6832435A60134B3E
:1014600002689A4214D0B2F1804F11D0104B9A42C8
:101470000ED0104B9A420BD00F4B9A4208D00F4B14
:101480009A4205D00E4B9A4202D00E4B9A4204D19A
:10149000496825F080031943916080F83D400021A0
:1014A00080F83C10084670BD022070BD000001406D
:1014B0000004004000080040000C0040000401400F
:1014C000004001400018004010B5040003D094F81B
:1014D0003D0010B107E0012010BD002084F83C0061
:1014E000204600F01FF8022084F83D00211D2068EE
:1014F00001F07EF9012084F8460084F83E0084F86B
:101500003F0084F8400084F8410084F8420084F8E9
:10151000430084F8440084F8450084F83D0000202E
:1015200010BD000008B500680649884208D1064889
:10153000016841F004010160006800F004000090BF
:1015400008BD0000000800404038024090F83D10FF
:10155000012901D001207047022180F83D10016867
:10156000CA6842F00102CA6000681149884214D07A
:10157000B0F1804F11D00F4988420ED00E498842F9
:101580000BD00E49884208D00D49884205D00D493C
:10159000884202D00C49884204D1816801F00701D9
:1015A000062903D0016841F0010101600020704765
:1015B000000001400004004000080040000C004012
:1015C00000040140004001400018004070B504468E
:1015D00090F83C000025012817D0012684F83C60D3
:1015E000022084F83D002068826822F0770222F40D
:1015F0007F4282600868502838D00DDC20284FD008
:1016000005DC90B3102811D14AE0022070BD3028CB
:1016100046D040280AD13BE060282FD070280DD05A
:10162000B0F5805F03D0B0F5005F12D0012584F8DB
:101630003D60002084F83C00284670BDCB68D1E9AD
:101640000121206801F0C2F92068816841F077012A
:1016500009E0CB68D1E90121206801F0B7F92068E1
:10166000816841F480418160E1E719E0CA68496816
:10167000206801F07FFA5021206806E0CA684968B6
:10168000206801F088FA6021206801F0A9F9CEE70E
:10169000CA684968206801F06DFA40212068F4E7C3
:1016A000226801461046F0E7704770472DE9F04187
:1016B00004460068C66805694FF00007A90713D5FE
:1016C000B10711D5F91E01610120207720688069DA
:1016D0008007204602D0FFF7E8FF04E000F0C0F8E2
:1016E000204600F085F92777680716D5700714D5CE
:1016F00021686FF00400086102202077206880696B
:1017000010F4407F204602D0FFF7CFFF04E000F046
:10171000A7F8204600F06CF92777280715D5300781
:1017200013D521686FF00800086104202077206835
:10173000C0698007204602D0FFF7B7FF04E000F041
:101740008FF8204600F054F92777E80616D5F00602
:1017500014D521686FF010000861082020772068F8
:10176000C06910F4407F204602D0FFF79EFF04E0DE
:1017700000F076F8204600F03BF92777E80708D01C
:10178000F00706D021686FF001000861204600F0E4
:1017900075FA280608D5300606D521686FF0800056
:1017A00008612046FFF71CFE680608D5700606D5BE
:1017B00021686FF040000861204600F069FAA80631
:1017C0000AD5B00608D521686FF0200008612046D0
:1017D000BDE8F041FFF705BEBDE8F08110B586B069
:1017E000044614216846FEF795FE2368174C002135
:1017F00017480222A34211D1036843F0100303608B
:10180000006800F01000059050030090CDE9012120
:101810000120CDE9031069460E4813E00E4CA342A7
:1018200012D1036843F008030360006800F0080069
:1018300005904FF460400090CDE90121CDE90312FD
:1018400069460648FFF742F906B010BD00000140A6
:10185000303802400010024000080040000C0240F6
:10186000704770B5044690F83C0000260D460128EC
:101870000FD0012084F83C006AB1042A1DD0082A48
:101880002FD00C2A3FD00126002084F83C0030469F
:1018900070BD022070BD206801F0AAF8206881693F
:1018A00041F0080181612068816921F004018161B2
:1018B000206881692A69114311E0206801F0C8F8A5
:1018C0002068816941F4006181612068816921F4A7
:1018D00080618161206881692A6941EA0221816110
:1018E000D2E7206801F0EAF82068C16941F00801F8
:1018F000C1612068C16921F00401C1612068C1692A
:101900002A69114311E0206801F00CF92068C169CF
:1019100041F40061C1612068C16921F48061C16145
:101920002068C1692A6941EA0221C161ACE710B5AA
:10193000040003D094F83D0010B107E0012010BD71
:10194000002084F83C00204600F01EF8022084F8B5
:101950003D00211D206800F04BFF012084F8460067
:1019600084F83E0084F83F0084F8400084F8410089
:1019700084F8420084F8430084F8440084F8450069
:1019800084F83D00002010BD38B5054600681449B4
:10199000884223D1134900200A6842F001020A60FC
:1019A0000968124C01F0010100910F4921604FF0CC
:1019B000406161604021C4E902100901C4E90410DA
:1019C000A061E061206260622046FEF7CBFF08B1B3
:1019D000FEF79BFE2C63AC636C63A56338BD00000F
:1019E0000000014044380240706402403C02002084
:1019F0007047704710B50446022249B104290ED041
:101A0000082913D094F84100012816D0012010BDF8
:101A100094F83E000128F9D184F83E200FE094F8B4
:101A20003F000128F2D184F83F2008E094F84000FC
:101A30000128EBD184F8402001E084F84120012204
:101A4000206800F041FF16492068164A884201D0FC
:101A5000904203D1436C43F40043436420688842BE
:101A600013D0B0F1804F10D00F4988420DD00F49EC
:101A700088420AD00E49884207D0904205D00D49CD
:101A8000884202D00C49884204D1816801F00701E4
:101A9000062903D0016841F001010160002010BD5A
:101AA0000000014000040140000400400008004024
:101AB000000C004000400140001800402DE9F041BA
:101AC00017460D0004464FF000060CD0042D11D02F
:101AD000082D16D094F84100022819D094F841003E
:101AE000012818D07CE094F83E00022810D094F829
:101AF0003E00F5E794F83F00022809D094F83F0033
:101B0000EEE794F84000022802D094F84000E7E79E
:101B10000220BDE8F081002F62D0002B60D04D493B
:101B20004D4ADFF838C102204DB1042D18D0082DE0
:101B300027D084F841000C2D44D0012687E084F89A
:101B40003E00606AC163606A39460264606AC0F838
:101B50004CC02268606A3432FEF76EFF88BB21E019
:101B600084F83F00A06AC163A06A39460264A06A93
:101B7000C0F84CC02268A06A3832FEF75DFF00BB97
:101B800015E084F84000E06AC163E06A3946026407
:101B9000E06AC0F84CC02268E06A3C32FEF74CFFB5
:101BA00078B909E02068C16841F400711EE020683E
:101BB000C16841F4806119E02068C16841F40061A6
:101BC00014E00DE0206BC163206B39460264206B8A
:101BD000C0F84CC02268206B4032FEF72DFF08B1E0
:101BE000012096E72068C16841F48051C16001225C
:101BF0002946206800F068FE19492068194A884281
:101C000001D0904203D1436C43F400434364206805
:101C1000884213D0B0F1804F10D0134988420DD0C4
:101C2000124988420AD01249884207D0904205D012
:101C30001049884202D01049884204D1816801F0DD
:101C40000701062903D0016841F001010160304617
:101C50005FE70000E328000841290008792900080F
:101C60000000014000040140000400400008004062
:101C7000000C00400040014000180040006803498B
:101C8000884201D1FFF726B87047000000140040D9
:101C9000704738B5044690F84200202801D0022051
:101CA00038BD61B15AB10120206300206063204635
:101CB00001F01EF90028F3D1216B012901D0012088
:101CC00038BD21680A684968009121680C3151E8E3
:101CD000002F42F0100241E80023002BF5D138BD5F
:101CE0007CB5154D0E46002455F82410D1F804118A
:101CF000814203D0641CE4B2032CF5D355F82400D0
:101D0000D0F808214AB13146401C904755F82400CC
:101D10003146401CFEF7DCFB08E008A0CDE900409E
:101D200008A309A20AA1002000F020FC55F8240015
:101D3000BDE87C4002F008BBD43501201B5B306D50
:101D400000000000453A00001B5B313B33316D0061
:101D50002020257325735B756172745F64656F6302
:101D600064655D5541525420256420486173204EBE
:101D70006F2043616C6C6261636B210D0A257300F7
:101D80007CB50E4D002400BF55F82410D1F8041185
:101D9000814203D0641CE4B2032CF5D308A0CDE942
:101DA000004009A309A20BA1002000F0DFFB55F8B9
:101DB0002400BDE87C4002F0C7BA0000D435012001
:101DC0001B5B306D00000000453A00001B5B313B9F
:101DD00033316D002020257325735B756172745F4C
:101DE00072785D554152542025642048617320610A
:101DF0006E204572726F72210D0A2573000000007B
:101E0000F8B5016804460868CA684B6910F00F0FFE
:101E10004FF0000559D003F0010602F490773743E4
:101E200065D0C10705D0D10503D5616C41F0010132
:101E30006164410705D5D90703D0616C41F0020107
:101E40006164810705D5D90703D0616C41F00401B5
:101E50006164010707D502F02001314303D0616CB2
:101E600041F008016164616C00293AD0800604D514
:101E7000900602D5204600F054FF20684069616C4E
:101E8000C0F38010090700D460B3204600F014FFAF
:101E900020684069400621D52068143050E8001FB2
:101EA00021F0400140E80012002AF5D1E06BA8B112
:101EB0006E490165E06BFEF773FC002811D0E06B02
:101EC000016D01B0BDE8F040084783060FD59306C9
:101ED0000DD52046BDE8F84000F023BF2046FFF7AF
:101EE0004FFFF8BD2046FFF74BFF6564F8BD266B3A
:101EF0002023012E7DD1C6067BD5D60679D508686C
:101F00004868009048694FF00206400641D5E16BF1
:101F1000086840680004000CE8D0A28D8242E5D930
:101F2000E085C869B0F5807F2DD020680C3050E87E
:101F3000001F21F4807140E80012002AF5D12068CA
:101F4000143050E8001F21F0010140E80012002A7F
:101F5000F5D12068143050E8001F21F0400140E81E
:101F60000012002AF5D184F84230256320680C3035
:101F700050E8001F21F0100140E80012002AF5D1BE
:101F8000E06BFEF7C4FB6663A08DE18D401A81B261
:101F90002AE0A08DE18D401A81B2E08D0028A5D005
:101FA0000029A3D022680C3252E8000F20F4907070
:101FB00042E80007002FF5D12068143050E8002FC8
:101FC00022F0010240E80027002FF5D184F84230CA
:101FD000256320680C3050E8002F22F0100240E802
:101FE0000023002BF5D166632046FFF779FEF8BD8C
:101FF000FFE705062BD5150629D594F841002128C1
:10200000F5D1A068B0F5805F01D12069B0B1206A38
:10201000411C2162216800784860E08C401E000469
:10202000000CE084E3D12068C16821F08001C16028
:102030002068C16841F04001C160D8E7206A00888B
:10204000C0F308004860206A801C2062E5E7400673
:10205000CDD55006CBD5CA68204622F04002CA60D2
:1020600084F8413000F0ACF8C1E70000BB2B000859
:1020700070B5040004D094F84100002510B106E0CA
:10208000012070BD84F84050204600F023F8242041
:1020900084F841002068C16821F40051C1602046E5
:1020A00000F0A0FE2068016921F4904101612068E0
:1020B000416921F02A0141612068C16841F4005161
:1020C000C1606564202084F8410084F842006563A3
:1020D000002070BD2DE9F04186B006461421684607
:1020E000FEF718FA30493068884259D12F48002449
:1020F000016841F480210160006800F480200590AF
:102100002A481038016841F0020101600068694600
:1021100000F0020005904FF4406000900220CDE9ED
:10212000010403200390072004902148FEF7CEFC11
:10213000214D20484FF000672860C5E901744FF435
:102140008068C5E903486C61AC61EC612C6228468B
:102150006C62FEF707FC08B1FEF7D7FAF563AE63D1
:10216000154D144860353030E5E802074020A5E8F9
:102170001101114845F814496030AC61EC612C62E2
:102180006C62FEF7EFFB08B1FEF7BFFAB563002201
:1021900011462720AE63FEF731FE2720FEF720FE12
:1021A00006B0BDE8F0810000004800404038024021
:1021B0000004024028600240E4020020704770479B
:1021C0007047FEE7154808B5016841F40011016049
:1021D000016801F400110091016841F4800101607F
:1021E0000068002200F48000009011460C20FEF7E9
:1021F00005FE0C20FEF7F4FD002211460E20FEF72E
:10220000FDFD0E20FEF7ECFD002211463C20FEF7FE
:10221000F5FDBDE808403C20FEF7E2BD3038024045
:1022200070B586B014216846FEF774F91E48002484
:10223000016841F080010160016801F080010591B1
:10224000016841F010010160016801F01001059181
:10225000016841F002010160016801F0020105918D
:10226000016841F008010160016801F00801059171
:10227000016841F00101016000680C4E00F00100AE
:102280004FF400650590002229463046FEF716FD02
:1022900001200095CDE90104694630460394FEF71C
:1022A00015FC06B070BD000030380240000C024042
:1022B00010B592B000240F941C2108A81094FEF7CA
:1022C00029F920216846FEF725F91F481D49C0E974
:1022D0000014D221C0E90241046144618461FFF726
:1022E00026FB08B1FEF711FA0F940FA916481094B7
:1022F000FFF7A2F808B1FEF708FA6020CDE908045C
:102300000A940C940D940C2208A90F480E94FFF720
:10231000A8FA08B1FEF7F9F900944FF40050CDE99E
:102320000440029401940394694607480794FFF718
:1023300059F808B1FEF7E9F90348FFF74FFA12B070
:1023400010BD000000000140AC01002010B58EB0AF
:1023500000240794089409940A940B941C2168465D
:102360000C94FEF7D7F82748254901605321C0E9AE
:10237000011440F2FB41C0E903148461FFF7A4F8A3
:1023800008B1FEF7C2F94FF48050079007A91D4825
:10239000FFF71CF908B1FEF7B8F91A48FFF7C7FABA
:1023A00008B1FEF7B2F90B940BA916480C94FFF78D
:1023B00043F808B1FEF7A9F96020CDE90004022036
:1023C00002900422694604940E48FFF74AFA08B1C5
:1023D000FEF79BF9082269460A48FFF742FA08B15E
:1023E000FEF793F90C2269460648FFF73AFA08B15E
:1023F000FEF78BF90348FFF7F1F90EB010BD0000AE
:1024000000080040F40100200C4810B50A490160A2
:102410004FF4E1314160002181600C22C160C0E9CC
:1024200004128161C161FFF723FE002803D0BDE8DB
:102430001040FEF76AB910BD004800409C02002021
:10244000FEE7FEE700F0FEBE2DE9F84304461F4814
:102450000078532801D000F0F5FEFF2000258DF80C
:1024600000004FF0FF39102C2BD21948174E005D99
:102470008DF801001836EFF31187202080F31188C2
:10248000307DDFF8508000F0030002280CD0304689
:1024900000F00AFF02280FD388F8004002226946A4
:1024A000304601F027F808E088F80040022269462B
:1024B000304600F0F2FF00E04D46F8B280F311889C
:1024C00000E04D462846BDE8F88300001C3101209D
:1024D000B2550008940000202DE9F04107460B4852
:1024E00015460E460078532801D000F0ABFEEFF3FE
:1024F0001184202080F311882A463146384600F0A6
:1025000007F8E1B281F31188BDE8F0811C310120A8
:1025100070B50E46144900EB400001EBC0051446AF
:10252000E86A183520B101280FD0022805D113E040
:10253000284600F0B9FEA04201D2002411E0224654
:102540003146284600F0D6FF0BE0284600F0ACFEEE
:10255000A042F4D20446F2E73146284600F09DFF3F
:102560000446204670BD00001C3101200FB408B5A0
:1025700004A900916A46039900F004F801B05DF8DF
:1025800014FB00002DE9F04198B0064607A8029020
:1025900040200025CDE90305CDE9055690460C46BF
:1025A00014F8011B002973D0252908D002A800F0D7
:1025B00055FF05980028F3DA18B0BDE8F081002037
:1025C00001212278232A1ED02B2A19D02D2A02D0AD
:1025D000302A08D102E040F0010001E040F00200A2
:1025E000641C0029EDD100222178A1F130030A2BCF
:1025F0000CD202EB820201EB4202303A641CF3E798
:1026000040F00400ECE740F00800E9E70023CFB217
:102610002E2F0BD114F8011FA1F130070A2F05D27C
:1026200003EB830301EB4303303BF3E76C290DD04D
:1026300068290BD0702956D00BDC252916D05829D3
:1026400031D063290CD0642913D114E014F8011F90
:10265000ECE7732934D075291BD0782909D122E001
:10266000D8F80000011DC8F80010017802A800F099
:10267000F5FE641C9DE7D8F800100F1DC8F8007027
:102680000968CDE900200A2202A800F019FEF0E74F
:1026900035E0D8F800100F1DC8F800700968CDE9C2
:1026A00000200A2208E0D8F800100F1DC8F80070BA
:1026B0000968CDE90020102202A800F065FED8E7E5
:1026C000D8F80000011DC8F80010076807B914A762
:1026D00017F8011B0029CCD002A800F0BFFE059816
:1026E0000028F5DAC5E7D8F80000011DC8F8001089
:1026F00001680820CDE9000503461022DCE70598B3
:1027000000287FF759AF049820B1024607A9304648
:10271000FFF7E2FEDDE90410084405904CE70000F5
:10272000284E554C4C29000010B502F095FC0128AC
:1027300003D0BDE8104002F081B910BD30B593B0B0
:1027400030216846FDF7E6FE14210CA8FDF7E2FEF5
:102750001E480025016841F080510160006800F0CA
:10276000805011901A48016841F48041016000686E
:10277000022400F480401190012000900004019098
:102780008001CDE90640082008904FF4A870CDE9FB
:10279000090404200B906846FEF76CFC08B172B681
:1027A000FEE70CA90F2081E831004FF4A0500F90F4
:1027B0004FF48050109005210CA8FEF751FB002823
:1027C00001D072B6FEE713B030BD000040380240C1
:1027D000007000400248016841F4700101607047D8
:1027E00088ED00E00148FEF761BF0000A40300206F
:1027F000F0B50268294C2A4D2A4E2B4F2B4B4FF037
:10280000804CA04209D0604507D0A84205D0B04214
:1028100003D0B84201D0984204D122F0700E4A6829
:1028200042EA0E02A0421BD0604519D0A84217D040
:10283000B04215D0B84213D0984211D01C4DA842D6
:102840000ED01C4DA8420BD01B4DA84208D01B4DEA
:10285000A84205D01A4DA84202D01A4DA84203D171
:1028600022F44075CA682A434D6922F080022A4347
:1028700002608A68C2620A688262A04201D09842FD
:1028800001D109690163012141610169C90703D0CF
:10289000016921F001010161F0BD0000000001406B
:1028A0000004004000080040000C0040000401400B
:1028B0000040014000440140004801400018004031
:1028C000001C00400020004010B501F01F03012152
:1028D000046A99408C430462016A9A401143016280
:1028E00010BD10B5846B0121626A824205D1217747
:1028F000C069F8B984F83E101CE0A26A824206D191
:1029000002222277C069A8B984F83F1012E0E26A77
:10291000824206D104222277C06958B984F8401057
:1029200008E0226B824205D108222277C06908B9EB
:1029300084F841102046FFF75BF80020207710BD97
:1029400010B5846B616A814201D101200DE0A16A5A
:10295000814201D1022008E0E16A814201D10420D4
:1029600003E0216B814201D1082020772046FFF748
:1029700040F80020207710BD10B5846B0121626AF9
:10298000824203D1217784F83E1019E0A26A824284
:1029900004D10220207784F83F1011E0E26A8242DD
:1029A00004D10420207784F8401009E0226B824291
:1029B00004D10820207784F8411001E084F83D100C
:1029C0002046FEF771FE0020207710BD10B5846808
:1029D00042EA032224F47F440A432243826010BD6A
:1029E000826822F070020A4342F00701816070475A
:1029F000F0B5036A026A22F0010202624268846949
:102A0000124E24F073050C682C4323F002058B68EA
:102A10002B430D4DA84201D0B04205D123F0080749
:102A2000CB683B4323F00403A84201D0B04205D158
:102A30004D6922F4407215438A692A4342608461D9
:102A4000496841630362F0BD000001400004014099
:102A5000F0B5026A036A23F01003036243688469D5
:102A60000D6824F4E64444EA05248D6822F020022F
:102A700042EA05120F4D104EA84201D0B04206D1D5
:102A8000CF6822F0800242EA071222F04002A842F8
:102A900001D0B04207D14D6923F4406343EA850376
:102AA0008D6943EA850343608461496881630262FA
:102AB000F0BD00000000014000040140F0B5026AD2
:102AC000036A23F4807303624368C46922F40072CA
:102AD00024F073050C68124E2C438D6842EA0522DF
:102AE0000E4DA84201D0B04206D1CF6822F4006258
:102AF00042EA072222F48062A84201D0B04207D104
:102B00004D6923F4405343EA05138D6943EA0513E5
:102B10004360C4614968C1630262F0BD00000140C6
:102B20000004014030B5046A026A22F48052026255
:102B30004268C3690D6823F4E64343EA05238D68C0
:102B400024F4005444EA0534084DA84202D0084D4C
:102B5000A84204D14D6922F4804242EA85124260C3
:102B6000C36149680164046230BD00000000014097
:102B70000004014010B5036A046A24F001040462F1
:102B8000846924F0F00444EA021423F00A020A43A0
:102B90008461026210BD10B5036A046A24F0100457
:102BA0000462846923F0A00324F4704444EA0232EE
:102BB00043EA01118261016210BD10B5806B0021F2
:102BC000C185C184FFF7DCF810BD70B5846B206847
:102BD000406994F84110C0F3C0100025212904D1A8
:102BE00018B1E584204600F08EF82068406994F81A
:102BF0004210C0F38010222904D118B1E585204687
:102C000000F05AF8606C40F0100060642046FFF756
:102C1000B7F870BD10B50146806B096809684FF0C0
:102C20000002C9052ED4C28501680C3151E8003F6D
:102C300023F4807341E80034002CF5D1016814318D
:102C400051E8003F23F0010341E80034002CF5D1A6
:102C50000168143151E8003F23F0400341E800349B
:102C6000002CF5D1202180F84210016B012909D1F7
:102C700001680C3151E8003F23F0100341E80034B3
:102C8000002CF5D14263016B012902D0FFF796FABF
:102C900010BD818DFFF724F810BD10B5806B0121A8
:102CA0004163016B012902D0FFF789FA10BD818DC4
:102CB0004908FFF715F810BD01680C3151E8002FE5
:102CC00022F4907241E80023002BF5D10168143101
:102CD00051E8002F22F0010241E80023002BF5D13A
:102CE000016B012909D101680C3151E8002F22F054
:102CF000100241E80023002BF5D1202180F842107A
:102D000000210163704701680C3151E8002F22F067
:102D1000C00241E80023002BF5D1202180F84110AA
:102D2000704708B590F84210222901D0022008BD52
:102D300082684FF480539A4201D1016921B1816ABE
:102D40009A421BD04AB10AE00268816A5268C2F313
:102D500008020A80816A891C08E0026972B102686F
:102D6000526802F07F020A70816A491C8162C18D3B
:102D7000491E0904090CC18503D01BE00268526892
:102D8000F1E70168CA6822F02002CA600168CA68D7
:102D900022F48072CA6001684A6922F001024A6125
:102DA000202180F8421000214163026B012A03D0E8
:102DB000FFF704FA002008BD016301680C3151E8F7
:102DC000002F22F0100241E80023002BF5D101680A
:102DD0000A68D20602D50A6849680091818DFEF71B
:102DE0007FFFE7E770B5044600680169E26821F4F7
:102DF0004051114301612169A068E269084361699A
:102E0000114308432168CA6849F20C639A4302439C
:102E1000CA6020684169A26921F44071114341618F
:102E200031492068884202D03049884202D1FEF7F9
:102E3000E1F801E0FEF7CEF8E269002319216425EC
:102E40003226B2F5004F626828D0A0FB0101930F33
:102E50009200FDF779FA0146B0FBF5F06FF0180229
:102E6000504301EB800006EB0010B0FBF5F000F0E2
:102E7000F002B1FBF5F002EB0012B1FBF5F06FF0E0
:102E80001803584301EB800006EB0010B0FBF5F08F
:102E900000F00F0021681044886070BDA0FB0101A4
:102EA00092185B41FDF750FA0146B0FBF5F00201C4
:102EB000B1FBF5F06FF01803584301EB800006EB0F
:102EC000C000B0FBF5F000F0F80002EB4002B1FBEF
:102ED000F5F0584301EB800006EBC000B0FBF5F0C5
:102EE00000F00700D6E70000001001400014014088
:102EF00038B5816204468285002013466064222230
:102F000084F84220E56B1B4AEA63E56B1A4A2A649F
:102F1000E56B1A4AEA64E26B10650A462168E06BC9
:102F2000091DFDF789FD206801684068009020694F
:102F300048B120680C3050E8001F41F4807140E82F
:102F40000012002AF5D12068143050E8001F41F02B
:102F5000010140E80012002AF5D12068143050E841
:102F6000001F41F0400140E80012002AF5D1002086
:102F700038BD0000152C00089B2C0008CB2B000846
:102F80000148FEF73DBF00009C020020FEE7000064
:102F90002DE9F8431D4616460F468046DDF8209081
:102FA00001F030FA102001F0D5F8040011D027709C
:102FB00066706580A5800E49C4E902980B4A0878BE
:102FC00042F82040401C087001F03CFA2046BDE861
:102FD000F88308A0009009A309A20B490020FFF77D
:102FE000C5FA01F02FFA0020F1E70000903E012021
:102FF000960100201B5B306D00000000453A000088
:103000001B5B313B33316D0070560008F8B50D463F
:103010000646052808D325A0009026A326A228A1AD
:103020000020FFF7A3FAF6E7324850F8260040B137
:103030001EA000901FA320A22FA10020FFF796FA48
:10304000F6E701F0DFF9182001F084F8040020D041
:1030500026700020A560A0806070A070C5F30742B4
:1030600002EB8202C5F30720A28100EB8000E9B2E7
:10307000E08101EB810020822C480090042332463D
:1030800001212046FFF784FF606101F0DBF9204653
:10309000F8BD06A0009007A307A225490020FFF76E
:1030A00065FA01F0CFF90020F8BD00001B5B306D20
:1030B00000000000453A00001B5B313B33316D00DE
:1030C0002020257325735B6C65645F637265617492
:1030D000655D546865204C4544204E756D6265728F
:1030E00020497320496C6C6567616C210D0A25735A
:1030F00000000000E03701202020257325735B6C61
:1031000065645F6372656174655D4C454420496E1A
:103110007374616E636520416C72656164792043EC
:10312000726561746564210D0A2573001939000800
:103130002C5600082DE9F84399461746884605465F
:10314000032808D91DA000901EA31FA220A10020C3
:10315000FFF70CFAF6E72B4E56F8250040B117A002
:10316000009018A318A228A10020FFF7FFF9F6E7A6
:1031700001F048F94FF4867000F0ECFF040010D025
:10318000C4F804712570A4F80281C4F8089146F8C7
:103190002540204601F0D8F801F054F92046BDE85A
:1031A000F88306A0009007A307A225490020FFF797
:1031B000DDF901F047F90020F1E700001B5B306DFD
:1031C00000000000453A00001B5B313B33316D00CD
:1031D0002020257325735B756172745F637265616E
:1031E00074655D5468652055415254204E756D627A
:1031F000657220497320496C6C6567616C210D0A0A
:1032000025730000D43501202020257325735B75BC
:103210006172745F6372656174655D5541525420DB
:10322000496E7374616E636520416C726561647987
:103230002043726561746564210D0A2573000000E6
:10324000E455000810B5134CA8212046FDF762F99B
:1032500003202061606110A0A06104F1A800E0617A
:103260004FF4806020620020A0626062E0620AA1E8
:10327000216604F5956161661021A1662067E0660C
:1032800060670849C0F10F028A5C2254401C102874
:10329000F8D310BD1C3101205465726D696E616CEC
:1032A00000000000C25500080269C1688A4203D8C4
:1032B0008068401A104400E0501A401E7047000019
:1032C0002DE9FC5F0E008146DDE90C47C6F10000E8
:1032D00098469346824600D40846012503E000BF85
:1032E00090FBFBF06D1C5845FADAA84500D945461D
:1032F00024B1002E01DB780700D5641EB80702D583
:10330000B8F1000F0FD0F8070DD164B1A5420AD271
:1033100020214846641E00F0A1F8D9F80C000028CE
:10332000F3DABDE8FC9FD9F80C000028F9DB002E89
:1033300002DA56462D2102E0780707D52B214846B0
:1033400000F08CF8D9F80C000028EADB07F0030045
:1033500002280FD1B8F1000F0CD15CB1A54209D2FF
:1033600030214846641E00F079F8D9F80C00002896
:10337000F3DAD6E7CDE9004743465A463146484698
:1033800000F002F8CDE700002DE9F84F8246DDE9B4
:103390000A4B0126984691460D460846374602E0FC
:1033A000B0FBF9F07F1C4845FAD2B84500D9474632
:1033B0005FEACB7017D1B4B15FEA8B7002D5B8F178
:1033C000000F02D0202000900BE03020FBE7504699
:1033D000641E009900F042F8DAF80C00002838DB8F
:1033E0000CB1A742F3D3DAF80C00002831DB00BFA0
:1033F000B8F1010F02D9A8F1010803E0B5FBF6F01E
:10340000484502D306FB09F6F2E7DFF84C8000BF1F
:10341000B5FBF6F000FB165518F80010504600F00A
:103420001DF8DAF80C00002803DBB6FBF9F6002ED5
:10343000EED15FEACB700CD0002C0AD0A74208D2A4
:1034400020215046641E00F009F8DAF80C0000282C
:10345000F2DABDE8F88F0000D355000810B5044635
:10346000D4E90130421C934205D323681954A26069
:10347000E068401CE060D4E90102824209D1216881
:103480002069FFF729F8A168884203D04FF0FF3088
:10349000E06010BD0020A06010BD2DE9F047C468B9
:1034A0001746894606464FF000083069A04201D908
:1034B000051B02E0B168201A0D1AB0686D1E001BD2
:1034C000A84200D80546BD4200D33D4670682A4652
:1034D00020444946FCF7AFFFB0687F1B2C44A8444A
:1034E000A944A04200D10024F460002FDDD1404661
:1034F000BDE8F0872DE9F04104468846D4E902078B
:10350000C51BE168606816460844B54206D94146C5
:10351000FCF791FFB819E060BDE8F0812A4641460A
:10352000FCF789FF761B08EB050132466068FCF763
:1035300082FFE660F0E70907090E002804DB00F1CE
:10354000E02080F80014704700F00F0000F1E02048
:1035500080F8141D7047000000224FF400610148FC
:10356000FDF7ACBB000C02400122D1020148FDF77F
:10357000A5BB0000000C024000224FF4006101488E
:10358000FDF79CBB000C02407CB5144C0E46054672
:103590000146A06800F02EFA90B13146284600F0AE
:1035A00091F8002819D0A068E9880181428802B00A
:1035B00005F10801BDE870400A30921EFCF73BBFE0
:1035C000208807A1401C80B22080CDE9000106A31D
:1035D00006A208A10020FEF7C9FF7CBD98010020CB
:1035E0001B5B306D00000000573A00001B5B313B55
:1035F00033336D002020257325735265636569762A
:1036000065204572726F72204672616D652C206173
:103610006363756D756C617465205B25645D2074F2
:10362000696D65732E0D0A0D0A2573000EB58C2089
:1036300000F090FD144C154B154AA0604FF48071BA
:103640000120FFF777FD606012490020FFF7DEFCE4
:103650000025E060029501F00DFD4FF47A760290AE
:1036600028460DA1CDE900016D1C0DA30DA20FA1EF
:103670000020FEF77BFF0521E06800F08DF9314660
:1036800002A801F09FFCEBE79801002089350008B3
:103690009C0200202222B2001B5B306D0000000063
:1036A000493A00001B5B313B33326D00202025730B
:1036B000257348656172742025640A0D0D0A25730F
:1036C0000000000070B50C46050013D0022C11D983
:1036D000A01E81B2284600F023F82919C2B211F8C1
:1036E000023C9A4206D111F8011CB1EB102F01D116
:1036F000012070BD002070BD70B50C4605000DD0D6
:10370000022C0BD9601E81B2284600F029F8291935
:1037100011F8011C814201D1012070BD002070BD53
:1037200030B504460C480D46007808B900F0D0F8D2
:103730004FF6FF7274B10020084909E014F8013B0C
:103740005340DBB2401C31F8133080B283EA1222BE
:10375000A842F3D3104630BD95010020E03501208A
:1037600030B5002350B10022054C05E010F8015B94
:103770005D40521C635D92B28A42F7D3184630BD59
:1037800095000020F8B50BA000900CA30CA20EA190
:103790000020FEF7EBFE0024144D154E06E000BF9E
:1037A00055F8240081688847641CE4B2307884426C
:1037B000F6D3F8BD1B5B306D00000000493A0000F5
:1037C0001B5B313B33326D0020202573257344652C
:1037D000616D6F6E207461736B2069732072756EFA
:1037E0006E696E672E0D0A0D0A257300903E01204A
:1037F000960100201CB511A0009012A312A214A1E2
:103800000020FEF7B3FE19490420CDE90001002392
:103810004FF4827216A1194801F0A6FB012807A0F7
:1038200008A309A2009007D015A10020FEF79EFE74
:10383000BDE81C4000F078BF1AA1F6E71B5B306DB5
:1038400000000000493A00001B5B313B33326D0041
:103850002020257325737374617274206672656508
:1038600072746F730D0A0D0A2573000000000020AA
:1038700073746172745F7461736B00008D42000831
:103880002020257325737374617274207461736BC7
:1038900020637265617465206661696C2E0D0A0D86
:1038A0000A257300202025732573737461727420B8
:1038B0007461736B206372656174652073756363F3
:1038C00065737366756C2E0D0A0D0A257300000072
:1038D00070B50F4D00204AF20104002103460A464C
:1038E00081EA0306F60702D084EA510100E04908A4
:1038F000521C5B0892B2082AF2D325F81010401C23
:1039000080B2FF28E9D903490120087070BD00008A
:10391000E035012095010020C16842888280487806
:1039200001280BD18888002238B18B780C4833B13C
:103930000368DA6303689A6308E04A7070470368B3
:103940008A89DA630368CA899A630A8A006802640A
:10395000887880F0010088708888401E88807047D1
:10396000F40100200B4810B502680021D163026801
:1039700091630068016408210648FEF73BF80421C2
:103980000448FEF737F8BDE810400C210148FEF767
:1039900031B80000F401002081800021C1800121A4
:1039A00041707047FDF79EF9FEF7C8FEFEF738FC40
:1039B000FEF708FCFEF728FDFEF7C8FCFEF778FCD2
:1039C000FFF7CAFD00F03CFCFFF7CCFF00F030FF32
:1039D000074800F063FF00F055FFFFF7C5FD4FF407
:1039E0007A70FDF761F8FFF7C7FDFFF703FFFEE709
:1039F0000FB9FF0070B5054608780C46A5280ED112
:103A0000287004212046FFF777FE40B1B4F801008A
:103A10006880E0782871A088E880012070BD0020CF
:103A200070BD00002DE9F0411E4C0F460546E668CA
:103A30002068001D00F09AFC38B9206890F82C101E
:103A400001208840216981432161681C15D1A7B1FB
:103A5000154922684868906023688268DA602268A5
:103A60008368121D5A602268121D826020684161BD
:103A70000868401C0860BDE8F08120683544B54204
:103A80004560216805D2E06BBDE8F041091D00F0FA
:103A900095BCA06B091D00F091FCA06A8542EAD29A
:103AA000A562E8E718000020E00400202DE9F041BD
:103AB000054600F0A7FC364CA068401CA0602068BA
:103AC000344F10B1606940B32DE02560A068012833
:103AD00029D1002606EB860007EB800000F060FC91
:103AE000761C052EF6D32B48643000F059FC29488B
:103AF000783000F055FC27488C3000F051FC254808
:103B0000A03000F04DFC2348B43000F049FC2148BF
:103B10006430A0631430E06305E02068E96AC06A9D
:103B2000884200D82560606A401C6062A864E96A27
:103B30000120226988401043206101EB810007EBDE
:103B400080004068A8608168E9608268291D516032
:103B50008160E86A00EB800007EB8001696157F83B
:103B60002010491C47F8201000F06CFC6069002808
:103B70000CD02068E96AC06A884207D206494FF033
:103B800080500860BFF34F8FBFF36F8FBDE8F081A7
:103B9000180000202C04002004ED00E010B500F017
:103BA00031FC0E4C2068A0B90D4800F0F9FB0C4820
:103BB000143000F0F5FB0A48E06014302061002268
:103BC0000C210A2000F050FF206010B105A100F088
:103BD000BBFCBDE8104000F035BC000058000020E0
:103BE000F4040020546D72510000000030B4026CE7
:103BF0000B46002A0BD0C1681144C1608468A14201
:103C000001D30168C16030BC1846FCF714BC30BC5D
:103C100070472DE9F041856B174604460026026C7B
:103C200082B1C7B1E068FCF706FCE168206C091AB4
:103C3000E1602268914202D2A168081AE060022F76
:103C400016D017E02068A8B9A06801F0B5FA0646BA
:103C50000020A0600EE06068FCF7EDFB216C60685E
:103C600008446060A168884204D32068606001E075
:103C700005B16D1E6D1CA5633046BDE8F08110B521
:103C80000446006B00F0F2FB2046BDE8104000F057
:103C9000EDBB00000E484FF49631420706D0C01D20
:103CA0000B4920F00700411AC1F59631094A00235B
:103CB0000144C2E900030839143A21F007011160F8
:103CC0004B600B600B1AC0E90013936053607047A0
:103CD0001C05002080000020144E154CA6F1A00702
:103CE0004FF08058DFF84C9012E000BF00F08AFBE4
:103CF000F068C568281D00F039FBA068401EA06070
:103D00006068401E606000F09DFB2846FFF7B7FF2B
:103D100060680028EAD138680128F9D9C9F800801C
:103D2000BFF34F8FBFF36F8FF2E70000CC0400208A
:103D30001800002004ED00E02DE9F0470D46DDE914
:103D400009841746824691009946089EA522206B59
:103D5000FCF7B6FB6FF00301206B01EB8701084411
:103D600020F00707780707D0502080F31188BFF3B1
:103D70004F8FBFF36F8FFEE765B100202218295CDB
:103D800082F83410295C11B1401C1428F6D30020AD
:103D900084F84700052E07D3502080F31188BFF325
:103DA0004F8FBFF36F8FFEE7E662201D266500F0A0
:103DB00002FB04F1180000F0FEFA2461C6F10500D0
:103DC0006462A0614A465146384600F023FA2060FA
:103DD000B8F1000F01D0C8F80040BDE8F08700003E
:103DE00030B5114900E011460A688242FBD34B68A6
:103DF0005C18844203D14068184448600846436810
:103E00001C18944209D1084C143C2468A24209D0E1
:103E100052681A4442600A6812680260814200D007
:103E2000086030BD0460F9E78000002070B5002410
:103E300041600B4D0061914206D8D11A82699142CE
:103E400006D2011D286907E09A4203D2994201D3A4
:103E5000012403E0011DE86800F0B0FA204670BDBF
:103E60005800002010B5044600F0CCFAA06B28B131
:103E70005FF0000400F0E6FA204610BD0124F9E7E7
:103E800070B506460D480D46C068C068C468201D60
:103E900000F06CFA94F82800410705D52A4631460F
:103EA000204600F0B5F803E000F0FE0084F828009A
:103EB0002046216ABDE870400847000058000020F5
:103EC0007FB5374E63E00098002860DB029C606994
:103ED00010B1201D00F04AFA03A800F0BBF8054617
:103EE00000980A2853D2DFE800F0520505282E4634
:103EF0000505282E94F828002A4640F0010084F891
:103F000028000199A069019B01442046FFF78EFF1C
:103F100040B394F82800410707D50198A1692A46C3
:103F20000144204600F074F803E000F0FE0084F83D
:103F30002800216A2046884729E014F8280F00F05D
:103F4000FE00207023E094F8280040F0010084F87F
:103F500028000198A06130B141192B461A4620462D
:103F6000FFF764FF13E0502080F31188BFF34F8FF9
:103F7000BFF36F8FFEE794F82800810703D4204633
:103F800000F074FA03E000F0FE0084F8280000223C
:103F90006946306800F00EFF002894D17FBD000014
:103FA00058000020F8B50D46064600F0F5FB6846BF
:103FB00000F050F80446009810B101F0C7F9F8BDC0
:103FC0001148ADB101690968D9B10025311B2A46F4
:103FD000006800F0E1FA01F0B9F90028EFD10B49CF
:103FE0004FF080500860BFF34F8FBFF36F8FF8BD65
:103FF000A642EBD801F0AAF921463046FFF740FF70
:10400000F8BD0125E2E700005800002004ED00E0C3
:1040100070B516460C46054604E0A869296A0444B2
:1040200028468847A8692346011932462846FFF7E3
:10403000FDFE0028F1D170BD0548816B096821B1F2
:10404000816BC9680968816270474FF0FF31FAE7F8
:10405000180000202DE9F041064601F00BF80E4C47
:104060000546A068854214D24FF0FF3704E0C068CF
:1040700039460068FFF704FFE06801680029F6D1BF
:104080002169C4E90310012030602846A560BDE81D
:10409000F0810020F8E70000580000200848406840
:1040A000401C4FF0500080F3118804D0BFF34F8FB5
:1040B000BFF36F8FFEE7BFF34F8FBFF36F8FFEE746
:1040C00088000020074CE068016841B1C068002109
:1040D000D0F80000FFF766FFFFF7F2FEF3E70121DB
:1040E0000020F7E7580000202DE9F041044600F0D9
:1040F00089F994F9455004F1240609E0606A48B151
:10410000304601F0B5F808B100F0C8FA6D1E6DB286
:10411000002DF3DC4FF0FF3684F8456000F092F993
:1041200000F070F994F9445004F1100709E0206997
:1041300048B1384601F09CF808B100F0AFFA6D1EA6
:104140006DB2002DF3DC84F84460BDE8F04100F06E
:1041500079B9000070B50446002600F01DFB2C4D17
:10416000286808B9FFF796FD7CB304F00700C0F19A
:104170001000C1438C423DD8211800293ADD6868FF
:10418000814237D8224814300246146801E02046A4
:10419000144662688A4202D22268002AF7D12A684D
:1041A000944227D006682268026060680836421A86
:1041B000102A0FD96018430708D0502080F31188C7
:1041C000BFF34F8FBFF36F8FFEE713E04260616074
:1041D000FFF706FE61686868401A6860AA68904246
:1041E00000D2A86041F00040606000202060E868D4
:1041F000401CE86001F0AAF8700707D0502080F357
:104200001188BFF34F8FBFF36F8FFEE7304670BD4D
:104210006C00002010B5031F4FF080741C601B1F42
:1042200021F001011960191F044B0B6014390A6059
:10423000091F6FF0020244380A6010BD9D4000085B
:1042400010B5FEF7FFF80020FEF7FEF8BDE81040BD
:1042500001A000F00FB8000052545420496E697458
:10426000205375636365737366756C6C79210D0AF1
:10427000000000000FB408B503A800906A460020B3
:104280000299FEF77FF901B05DF814FB1CB518A088
:10429000009019A319A21BA10020FEF767F900F0F6
:1042A000B1F820490320CDE9000100234FF48272C8
:1042B0001DA1204800F058FE1F48012300901A4617
:1042C00032211EA001F0D8F81E4C606000F0D2FE32
:1042D00002460020034600900121606801F024F9A5
:1042E000002000F07BF9BDE81C4000F0ABB80000F6
:1042F0001B5B306D00000000493A00001B5B313B46
:1043000033326D00202025732573456E746572204D
:104310007374617274207461736B0D0A0D0A2573D6
:1043200000000000A8010020636F6D5F7461736B73
:10433000000000002D360008853700084461656DD7
:104340006F6E00000000002010B50446B0F8022196
:10435000D0F80401611CFDF79CFCD4F80401C06B8B
:104360000068016821F00801016010BDD0E9013248
:1043700001699A60D0E901235A604A68824201D1FA
:1043800082684A60002202610868401E086008686E
:104390007047000001488068704700001800002046
:1043A00000F108014FF0FF32C0E90112C160016164
:1043B00000210160704700210161704730B50B6832
:1043C0005A1C02D000F1080202E0026904E0224611
:1043D000546825689D42FAD953684B6099608A6099
:1043E000516008610168491C016030BD42684A6043
:1043F00093688B6093685960916008610168491CFB
:1044000001607047502080F31188BFF34F8FBFF3D6
:104410006F8F0A494868401C486001280CD1084841
:10442000006810F0FF0F07D0502080F31188BFF311
:104430004F8FBFF36F8FFEE77047000088000020AA
:1044400004ED00E00849486828B1401E486001D1E9
:1044500080F311887047502080F31188BFF34F8F8D
:10446000BFF36F8FFEE700008800002070B50028C2
:104470002AD0A0F108046068002807DB502080F3F0
:104480001188BFF34F8FBFF36F8FFEE7216839B1FB
:10449000502080F31188BFF34F8FBFF36F8FFEE77B
:1044A00020F00040606000F077F9084D60686968AE
:1044B000084468602046FFF793FC2869401C286187
:1044C000BDE8704000F042BF70BD00006C000020ED
:1044D0004FF0E02000210161816105494FF47A72BB
:1044E0000968B1FBF2F1491E416107210161704782
:1044F0001400002010B5FBF703FF114910280ED35C
:1045000000F1E02090F8F0030A78904207D25020A2
:1045100080F31188BFF34F8FBFF36F8FFEE7094819
:104520000068896800F4E060884207D9502080F371
:104530001188BFF34F8FBFF36F8FFEE710BD0000F0
:10454000880000200CED00E070B5002260B1002969
:104550001ED0104C002300BF04EBC3056E688642DA
:104560000AD104EBC3020FE0502080F31188BFF39F
:104570004F8FBFF36F8FFEE71AB954F8336006B957
:104580002A465B1C082BE7D3002A01D0C2E90010A1
:1045900070BD0000EC03002070B515460E460446C1
:1045A000FFF730FF94F944100020491C01D184F832
:1045B000440094F94510491C01D184F84500FFF7E7
:1045C00041FFA06B28B92A46314604F1240000F0CF
:1045D00083F82046BDE87040FFF786BD70B50546FC
:1045E000FFF710FF264C05B92568281DFFF7BEFE12
:1045F00058B9E86A234A00EB800152F8211021B92A
:1046000001218140206988432061A86A18B105F121
:104610001800FFF7ABFE606A401C606220688542AC
:1046200008D11848291DA030FFF7E0FE6068401C43
:10463000606004E0A068401EA060FFF7FDFCFFF78B
:1046400001FF2068854202D02846FFF718FB606909
:10465000002814D02068854211D1606B38B15020F9
:1046600080F31188BFF34F8FBFF36F8FFEE70649CA
:104670004FF080500860BFF34F8FBFF36F8F70BD56
:10468000180000202C04002004ED00E002490A6A12
:104690000260C9684160704718000020014901208C
:1046A000C86170471800002010B50C4650B1094988
:1046B00009681831FFF782FE2046BDE8104001214D
:1046C000FFF7B0B9502080F31188BFF34F8FBFF3CD
:1046D0006F8FFEE718000020F0B40C46D0B11149EE
:1046E00043680D68EB619D680E6835620D689E68D1
:1046F000183575600D6818359D6009688862016815
:10470000491C01600AB14FF0FF342046F0BC11464D
:10471000FFF788B9502080F31188BFF34F8FBFF3A4
:104720006F8FFEE7180000207CB517480025CDE903
:1047300000502B46822215A1164800F015FC124CA1
:104740002C3C012803D100F0C9FE012802D0401CF6
:1047500011D00EE0502080F31188BFF34F8FBFF3CC
:104760006F8F4FF0FF30A06201206061E56000F0C4
:10477000EBF8206B7CBD502080F31188BFF34F8F86
:10478000BFF36F8FFEE700004400002049444C4512
:1047900000000000D93C00080248416B491C4163FD
:1047A00070470000180000201448416B11B101212E
:1047B000C16170470021C1610169B1FA81F1C1F1A4
:1047C0001F0101EB81020E4951F822306BB101EB60
:1047D000820101F108034A6852684A609A4201D195
:1047E00052684A60D16801607047502080F3118898
:1047F000BFF34F8FBFF36F8FFEE70000180000205C
:104800002C0400200021094A46234FF4AE60535483
:10481000491C89B28142FAD3002340F29C611354AF
:10482000401C80B28842FAD370470000F437012060
:1048300008B507A0009008A308A20AA10020FDF770
:1048400095FEFFF7DFFFBDE8084000F01BB8000051
:104850001B5B306D00000000493A00001B5B313BE0
:1048600033326D002020257325732D2D2D2D2D2DF8
:104870002D55736520575332383132422E0D0A0DB3
:104880000A25730040F29C63024A0C210248FDF79E
:1048900015B90000F4370120AC01002070B586B0D6
:1048A000044618216846FBF735FEC4F30743C4F3FA
:1048B0000725E2B2002069462C0601D58C2400E0D1
:1048C00046240C546C06401C250EC0B20828F3D3B5
:1048D00000201C0601D58C2400E046240D185B0640
:1048E000401C1B0EC0B22C720828F2D30020130605
:1048F00001D58C2300E046230C185206401C120EF2
:10490000C0B223740828F2D30E4B0022002002EB21
:1049100042040D5C00EBC406401CC0B29D55182833
:10492000F7D3521C92B23A2AF0D34FF4AE60002172
:1049300040F29C621954401C80B29042FAD306B0F7
:1049400070BD0000F43701201CB537480168374AB4
:10495000914207D1502080F31188BFF34F8FBFF3EE
:104960006F8FFEE700683149491E884207D1502009
:1049700080F31188BFF34F8FBFF36F8FFEE72C4991
:1049800008780190FF20087008788DF800009DF8E5
:1049900000009DF8002000F0F000904207D0502069
:1049A00080F31188BFF34F8FBFF36F8FFEE79DF841
:1049B0000000204C00F0500020700720A06005E0AF
:1049C0009DF8002052008DF80020401E9DF8002028
:1049D0001206F5D4A060032807D0502080F3118878
:1049E000BFF34F8FBFF36F8FFEE74FF44070A060AF
:1049F000019808700C482030016841F47001016092
:104A0000016841F070410160FFF762FD00206060C5
:104A1000FBF73EFC0848016841F040410160FBF7AC
:104A200023FC00201CBD000000ED00E071C20F411E
:104A300000E400E08800002034EF00E010B55020D2
:104A400080F31188BFF34F8FBFF36F8F00F018FB17
:104A500018B104494FF080500860002080F311889D
:104A600010BD000004ED00E02DE9F04117460E46B0
:104A7000050020D04FF0FF30B0FBF5F0B0421AD364
:104A800005FB06F010F1510F15D85030FFF762FB0F
:104A900004000CD004F150005EB12060C4E90F5650
:104AA0002046012100F010F8204684F84C70BDE843
:104AB000F0812460F2E7502080F31188BFF34F8F1C
:104AC000BFF36F8FFEE700002DE9F0410F460400B1
:104AD0004FF001062DD0E06B98B3B51EB5FBF0F199
:104AE000206C81423ED3FFF78DFCD4E90F20216872
:104AF00002FB0011A1600021A163216861600A46E8
:104B0000D4E90F01401E00FB01212046E16000F8BE
:104B1000445F457004F11000A7B1FFF741FC04F1B8
:104B20002400FFF73DFC00BFFFF78CFC3046BDE8DA
:104B3000F081502080F31188BFF34F8FBFF36F8F48
:104B4000FEE70FE021690029EED000F091FB00287C
:104B5000EAD008494FF080500860BFF34F8FBFF391
:104B60006F8FE1E7502080F31188BFF34F8FBFF3C1
:104B70006F8FFEE704ED00E02DE9FF4782B01D4690
:104B80008A464FF00008040003D0BAF1000F08D0A5
:104B900011E0502080F31188BFF34F8FBFF36F8F68
:104BA000FEE7206C38B1502080F31188BFF34F8F9F
:104BB000BFF36F8FFEE7022D0AD1E06B012807D00B
:104BC000502080F31188BFF34F8FBFF36F8FFEE744
:104BD00000F042FA3F4F4FF000094FF0805648B9BD
:104BE000049838B1502080F31188BFF34F8FBFF382
:104BF0006F8FFEE7FFF706FCA06BE16B884207D3DF
:104C0000022D05D00498D0B1B8F1000F1AD01EE0E3
:104C10002A4651462046FEF7FCFF616A19B104F1AD
:104C2000240000F025FB20B13E60BFF34F8FBFF39F
:104C30006F8FFFF707FC012006B0BDE8F087FFF794
:104C400001FC22E06846FFF721FD4FF00108FFF765
:104C5000F9FBFFF7A1FDFFF7D5FB94F94400401CD9
:104C600001D184F8449094F94500401C01D184F8A6
:104C70004590FFF7E7FB04A9684600F037F930B12B
:104C80002046FFF731FA00F061FB0020D4E7FFF780
:104C9000B9FBA06BE16B884213D1FFF7D3FB04F1A2
:104CA00010000499FFF700FD2046FFF71DFA00F001
:104CB0004DFB00289ED13E60BFF34F8FBFF36F8F37
:104CC00098E7FFF7BFFB2046FFF70EFA00F03EFB28
:104CD00090E7000004ED00E02DE9F0471F46904604
:104CE0008946040003D0B9F1000F08D011E050202C
:104CF00080F31188BFF34F8FBFF36F8FFEE7206CF7
:104D000038B1502080F31188BFF34F8FBFF36F8FFE
:104D1000FEE7022F0AD1E06B012807D0502080F374
:104D20001188BFF34F8FBFF36F8FFEE7FFF7E2FBF2
:104D30005020EFF3118680F31188BFF34F8FBFF33C
:104D40006F8FA06BE16B884206D3022F04D0002046
:104D500086F31188BDE8F08794F94550A06B3A4678
:104D600049462046FEF755FF681C0AD0FFF712FBA4
:104D7000854204D27F2D14D06D1C84F8455001204B
:104D8000E6E7606A0028FAD004F1240000F070FA27
:104D90000028F4D0B8F1000FF1D00121C8F80010BC
:104DA000EDE7502080F31188BFF34F8FBFF36F8F73
:104DB000FEE700002DE9F747002683B08A4604008D
:104DC00003D0BAF1000F08D011E0502080F3118811
:104DD000BFF34F8FBFF36F8FFEE7206C38B15020C9
:104DE00080F31188BFF34F8FBFF36F8FFEE700F0A2
:104DF00033F9DFF8F4804FF000094FF0805748B9DD
:104E0000059838B1502080F31188BFF34F8FBFF35E
:104E10006F8FFEE7FFF7F6FAA56BC5B15146204646
:104E2000FEF7E4FE6D1EA563206950B104F1100089
:104E300000F01EFA28B1C8F80070BFF34F8FBFF31F
:104E40006F8FFFF7FFFA012006B0BDE8F0870598E5
:104E500008B11EB106E0FFF7F5FA27E06846FFF754
:104E600015FC0126FFF7EEFAFFF796FCFFF7CAFAEA
:104E700094F94400401C01D184F8449094F9450011
:104E8000401C01D184F84590FFF7DCFA05A968467B
:104E900000F02CF8002820460AD0FFF725F900F092
:104EA00055FA2046FEF7DEFF0028B3D00020CBE7FE
:104EB000FEF7D8FF90B104F124000599FFF7F4FB49
:104EC0002046FFF711F900F041FA0028A2D1C8F8F6
:104ED0000070BFF34F8FBFF36F8F9BE72046FFF744
:104EE00003F900F033FA95E704ED00E02DE9F04115
:104EF0000C46050014D0DCB1FFF784FA194EF268B5
:104F00006B682068D11A471C1AD02F68D6F820C0C9
:104F10000026674516D0934214D8012526601BE071
:104F2000502080F31188BFF34F8FBFF36F8FFEE7E0
:104F3000502080F31188BFF34F8FBFF36F8FFEE7D0
:104F4000002509E0884205D9401A20602846FFF76D
:104F50009DFBF5E701252660FFF774FA2846BDE8BA
:104F6000F0810000180000202DE9FF5F8346DDE995
:104F70000E87994616468A469000FFF7EBF8050023
:104F80001DD06020FFF7E6F8040015D06021FBF784
:104F9000C1FA25630021CDE90241CDE900874B46E6
:104FA000324651465846FEF7C7FE2046FEF77EFDC4
:104FB000012004B0BDE8F09F2846FFF757FA4FF0F4
:104FC000FF30F6E770B50E4605004FF000040BD039
:104FD00096B11F4A506BB8B1502080F31188BFF3CF
:104FE0004F8FBFF36F8FFEE7502080F31188BFF320
:104FF0004F8FBFF36F8FFEE7502080F31188BFF310
:105000004F8FBFF36F8FFEE7FFF7C6FBD2682B68A9
:105010009919934204D98B420BD9914202D808E0E6
:105020008B42FAD9881A296001240021FEF7FAFC84
:1050300000E0296000F08AF938B906494FF0805045
:105040000860BFF34F8FBFF36F8F204670BD000025
:105050001800002004ED00E00548416919B1406BDB
:1050600018B10020704701207047022070470000EF
:10507000180000200148C068704700001800002098
:105080002DE9F0414A4C0026606B28B1A069401C14
:10509000A0613046BDE8F081E5686D1CE56013D184
:1050A000A06B006838B1502080F31188BFF34F8F98
:1050B000BFF36F8FFEE7A06BE16BA163E063206A33
:1050C000401C2062FEF7B8FFA16A3A488D420FD318
:1050D0004FF0000EA16B096839B1A16BC968C968AE
:1050E0004A68954212D2A26202E04FF0FF31A162FB
:1050F0002168C96A01EB810150F82100012800D91B
:105100000126E0690028C4D00126C2E7D1E9027275
:105110004B69BA60D1E902277A605F680A1D97423D
:1051200001D1CF685F60C1F814E01F687F1E1F6067
:10513000D1F828C0BCF1000F15D0D1E907379F6026
:10514000D1E907377B60DCF8047001F118039F4256
:1051500002D10B6ACCF80430C1F828E0DCF800304A
:105160005B1ECCF80030CB6A0127D4F810C09F40FA
:1051700047EA0C07276103EB830300EB83035B68BB
:105180008B609F68CF609F687A609A60CA6A02EB02
:10519000820200EB82034B6150F822305B1C40F826
:1051A0002230C96A2268D26A914293D9012691E7D6
:1051B000180000202C04002070B504004FF00001FE
:1051C0004FD0294D2868844207D0502080F31188A1
:1051D000BFF34F8FBFF36F8FFEE7606D38B1401E96
:1051E0006065236DE26A9A423BD040B139E05020BD
:1051F00080F31188BFF34F8FBFF36F8FFEE7201D41
:10520000FFF7B4F8012130B994F82C002A6901FAAB
:1052100000F082432A61206DE062C0F10500A061C8
:10522000E06A2A69814011432961104900EB80003E
:1052300001EB80004068A0608268E2608368221D04
:105240005A608260E06A00EB800001EB80006061E0
:10525000E06A00EB800051F82020521C41F8202029
:105260000121084670BD0000180000202C04002019
:1052700070B5C068C06850B3D0E90732816A9A60DF
:10528000D0E907235A604A6800F118039A4201D115
:10529000026A4A60002585620A68521E0A6029492E
:1052A0004A6B0124DAB1284D6A68C26196680662C9
:1052B00096687360936085622A68521C2A60C06A8F
:1052C0000A68D26A90423AD90120CC6170BD502060
:1052D00080F31188BFF34F8FBFF36F8FFEE7D0E9E4
:1052E00002634269B360D0E9023673605668031DF9
:1052F0009E4201D1C6685660456115686D1E1560F5
:10530000C26A0E6904FA02F535430D610E4D02EBD7
:1053100082028C3D05EB8202526882609668C6600C
:10532000966873609360C26A02EB820205EB8203A7
:10533000436155F822305B1C45F82230BFE700205E
:1053400070BD000018000020B80400202DE9F041D5
:10535000464D00242746686B38B1FFF753F8686B59
:10536000401E6863686B40B17AE0502080F311887A
:10537000BFF34F8FBFF36F8FFEE7A8683C4B00264B
:105380004FF00108F0BB6BE0D868C468D4E907218E
:10539000A06A9160D4E907125160426804F11801D3
:1053A0008A4201D1216A4160A6620168491E0160FA
:1053B000D4E9022160699160D4E902125160426827
:1053C000211D8A4201D1E268426066610268521E74
:1053D0000260E26AD5F810C008FA02F040EA0C0058
:1053E000286102EB8200224A8C3A02EB800040687E
:1053F000A060D0F808C0C4F80CC0D0F808C0CCF841
:10540000041000E012E08160E06A00EB800002EB33
:105410008001616152F82010491C42F82010E06AB6
:105420002968C96A884201D3C5F81C801868002819
:10543000AAD10CB1FEF700FEAC693CB1FFF720FE2B
:1054400008B1C5F81C80641EF8D1AE61E86938B1B6
:105450000849012738070860BFF34F8FBFF36F8FEC
:10546000FEF7F0FF3846BDE8F0810000180000208C
:10547000B804002004ED00E02DE9F0470746994606
:1054800016460D462C20DDF820A0FEF763FE040032
:1054900018D0B84600204F4684F82800D146A5B160
:1054A000FEF77CFB04F11801C4F8008081E8A0023B
:1054B000201DFEF780FF2EB194F8280040F0040173
:1054C00084F828102046BDE8F087502080F311882A
:1054D000BFF34F8FBFF36F8FFEE700001CB5FEF7E1
:1054E0005DFB0D48006868B10B490220091DCDE93C
:1054F000000100234FF4827208A10A48FFF734FD2F
:10550000002807D1502080F31188BFF34F8FBFF3DD
:105510006F8FFEE71CBD000058000020546D722004
:1055200053766300C5400008FEB51E4613460200D0
:10553000089D4FF0000014D0124C2768002F0FD0A8
:10554000CDE900130292062915DAFFF785FD02283E
:105550004FF000030DD0002269462068FFF70CFBD6
:10556000FEBD502080F31188BFF34F8FBFF36F8FC4
:10557000FEE72A46F0E70023324669463846FFF741
:10558000ABFBFEBD580000204FF04070E1EE100A6A
:1055900070470006101600061016000000000000FC
:1055A00000000102030406070809000000000102D0
:1055B00003043031323334353637383941424344CD
:1055C0004546000000000000545452205245474711
:1055D0004553003031323334353637383941424360
:1055E000444546002020257325735B756172745F06
:1055F0006372656174655D5541525420496E7374E0
:10560000616E636520437265617465204661696CF3
:1056100065642C537461636B204F766572666C6FA2
:1056200077210D0A0D0A2573000000002020257344
:1056300025735B6C65645F6372656174655D4C4581
:105640004420496E7374616E6365204372656174B2
:1056500065204661696C65642C537461636B204FEF
:10566000766572666C6F77210D0A0D0A257300004E
:105670002020257325735B6461656D6F6E5F6372B7
:10568000656174655D4461656D6F6E20496E73740C
:10569000616E636520437265617465204661696C63
:1056A00065642C537461636B204F766572666C6F12
:1056B00077210D0A0D0A257300000000DC56000852
:1056C00000000020AC010000C4010008F0570008F1
:1056D000AC0100206C4301000002000891420192DD
:1056E00010033224F402440475AAAAAAAA10FF31B6
:1056F0006253C4F5A697B988DBEA7D4C1F2E43722E
:10570000211087B6E5D4FACB98A93E0F5C6D86B719
:10571000E4D5427320113F0E5D6CFBCA99A8C5F415
:10572000A796013063527C4D1E2FB889DAEB3D0CF1
:105730005F6EF9C89BAA84B5E6D7407122137E4FED
:105740001C2DBA8BD8E9C7F6A59403326150BB8AE9
:10575000D9E87F4E1D2C02336051C6F7A495F8C9D5
:105760009AAB3C0D5E6F4170231285B4E7D67A4B3D
:105770001829BE8FDCEDC3F2A190073665543908B5
:105780005B6AFDCC9FAE80B1E2D344752617FCCD99
:105790009EAF38095A6B4574271681B0E3D2BF8E8D
:1057A000DDEC7B4A192806376455C2F3A091477691
:1057B000251483B2E1D0FECF9CAD3A0B5869043575
:1057C0006657C0F1A293BD8CDFEE79481B2AC1F069
:1057D000A3920534675678491A2BBC8DDEEF82B34D
:1057E000E0D1467724153B0A5968FFCE9D0218ACDC
:040000050800018965
:00000001FF
