:020000040800F2
:10000000C04A012009030008672600085B23000896
:10001000652600083F060008C13100080000000006
:10002000000000000000000000000000490200087D
:100030001507000800000000A50200084D2900086F
:1000400023030008230300082303000823030008F8
:1000500023030008230300082303000823030008E8
:1000600023030008230300082303000841060008B7
:100070004D06000823030008590600082303000862
:1000800023030008230300082303000823030008B8
:1000900023030008230300082303000823030008A8
:1000A0002303000823030008230300082303000898
:1000B0002303000823030008230300082303000888
:1000C0002303000823030008230300082303000878
:1000D000230300082303000823030008B5310008A8
:1000E0002303000823030008230300082303000858
:1000F0002303000823030008230300082303000848
:100100002303000823030008230300082303000837
:1001100023030008E12D000823030008092A000832
:100120002303000823030008230300082303000817
:1001300065060008230300082303000823030008C2
:1001400023030008230300082303000823030008F7
:1001500023030008230300082303000823030008E7
:1001600023030008230300082303000823030008D7
:1001700023030008230300082303000800000000F5
:10018000230300082303000800F002F800F04CF8F5
:100190000AA090E8000C82448344AAF10107DA45E2
:1001A00001D100F041F8AFF2090EBAE80F0013F0E8
:1001B000010F18BFFB1A43F001031847705E0000DF
:1001C000905E00000A4410F8014B14F00F0508BFC0
:1001D00010F8015B240908BF10F8014B6D1E05D013
:1001E00010F8013B6D1E01F8013BF9D1641E03D0EC
:1001F000641E01F8015BFBD19142E4D3704700001B
:100200000023002400250026103A28BF78C1FBD81F
:10021000520728BF30C148BF0B6070471FB505F0BB
:10022000E1FD1FBD10B510BD00F0D0F91146FFF77C
:10023000F5FF03F09DFD00F0EEF903B4FFF7F2FFC8
:1002400003BC00F0F5F900002C4B19680868B0E811
:10025000F04F80F30988BFF36F8F4FF0000080F3F9
:10026000118870470000000008480068006880F3AB
:1002700008884FF0000080F3148862B661B6BFF3BF
:100280004F8FBFF36F8F00DF00BF00BF08ED00E0AE
:10029000DFF80C00016841F470010160704700BF95
:1002A00088ED00E0EFF30980BFF36F8F134B1A68FE
:1002B0001EF0100F08BF20ED108A20E9F04F1060EB
:1002C00009B44FF0500080F31188BFF34F8FBFF394
:1002D0006F8F04F091FC4FF0000080F3118809BC8F
:1002E00019680868B0E8F04F1EF0100F08BFB0ECB6
:1002F000108A80F30988BFF36F8F704718000020C1
:10030000EFF305807047000009488047094800471F
:10031000FEE7FEE7FEE7FEE7FEE7FEE7FEE7FEE7B5
:10032000FEE7FEE704480549054A064B7047000012
:10033000F929000889010008C0440120C04A0120B1
:10034000C0460120C046012053EA020C00F069803B
:100350002DE9F04B4FF00006002B1FBFB3FA83F5D9
:1003600003FA05F424FA05F65E4012BF1643B2FA0A
:1003700082F502FA05F4C5F120051EBF22FA05FC3C
:1003800044EA0C04203556EA044C4FEA144418BFE2
:10039000641C4FF000084FF00009904271EB030C11
:1003A00039D3002919BFB1FA81F701FA07F6B0FA7B
:1003B00080F700FA07F6C7F120071EBF20FA07FCF6
:1003C00046EA0C062037B6FBF4FCA7EB0507103F06
:1003D00007F01F0BCBF120060CFA0BFB2CFA06F6EC
:1003E00044BFB3460026202FA4BF5E464FF0000B4B
:1003F0005BEA060C08BF4FF0010B19EB0B09ABFBD6
:10040000027C48EB0608C01B06FB02CC0BFB03CCAE
:1004100071EB0C01C1E70B46024641464846BDE878
:10042000F08B13B54FF000004FF00001AFF30080E8
:10043000BDE81C407047032A40F2308010F0030CE6
:1004400000F0158011F8013BBCF1020F624498BF27
:1004500011F801CB00F8013B38BF11F8013BA2F1C4
:10046000040298BF00F801CB38BF00F8013B11F03F
:10047000030300F07980083AC0F0088051F8043B8B
:10048000083A51F804CBA0E80810F5E7121D5CBF4C
:1004900051F8043B40F8043BAFF30080D20724BF7F
:1004A00011F8013B11F801CB48BF11F8012B24BF13
:1004B00000F8013B00F801CB48BF00F8012B704762
:1004C00002F0FF0343EA032242EA024200F002B8CC
:1004D0004FF000020429C0F0128010F0030C00F06D
:1004E0001B80CCF1040CBCF1020F18BF00F8012BEB
:1004F000A8BF20F8022BA1EB0C0100F00DB85FEAB9
:10050000C17C24BF00F8012B00F8012B48BF00F884
:10051000012B70474FF0000200B5134694469646F3
:10052000203922BFA0E80C50A0E80C50B1F1200106
:10053000BFF4F7AF090728BFA0E80C5048BF0CC0B4
:100540005DF804EB890028BF40F8042B08BF704712
:1005500048BF20F8022B11F0804F18BF00F8012B84
:10056000704770477047704710B5203AC0F00B8055
:10057000B1E81850203AA0E81850B1E81850A0E8A7
:100580001850BFF4F5AF5FEA027C24BFB1E8185001
:10059000A0E8185044BF18C918C0BDE810405FEA71
:1005A000827C24BF51F8043B40F8043B08BF7047ED
:1005B000D20728BF31F8023B48BF11F8012B28BFF2
:1005C00020F8023B48BF00F8012B7047754600F049
:1005D0002BF8AE4605006946534620F007008546D5
:1005E00018B020B5FFF79EFEBDE820404FF0000692
:1005F0004FF000074FF000084FF0000B21F007010B
:10060000AC46ACE8C009ACE8C009ACE8C009ACE84D
:10061000C0098D46704710B50446AFF300802046F0
:10062000BDE81040FFF709BE004870476044012054
:1006300001491820ABBEFEE7260002007047FEE726
:10064000014800F0C5B8000054030020014800F044
:10065000BFB80000B4030020014800F0B9B80000A2
:1006600014040020014800F0B3B800006402002028
:1006700001681823CAB2103AB2FBF3F2054B6FF3CC
:100680000901032A9B5CC36500D9091D81650846E1
:1006900070470000EE5D000810B5014600208B6930
:1006A0008A6A4FF0C07453B1B3F5005F15D072B1D0
:1006B000012A0CD0022A0AD0032A09D104E01AB177
:1006C000012A06D0022A03D1C96AC90100D5012036
:1006D00010BDC96AA142FAD010BD002AF7D0012A84
:1006E000F2D0022AF3D0032AF3D010BD30B504684B
:1006F000256825F480252560046863608368402BA5
:10070000036803D099600068C26030BD9A600068D9
:10071000C16030BD704772B6FEE72DE9F041044676
:10072000876D00F0D7FA064694F8350000250228B8
:1007300006D08020606584F834500120BDE8F08147
:100740002068016821F0160101602068416921F0EC
:1007500080014161206C08B9A06C20B1206801685B
:1007600021F0080101602068016821F001010160A9
:100770000CE000F0AFFA801B052807D92020606547
:10078000032084F8350084F83450D7E720680068E7
:10079000C007EED194F85C103F208840B86001207B
:1007A00084F8350084F834500020C7E790F83510FD
:1007B000022903D08021416501207047052180F87E
:1007C00035100068016821F00101016000207047C8
:1007D0002DE9F84304464FF00009CDF80090634836
:1007E0004FF41651A56D0068B0FBF1F72E6894F830
:1007F0005C10082000FA01F131420FD021680A682C
:1008000052070BD50A6822F004020A6094F85C10C3
:100810008840A860606D40F00100606594F85C104D
:100820004FF0010808FA01F0304208D02168496908
:10083000090604D5A860606D40F00200606594F878
:100840005C1004208840304208D02168096889077C
:1008500004D5A860606D40F00400606594F85C10F9
:1008600010208840304218D021680968090714D543
:10087000A86020680168490304D50068000308D512
:10088000A16C07E00168C90503D4016821F00801E3
:100890000160216C09B12046884794F85C10202043
:1008A0008840304231D021680968C9062DD5A8603A
:1008B00094F8350005282068016806D0490347D51B
:1008C000006800031DD4616C1CE021F0160101607A
:1008D0002068416921F080014161206C08B9A06C59
:1008E00020B12068016821F00801016094F85C10D3
:1008F0003F208840A86084F8358084F83490216DCA
:100900001FE0E16B09B120468847606D00282BD0BD
:10091000606DC00714D0052084F835002068016898
:1009200021F0010101600098401C0090B84203D8FA
:1009300020680068C007F6D184F8358084F83490C8
:10094000E16C002910D001B02046BDE8F043084713
:100950000168C905D5D4016821F01001016084F84F
:10096000358084F83490CCE7BDE8F883140000208B
:100970002DE9F041044600F0ADF906465CB10220D5
:1009800084F83500002584F834502068016821F08F
:10099000010101600DE00120BDE8F08100F09AF94D
:1009A000801B052805D920206065032084F83500C8
:1009B000F2E720680068C007F0D12268116820487B
:1009C0000140D4E901031843D4E903363343184303
:1009D00063691843A3691843E3691843236A1843FA
:1009E0000843616A042903D1D4E90B13194308436E
:1009F000106020684069666A20F0070130460E43A7
:100A0000012704280CD1A06A0643E06A40B12046C1
:100A1000FFF742FE20B14020606584F83570BAE7E8
:100A2000206846612046FFF723FE94F85C203F21B2
:100A300091408160656584F835700020ACE7000066
:100A40003F8010F02DE9F0410446866D90F83400A7
:100A5000002501280DD0012084F8340094F8357069
:100A60000020012F07D084F8340002252846BDE875
:100A7000F0810220FBE7022784F83570606520468C
:100A8000FFF734FE94F85C103F208840B060206887
:100A9000016841F016010160206C20B120680168F6
:100AA00041F0080101602068016841F00101016026
:100AB000DCE7000070B5044600F00CF90546601C48
:100AC00002D004480078044400F004F9401BA0421E
:100AD000FAD370BD080000202DE9F84FDFF8BCA163
:100AE0000022012503264FF00F090AF1040BAAF199
:100AF000040E00BF0B6805FA02F42340A34270D134
:100B00000F7907F00307012F01D0022F16D1876854
:100B10004FEA420806FA08FC27EA0C07D1F80CC095
:100B20000CFA08FC4CEA070CC0F808C04768A74359
:100B30000C79C4F3001494403C4344600C79E443C2
:100B4000A4070AD0C4684FEA420C06FA0CF7BC436B
:100B50008F6807FA0CF72743C7600C7904F0030489
:100B6000022C12D1D40800EB840CDCF8204057078B
:100B7000FF0E09FA07F824EA0804D1F8108008FAF1
:100B800007F848EA0408CCF8208004684FEA420CD1
:100B900006FA0CF7BC430F7907F0030707FA0CF7C6
:100BA000274307604C6814F4403F70D03C4C2768E2
:100BB00047F480472760246822F0030704F4804448
:100BC0000094384C07EB040CDCF8084897074FEA10
:100BD000177809FA08F7BC43334FB84202D100270F
:100BE00024E054E0314FB84201D101271EE0304FDC
:100BF000B84201D1022719E02E4FB84201D1032794
:100C000014E02D4FB84201D104270FE02B4FB8421A
:100C100001D105270AE02A4FB84201D1062705E095
:100C2000284FB84201D1072700E0082707FA08F744
:100C30002743CCF80878DAF800405746D1F804C0CA
:100C40009C435FEACC2C00D51C433C60DBF80040A1
:100C50005F46D1F804C09C435FEA8C2C00D51C434E
:100C60003C60DEF800407746D1F804C09C435FEA60
:100C70008C3C00D51C433C60084F083F3C68D1F8D1
:100C800004C09C435FEACC3C00D51C433C60521C32
:100C9000102AFFF42FAFBDE8F88F0000083C014098
:100CA000443802400030014000000240000402408D
:100CB00000080240000C02400010024000140240F4
:100CC00000180240001C02400AB18161704709040B
:100CD000FBE7000001488068704700000800002022
:100CE0000248816802781144816070470800002042
:100CF0000B4810B5016841F400710160016841F4CE
:100D000080610160016841F480710160032000F09E
:100D10009BF8012000F006F800F050F8002010BD0C
:100D2000003C024030B505461F4887B000240168EA
:100D300041F020010160006806A900F02000009049
:100D400001A800F02DF90498A8B100F049F940007D
:100D50001649174AB0FBF1F11648491E026040F2ED
:100D6000E732C0E90324C0E90114846100F0B2FB5A
:100D7000040003D015E000F033F9E9E70D4800F076
:100D80001DFC04000DD1372000F030F8102D07D2E3
:100D900000222946372000F037F80748056000E0B8
:100DA000012407B0204630BD4038024040420F00C9
:100DB00000140040740400200C0000200A4808B50C
:100DC000016841F480410160006800F480400090B7
:100DD0000548001F016841F080510160006800F083
:100DE0008050009008BD000044380240002809DB14
:100DF00000F01F02012191404009800000F1E02035
:100E0000C0F8001170470000F0B40E4B1B680C4690
:100E1000C3F30223C3F10705042D00D90425191DCE
:100E2000072901D2002300E0DB1E012606FA05F1A6
:100E3000491E214099409E40761E16403143F0BC29
:100E400002F0E1BC0CED00E0064900F00702086882
:100E50004FF6FF03184040EA0220034A104308609F
:100E6000704700000CED00E00000FA052DE9F047A6
:100E70000E46050065D0DFF81481D8F80000F7B2FF
:100E800000F00700B04207D288F80070D8F80000E0
:100E900000F00700B04254D128683D4C810712D5BC
:100EA000400703D5206840F4E05020602878000710
:100EB00003D5206840F4604020602068A96820F0D5
:100EC000F000084320602878C0072DD030496868BA
:100ED0000839012812D0022813D0032811D009683C
:100EE000890700292DDA216821F0030101432160DF
:100EF000FFF7F0FE814641F2883A0EE00968890367
:100F0000EFE709688901ECE7FFF7E4FEA0EB0901D0
:100F1000514502D90320BDE8F0872068696800F0D8
:100F20000C00B0EB810FEFD1D8F80010404601F073
:100F30000701B14207D90770006800F00700B0420E
:100F400001D00120E7E72878400705D52068E96847
:100F500020F4E050084320602878000706D5206878
:100F6000296920F4604040EAC100206000F058F890
:100F70002168084AC1F30311515CC8400649086062
:100F800006480068FFF7CEFE0020C4E7003C0240A0
:100F900008380240F65D0008140000200C00002014
:100FA0000F2202600C4A136803F0030343601368C6
:100FB00003F0F0038360136803F4E053C360126826
:100FC0004FF4E05303EAD20202610448006800F0E3
:100FD000070008607047000008380240003C0240EB
:100FE0000448054900680968044AC1F38221515C3C
:100FF000C84070471400002008380240065E000810
:101000000448054900680968044AC1F34231515C4B
:10101000C84070471400002008380240065E0008EF
:10102000154810B5006810F00C02144813D0411098
:10103000042A0FD0082A0ED10F4C241F22682368DF
:1010400002F03F025B0207D52068C0F38810A0FBC6
:10105000010106E0084610BD2168C1F38811A1FB1B
:1010600000010023FFF770F92168C1F30141491C19
:101070004900B0FBF1F010BD083802400024F40034
:101080002DE9F84F04006ED02078DFF84C93C007AC
:10109000A9F104054AD009F104000168C1F38101F6
:1010A000012908D00068C0F3810002280AD1D9F8CC
:1010B0000000400206D52868800337D56068002804
:1010C000E1D033E06068B0F5803F10D0B0F5A02FDC
:1010D000286810D020F480302860286820F4802010
:1010E00028606068A8B1FFF7F5FD06460DE02868A6
:1010F00040F48030F4E740F480202860F7E700BF38
:10110000FFF7E8FD801B642873D828688003F7D5B3
:101110000CE0FFF7DFFD064605E000BFFFF7DAFD54
:10112000801B6428F0D828688003F7D42078DFF883
:10113000AC8280074FF0000A3ED5A748001D016829
:1011400011F00C0F08D00068C0F3810002280BD109
:10115000D9F80000400207D42868800716D5E06857
:10116000012800D112E033E1E068B8B10120C8F8ED
:101170000000FFF7AFFD064605E000BFFFF7AAFD40
:10118000801B0228C0D828688007F7D52868216905
:1011900020F0F80040EAC10028600DE0C8F800A087
:1011A000FFF798FD064604E0FFF794FD801B022838
:1011B0001FD828688007F7D42078000722D5864FEB
:1011C00087486169703771B101210160FFF782FDC5
:1011D000064604E0FFF77EFD801B022809D8386828
:1011E0008007F7D50EE0C0F800A0FFF773FD0646B4
:1011F00005E082E0FFF76EFD801B02287DD838688D
:101200008007F7D42078400768D5DFF8CCB10027F5
:101210000BF13C0BDBF80000C0000BD4DBF8001036
:1012200041F08051CBF80010DBF80000012700F0FE
:10123000805000906B4E3068C00510D4306840F488
:1012400080703060FFF746FD009005E0FFF742FD3B
:101250000099401A022850D83068C005F6D55E4E75
:10126000A0686C3601280FD00528306810D020F017
:1012700001003060306820F004003060A068B8B130
:10128000FFF728FD00900FE0306840F00100F4E720
:1012900040F004003060F7E7FFF71CFD0099411AA9
:1012A00041F28830814266D830688007F4D50EE07C
:1012B000FFF710FD009007E0FFF70CFD0099411AC1
:1012C00041F28830814256D830688007F4D42FB17B
:1012D000DBF8001021F08051CBF80010A069C8B3F2
:1012E0003D49091D0968C1F3810102294AD002283C
:1012F000504607D0C8F8600000E03CE0FFF7EAFC89
:1013000004463BE04746C8F86000FFF7E3FC0646AA
:1013100005E000BFFFF7DEFC801B02282BD8286801
:101320008001F7D4D4E907010843A16A2E4A49088D
:1013300002EB0141626A41EA8211084394F82C10E1
:1013400040EA0161C9F8001001203866FFF7C2FCCD
:10135000044606E03EE000BFFFF7BCFC001B02288D
:1013600009D828688001F7D534E000BFFFF7B2FC48
:10137000001B022802D90320BDE8F88F28688001ED
:10138000F4D427E00128F7D0D9F80000E26900F48E
:10139000800191421CD1226A00F03F01914217D195
:1013A00047F6C071626A0140B1EB821F10D1A26A98
:1013B0004FF0FF3300F4403103EB5202B1EB024F28
:1013C00006D194F82C1000F07060B0EB016F01D0E2
:1013D0000120D1E70020CFE7043802400000474257
:1013E000800E4742007000400000FFFF70477047CA
:1013F00010B590F83C20012A22D0012280F83C2030
:10140000CA688C6822F4407222434C6822F48062DD
:1014100022430C6822F4006222430C6922F48052B9
:1014200022434C6922F400522243C969002322F46A
:1014300080420A4301684A6480F83C30002010BDB5
:10144000022010BD70B590F83C20012A32D0012452
:1014500080F83C40022280F83D2003685A689D686D
:1014600022F070060A6832435A60134B02689A42AF
:1014700014D0B2F1804F11D0104B9A420ED0104BC5
:101480009A420BD00F4B9A4208D00F4B9A4205D08C
:101490000E4B9A4202D00E4B9A4204D1496825F075
:1014A00080031943916080F83D40002180F83C1092
:1014B000084670BD022070BD0000014000040040DD
:1014C00000080040000C00400004014000400140C2
:1014D0000018004010B5040003D094F83D0010B18E
:1014E00007E0012010BD002084F83C00204600F0F9
:1014F0001FF8022084F83D00211D206801F08AFABF
:10150000012084F8460084F83E0084F83F0084F807
:10151000400084F8410084F8420084F8430084F8D5
:10152000440084F8450084F83D00002010BD000010
:1015300038B505461C4A01680020914226D11B4956
:101540000A6842F001020A6009681A4C01F00101C0
:101550000091174921604FF0406161604021C4E96A
:10156000021009012161490061618900C4E9061086
:10157000C900C4E908102046FFF7FAF908B1FFF7DF
:10158000CAF82C63AC636C63A56338BD0A4881421A
:10159000FBD10648001F016841F0040101600068AA
:1015A00000F00400009038BD0000014044380240C3
:1015B00070640240640200200008004090F83D1072
:1015C000012901D001207047022180F83D100168F7
:1015D000CA6842F00102CA6000681149884214D00A
:1015E000B0F1804F11D00F4988420ED00E49884289
:1015F0000BD00E49884208D00D49884205D00D49CC
:10160000884202D00C49884204D1816801F0070168
:10161000062903D0016841F00101016000207047F4
:10162000000001400004004000080040000C0040A1
:1016300000040140004001400018004070B504461D
:1016400090F83C000025012817D0012684F83C6062
:10165000022084F83D002068826822F0770222F49C
:101660007F4282600868502838D00DDC20284FD097
:1016700005DC90B3102811D14AE0022070BD30285B
:1016800046D040280AD13BE060282FD070280DD0EA
:10169000B0F5805F03D0B0F5005F12D0012584F86B
:1016A0003D60002084F83C00284670BDCB68D1E93D
:1016B0000121206801F09CFA2068816841F07701DF
:1016C00009E0CB68D1E90121206801F091FA206896
:1016D000816841F480418160E1E719E0CA684968A6
:1016E000206801F059FB5021206806E0CA6849686B
:1016F000206801F062FB6021206801F083FACEE7E8
:10170000CA684968206801F047FB40212068F4E777
:10171000226801461046F0E7704770472DE9F04116
:1017200004460068C66805694FF00007A90713D58D
:10173000B10711D5F91E0161012020772068806969
:101740008007204602D0FFF7E8FF04E000F0C0F871
:10175000204600F053F92777680716D5700714D58F
:1017600021686FF0040008610220207720688069FA
:1017700010F4407F204602D0FFF7CFFF04E000F0D6
:10178000A7F8204600F03AF92777280715D5300743
:1017900013D521686FF008000861042020772068C5
:1017A000C0698007204602D0FFF7B7FF04E000F0D1
:1017B0008FF8204600F022F92777E80616D5F006C4
:1017C00014D521686FF01000086108202077206888
:1017D000C06910F4407F204602D0FFF79EFF04E06E
:1017E00000F076F8204600F009F92777E80708D0DE
:1017F000F00706D021686FF001000861204600F074
:10180000B3FA280608D5300606D521686FF08000A7
:1018100008612046FFF7EAFD680608D5700606D580
:1018200021686FF040000861204600F0A7FAA80682
:101830000AD5B00608D521686FF02000086120465F
:10184000BDE8F041FFF7D3BDBDE8F08110B586B02B
:10185000044614216846FEF75DFE2368174C0021FC
:1018600017480222A34211D1036843F0100303601A
:10187000006800F01000059050030090CDE90121B0
:101880000120CDE9031069460E4813E00E4CA34237
:1018900012D1036843F008030360006800F00800F9
:1018A00005904FF460400090CDE90121CDE903128D
:1018B00069460648FFF710F906B010BD0000014068
:1018C000303802400010024000080040000C024086
:1018D000704770B5044690F83C0000260D4601287C
:1018E0000FD0012084F83C006AB1042A1DD0082AD8
:1018F0002FD00C2A3FD00126002084F83C0030462F
:1019000070BD022070BD206801F084F920688169F3
:1019100041F0080181612068816921F00401816141
:10192000206881692A69114311E0206801F0A2F959
:101930002068816941F4006181612068816921F436
:1019400080618161206881692A6941EA022181619F
:10195000D2E7206801F0C4F92068C16941F00801AC
:10196000C1612068C16921F00401C1612068C169B9
:101970002A69114311E0206801F0E6F92068C16985
:1019800041F40061C1612068C16921F48061C161D5
:101990002068C1692A6941EA0221C161ACE710B53A
:1019A000040003D094F83D0010B107E0012010BD01
:1019B000002084F83C00204600F01EF8022084F845
:1019C0003D00211D206801F025F8012084F8460023
:1019D00084F83E0084F83F0084F8400084F8410019
:1019E00084F8420084F8430084F8440084F84500F9
:1019F00084F83D00002010BD704700000349884274
:101A000003D10C21014800F049B97047D4010020EE
:101A10007047000010B50446022249B104290ED0D7
:101A2000082913D094F84100012816D0012010BDD8
:101A300094F83E000128F9D184F83E200FE094F894
:101A40003F000128F2D184F83F2008E094F84000DC
:101A50000128EBD184F8402001E084F841200122E4
:101A6000206801F043F816492068164A884201D0E0
:101A7000904203D1436C43F400434364206888429E
:101A800013D0B0F1804F10D00F4988420DD00F49CC
:101A900088420AD00E49884207D0904205D00D49AD
:101AA000884202D00C49884204D1816801F00701C4
:101AB000062903D0016841F001010160002010BD3A
:101AC0000000014000040140000400400008004004
:101AD000000C004000400140001800402DE9F0419A
:101AE00017460D0004464FF000060CD0042D11D00F
:101AF000082D16D094F84100022819D094F841001E
:101B0000012818D07CE094F83E00022810D094F808
:101B10003E00F5E794F83F00022809D094F83F0012
:101B2000EEE794F84000022802D094F84000E7E77E
:101B30000220BDE8F081002F62D0002B60D04D491B
:101B40004D4ADFF838C102204DB1042D18D0082DC0
:101B500027D084F841000C2D44D0012687E084F87A
:101B60003E00606AC163606A39460264606AC0F818
:101B70004CC02268606A3432FEF764FF88BB21E003
:101B800084F83F00A06AC163A06A39460264A06A73
:101B9000C0F84CC02268A06A3832FEF753FF00BB81
:101BA00015E084F84000E06AC163E06A39460264E7
:101BB000E06AC0F84CC02268E06A3C32FEF742FF9F
:101BC00078B909E02068C16841F400711EE020681E
:101BD000C16841F4806119E02068C16841F4006186
:101BE00014E00DE0206BC163206B39460264206B6A
:101BF000C0F84CC02268206B4032FEF723FF08B1CA
:101C0000012096E72068C16841F48051C16001223B
:101C10002946206800F06AFF19492068194A88425D
:101C200001D0904203D1436C43F4004343642068E5
:101C3000884213D0B0F1804F10D0134988420DD0A4
:101C4000124988420AD01249884207D0904205D0F2
:101C50001049884202D01049884204D1816801F0BD
:101C60000701062903D0016841F0010101603046F7
:101C70005FE70000072B0008652B00089D2B00087C
:101C80000000014000040140000400400008004042
:101C9000000C0040004001400018004070B50D00ED
:101CA00004464FF0000607D0042D0CD0082D11D0AB
:101CB0000C2D16D0012648E02068C16821F400717F
:101CC000C160606A13E02068C16821F48061C1606E
:101CD000A06A0CE02068C16821F40061C160E06A7C
:101CE00005E02068C16821F48051C160206BFEF7D7
:101CF0005DFD00222946206800F0F8FE184B41F2F5
:101D0000111120688A10984202D0164B984209D1CE
:101D1000036A0B4206D1036A134203D1436C23F4D6
:101D2000004343642068036A0B4206D1016A1142F2
:101D300003D1016821F00101016001203DB1042DB2
:101D400008D0082D09D084F84100304670BD84F8D1
:101D50003E00FAE784F83F00F7E784F84000F4E734
:101D6000000001400004014000680349884201D19D
:101D7000FEF7B6BF7047000000140040704738B54A
:101D8000044690F84200202801D0022038BD61B1FD
:101D90005AB10120206300206063204601F0C2F99F
:101DA0000028F3D1216B012901D0012038BD216821
:101DB0000A684968009121680C3151E8002F42F00F
:101DC000100241E80023002BF5D138BD7CB5154D3C
:101DD0000E46002455F82410D1F80411814203D096
:101DE000641CE4B2032CF5D355F82400D0F8082184
:101DF0004AB13146401C904755F824003146401CFA
:101E0000FEF766FB08E008A0CDE9004008A309A2A0
:101E10000AA1002000F0BCFC55F82400BDE87C407D
:101E200002F0BABCA43601201B5B306D000000003C
:101E3000453A00001B5B313B33316D002020257398
:101E400025735B756172745F64656F6364655D556E
:101E500041525420256420486173204E6F20436115
:101E60006C6C6261636B210D0A2573007CB50E4DAD
:101E7000002400BF55F82410D1F80411814203D08A
:101E8000641CE4B2032CF5D308A0CDE9004009A3FB
:101E900009A20BA1002000F07BFC55F82400BDE84E
:101EA0007C4002F079BC0000A43601201B5B306D41
:101EB00000000000453A00001B5B313B33316D00F0
:101EC0002020257325735B756172745F72785D5590
:101ED0004152542025642048617320616E20457270
:101EE000726F72210D0A257300000000F8B50168B9
:101EF00004460868CA684B6910F00F0F4FF00005E0
:101F000059D003F0010602F49077374365D0C1073A
:101F100005D0D10503D5616C41F001016164410731
:101F200005D5D90703D0616C41F0020161648107D6
:101F300005D5D90703D0616C41F004016164010744
:101F400007D502F02001314303D0616C41F0080154
:101F50006164616C00293AD0800604D5900602D5F0
:101F6000204600F0F7FF20684069616CC0F38010E4
:101F7000090700D460B3204600F0B7FF206840692D
:101F8000400621D52068143050E8001F21F04001A0
:101F900040E80012002AF5D1E06BA8B16E49016556
:101FA000E06BFEF703FC002811D0E06B016D01B07F
:101FB000BDE8F040084783060FD593060DD52046AF
:101FC000BDE8F84000F0C6BF2046FFF74FFFF8BD60
:101FD0002046FFF74BFF6564F8BD266B2023012EDA
:101FE0007DD1C6067BD5D60679D5086848680090AD
:101FF00048694FF00206400641D5E16B0868406829
:102000000004000CE8D0A28D8242E5D9E085C869C1
:10201000B0F5807F2DD020680C3050E8001F21F4EF
:10202000807140E80012002AF5D12068143050E891
:10203000001F21F0010140E80012002AF5D12068BC
:10204000143050E8001F21F0400140E80012002A3F
:10205000F5D184F84230256320680C3050E8001F29
:1020600021F0100140E80012002AF5D1E06BFEF7E4
:1020700054FB6663A08DE18D401A81B22AE0A08DE9
:10208000E18D401A81B2E08D0028A5D00029A3D0AF
:1020900022680C3252E8000F20F4907042E80007EA
:1020A000002FF5D12068143050E8002F22F00102F3
:1020B00040E80027002FF5D184F8423025632068DE
:1020C0000C3050E8002F22F0100240E80023002BD3
:1020D000F5D166632046FFF779FEF8BDFFE70506F8
:1020E0002BD5150629D594F841002128F5D1A068F3
:1020F000B0F5805F01D12069B0B1206A411C216236
:10210000216800784860E08C401E0004000CE084E8
:10211000E3D12068C16821F08001C1602068C168F6
:1021200041F04001C160D8E7206A0088C0F3080090
:102130004860206A801C2062E5E74006CDD5500645
:10214000CBD5CA68204622F04002CA6084F84130EC
:1021500000F002F9C1E70000ED2D000870B50400A1
:1021600004D094F84100002510B106E0012070BDB4
:1021700084F84050204600F023F8242084F84100E1
:102180002068C16821F40051C160204600F044FF7E
:102190002068016921F4904101612068416921F0C2
:1021A0002A0141612068C16841F40051C160656441
:1021B000202084F8410084F842006563002070BD4F
:1021C0002DE9F04786B0064614216846FEF7A2F9CD
:1021D0005948584B326858491038022503270024C3
:1021E0004FF000694FF4806A9A4248D10A6842F47D
:1021F00080120A60096801F480110591016841F0BC
:1022000004010160016801F004010591016841F0D9
:1022100008010160006802AA00F008000590981407
:10222000CDE900054FF0080882E89001694643486F
:10223000FEF752FC0420CDE9000502AA694682E8B7
:1022400090013F48FEF748FC3F4D3E482860C5E9F5
:102250000194C5E9034A6C61AC61EC612C622846CB
:102260006C62FEF785FB08B1FEF755FAF5630022B4
:1022700011463520AE63FEF7C7FD352054E0334BE1
:102280009A4253D10A6842F480220A60096801F434
:1022900080210591016841F002010160006802940B
:1022A00000F0020005904FF44060CDE900050720E2
:1022B000CDE9037069462648FEF70EFC224D214801
:1022C000603518302860C5E90194C5E9034A6C619E
:1022D000AC61EC612C624F46D04628466C62FEF73A
:1022E00047FB08B1FEF717FAF563AE63164D1548C4
:1022F000C0354830E5E802074020A5E81101124842
:1023000045F81449C030AC61EC612C626C62FEF798
:102310002FFB08B1FEF7FFF9B56300221146272015
:10232000AE63FEF771FD2720FEF760FD06B0BDE845
:10233000F087000000500040403802400008024092
:10234000000C02401060024054030020004800408E
:1023500000040240704770477047FEE7194808B50F
:10236000016841F400110160016801F4001100915D
:10237000016841F4800101600068002200F48000DF
:10238000009011460B20FEF73FFD0B20FEF72EFDBF
:10239000002211460C20FEF737FD0C20FEF726FD2B
:1023A000002211460E20FEF72FFD0E20FEF71EFD27
:1023B000002211463C20FEF727FDBDE808403C20E6
:1023C000FEF714BD3038024070B586B0142168465F
:1023D000FEF7A0F822480024016841F08001016066
:1023E000016801F080010591016841F01001016070
:1023F000016801F010010591016841F002010160DE
:10240000016801F002010591016841F008010160D5
:10241000016801F008010591016841F001010160C6
:10242000016801F001010591016841F004010160BA
:1024300000680C4E00F004004FF400650590002287
:1024400029463046FEF740FC01200095CDE9010405
:10245000694630460394FEF73FFB06B070BD0000AE
:1024600030380240000C024010B596B000240F94A2
:1024700010941194129413941C2108A81494FEF73C
:1024800049F820216846FEF745F827482549C0E964
:102490000014D221C0E9024180210461C0E9054154
:1024A000FFF718F808B1FEF736F94FF480500F9097
:1024B0000FA91D48FFF7C2F808B1FEF72CF91A481A
:1024C000FFF76DFA08B1FEF726F9139413A9164821
:1024D0001494FEF7B7FF08B1FEF71DF96020CDE9AF
:1024E00008040A940C940D940C2208A90E480E942A
:1024F000FFF7EFF908B1FEF70EF900944FF4005022
:10250000CDE9044002940194039469460648079477
:10251000FEF76EFF08B1FEF7FEF80348FFF796F9E5
:1025200016B010BD00000140D401002010B58EB0DF
:1025300000240794089409940A940B941C2168467B
:102540000C94FDF7E7FF2748254901605321C0E9B6
:10255000011440F2FB41C0E903148461FEF7BAFFA5
:1025600008B1FEF7D8F84FF48050079007A91D482E
:10257000FFF764F808B1FEF7CEF81A48FFF70FFA34
:1025800008B1FEF7C8F80B940BA916480C94FEF797
:1025900059FF08B1FEF7BFF86020CDE90004022022
:1025A00002900422694604940E48FFF792F908B19C
:1025B000FEF7B1F8082269460A48FFF78AF908B120
:1025C000FEF7A9F80C2269460648FFF782F908B120
:1025D000FEF7A1F80348FFF739F90EB010BD00006F
:1025E000000800401C0200200E4810B50C49016094
:1025F0000D4941604FF48051816000214FF48062A9
:10260000C0E903120422C0E90521C161FFF7A6FD5C
:10261000002803D0BDE81040FEF77DB810BD0000D3
:1026200000500040C4020020A08601000C4810B5F4
:102630000A4901604FF4E1314160002181600C22C0
:10264000C160C0E904128161C161FFF787FD002804
:1026500003D0BDE81040FEF75EB810BD0048004052
:102660000C030020FEE7FEE700F054BF2DE9F8431D
:1026700004461F480078532801D000F04BFFFF208C
:1026800000258DF800004FF0FF39102C2BD219488F
:10269000174E005D8DF801001836EFF311872020EA
:1026A00080F31188307DDFF8508000F003000228AD
:1026B0000CD0304600F060FF02280FD388F80040AD
:1026C00002226946304601F07DF808E088F80040B3
:1026D00002226946304601F048F800E04D46F8B263
:1026E00080F3118800E04D462846BDE8F8830000DD
:1026F000EC3101200E5E0008940000202DE9F0412D
:1027000007460B4815460E460078532801D000F0C6
:1027100001FFEFF31184202080F311882A4631460F
:10272000384600F007F8E1B281F31188BDE8F08186
:10273000EC31012070B50E46144900EB400001EB6E
:10274000C0051446E86A183520B101280FD00228C8
:1027500005D113E0284600F00FFFA04201D200246B
:1027600011E022463146284601F02CF80BE02846BD
:1027700000F002FFA042F4D20446F2E731462846B8
:1027800000F0F3FF0446204670BD0000EC3101204C
:102790000FB408B504A900916A46039900F004F843
:1027A00001B05DF814FB00002DE9F04198B0064639
:1027B00007A8029040200025CDE90305CDE9055684
:1027C00090460C4614F8011B002973D0252908D027
:1027D00002A800F0ABFF05980028F3DA18B0BDE8B6
:1027E000F081002001212278232A1ED02B2A19D023
:1027F0002D2A02D0302A08D102E040F0010001E089
:1028000040F00200641C0029EDD100222178A1F1E2
:1028100030030A2B0CD202EB820201EB4202303A67
:10282000641CF3E740F00400ECE740F00800E9E73F
:102830000023CFB22E2F0BD114F8011FA1F13007C6
:102840000A2F05D203EB830301EB4303303BF3E78D
:102850006C290DD068290BD0702956D00BDC2529A6
:1028600016D0582931D063290CD0642913D114E033
:1028700014F8011FECE7732934D075291BD078298F
:1028800009D122E0D8F80000011DC8F80010017835
:1028900002A800F04BFF641C9DE7D8F800100F1D44
:1028A000C8F800700968CDE900200A2202A800F0EB
:1028B0006FFEF0E735E0D8F800100F1DC8F8007083
:1028C0000968CDE900200A2208E0D8F800100F1DA1
:1028D000C8F800700968CDE90020102202A800F0B5
:1028E000BBFED8E7D8F80000011DC8F80010076843
:1028F00007B914A717F8011B0029CCD002A800F0D3
:1029000015FF05980028F5DAC5E7D8F80000011D85
:10291000C8F8001001680820CDE900050346102220
:10292000DCE7059800287FF759AF049820B10246EC
:1029300007A93046FFF7E2FEDDE9041008440590E0
:102940004CE70000284E554C4C29000010B502F011
:10295000B1FF012803D0BDE8104002F09DBC10BDBE
:1029600030B593B030216846FDF7D4FD14210CA892
:10297000FDF7D0FD1E480025016841F0805101603F
:10298000006800F0805011901A48016841F48041BD
:1029900001600068022400F4804011900120009042
:1029A000000401908001CDE90640082008904FF412
:1029B000A870CDE9090404200B906846FEF760FB7F
:1029C00008B172B6FEE70CA90F2081E831004FF480
:1029D000A0500F904FF48050109005210CA8FEF7E6
:1029E00045FA002801D072B6FEE713B030BD0000F2
:1029F00040380240007000400248016841F4700114
:102A00000160704788ED00E00148FEF787BE0000D6
:102A100074040020F0B50268294C2A4D2A4E2B4F31
:102A20002B4B4FF0804CA04209D0604507D0A84204
:102A300005D0B04203D0B84201D0984204D122F070
:102A4000700E4A6842EA0E02A0421BD0604519D0BF
:102A5000A84217D0B04215D0B84213D0984211D036
:102A60001C4DA8420ED01C4DA8420BD01B4DA842B5
:102A700008D01B4DA84205D01A4DA84202D01A4DCD
:102A8000A84203D122F44075CA682A434D6922F056
:102A900080022A4302608A68C2620A688262A04297
:102AA00001D0984201D109690163012141610169A5
:102AB000C90703D0016921F001010161F0BD0000E7
:102AC000000001400004004000080040000C0040ED
:102AD0000004014000400140004401400048014022
:102AE00000180040001C00400020004010B501F01C
:102AF0001F030121046A99408C430462016A9A40D1
:102B00001143016210BD10B5846B0121626A8242DB
:102B100005D12177C069F8B984F83E101CE0A26A9B
:102B2000824206D102222277C069A8B984F83F10F8
:102B300012E0E26A824206D104222277C06958B9C3
:102B400084F8401008E0226B824205D108222277E7
:102B5000C06908B984F841102046FEF74FFF0020F5
:102B6000207710BD10B5846B616A814201D10120CC
:102B70000DE0A16A814201D1022008E0E16A8142B0
:102B800001D1042003E0216B814201D1082020778C
:102B90002046FEF73DFF0020207710BD10B5846B66
:102BA0000121626A824203D1217784F83E1019E044
:102BB000A26A824204D10220207784F83F1011E0FB
:102BC000E26A824204D10420207784F8401009E0B0
:102BD000226B824204D10820207784F8411001E062
:102BE00084F83D102046FEF797FD0020207710BDA9
:102BF00010B5846842EA032224F47F440A43224346
:102C0000826010BD826822F070020A4342F0070120
:102C100081607047F0B5036A026A22F00102026225
:102C200042688469124E24F073050C682C4323F02B
:102C300002058B682B430D4DA84201D0B04205D14F
:102C400023F00807CB683B4323F00403A84201D0DC
:102C5000B04205D14D6922F4407215438A692A4376
:102C600042608461496841630362F0BD0000014035
:102C700000040140F0B5026A036A23F01003036206
:102C8000436884690D6824F4E64444EA05248D68A9
:102C900022F0200242EA05120F4D104EA84201D048
:102CA000B04206D1CF6822F0800242EA071222F039
:102CB0004002A84201D0B04207D14D6923F44063DD
:102CC00043EA85038D6943EA85034360846149686B
:102CD00081630262F0BD0000000001400004014079
:102CE000F0B5026A036A23F4807303624368C4691F
:102CF00022F4007224F073050C68124E2C438D6888
:102D000042EA05220E4DA84201D0B04206D1CF685A
:102D100022F4006242EA072222F48062A84201D033
:102D2000B04207D14D6923F4405343EA05138D693E
:102D300043EA05134360C4614968C1630262F0BDA0
:102D4000000001400004014030B5046A026A22F428
:102D5000805202624268C3690D6823F4E64343EA85
:102D600005238D6824F4005444EA0534084DA84234
:102D700002D0084DA84204D14D6922F4804242EAB3
:102D800085124260C36149680164046230BD00007D
:102D9000000001400004014010B5036A046A24F0F9
:102DA00001040462846924F0F00444EA021423F06C
:102DB0000A020A438461026210BD10B5036A046A04
:102DC00024F010040462846923F0A00324F4704406
:102DD00044EA023243EA01118261016210BD00003F
:102DE0000148FFF783B80000C402002010B5806BD3
:102DF0000021C185C184FFF739F810BD70B5846B1F
:102E00002068406994F84110C0F3C01000252129C2
:102E100004D118B1E584204600F08EF8206840699E
:102E200094F84210C0F38010222904D118B1E5852E
:102E3000204600F05AF8606C40F0100060642046B4
:102E4000FFF714F870BD10B50146806B096809687A
:102E50004FF00002C9052ED4C28501680C3151E83B
:102E6000003F23F4807341E80034002CF5D1016861
:102E7000143151E8003F23F0010341E80034002CF5
:102E8000F5D10168143151E8003F23F0400341E8D7
:102E90000034002CF5D1202180F84210016B01296B
:102EA00009D101680C3151E8003F23F0100341E8DB
:102EB0000034002CF5D14263016B012902D0FFF7E9
:102EC00049FA10BD818DFEF781FF10BD10B5806BF2
:102ED00001214163016B012902D0FFF73CFA10BDCB
:102EE000818D4908FEF772FF10BD01680C3151E871
:102EF000002F22F4907241E80023002BF5D10168E5
:102F0000143151E8002F22F0010241E80023002B88
:102F1000F5D1016B012909D101680C3151E8002F6D
:102F200022F0100241E80023002BF5D1202180F887
:102F3000421000210163704701680C3151E8002FF5
:102F400022F0C00241E80023002BF5D1202180F8B7
:102F50004110704708B590F84210222901D0022094
:102F600008BD82684FF480539A4201D1016921B1B2
:102F7000816A9A421BD04AB10AE00268816A5268AB
:102F8000C2F308020A80816A891C08E0026972B1F2
:102F90000268526802F07F020A70816A491C8162ED
:102FA000C18D491E0904090CC18503D01BE00268CC
:102FB0005268F1E70168CA6822F02002CA6001681D
:102FC000CA6822F48072CA6001684A6922F001026C
:102FD0004A61202180F8421000214163026B012ADE
:102FE00003D0FFF7B7F9002008BD016301680C3179
:102FF00051E8002F22F0100241E80023002BF5D108
:1030000001680A68D20602D50A6849680091818D74
:10301000FEF7DCFEE7E7000070B5044600680169D2
:10302000E26821F44051114301612169A068E2691D
:1030300008436169114308432168CA6849F20C6377
:103040009A430243CA6020684169A26921F4407131
:103050001143416131492068884202D03049884299
:1030600002D1FDF7CDFF01E0FDF7BAFFE2690023D1
:10307000192164253226B2F5004F626828D0A0FBE2
:103080000101930F9200FDF75FF90146B0FBF5F0E7
:103090006FF01802504301EB800006EB0010B0FB0C
:1030A000F5F000F0F002B1FBF5F002EB0012B1FB1D
:1030B000F5F06FF01803584301EB800006EB0010A9
:1030C000B0FBF5F000F00F0021681044886070BD7F
:1030D000A0FB010192185B41FDF736F90146B0FBF8
:1030E000F5F00201B1FBF5F06FF01803584301EB66
:1030F000800006EBC000B0FBF5F000F0F80002EB3A
:103100004002B1FBF5F0584301EB800006EBC00034
:10311000B0FBF5F000F00700D6E70000001001401A
:103120000014014038B581620446828500201346B0
:103130006064222284F84220E56B1B4AEA63E56B57
:103140001A4A2A64E56B1A4AEA64E26B10650A4679
:103150002168E06B091DFDF775FC20680168406877
:103160000090206948B120680C3050E8001F41F4FD
:10317000807140E80012002AF5D12068143050E830
:10318000001F41F0010140E80012002AF5D120683B
:10319000143050E8001F41F0400140E80012002ABE
:1031A000F5D1002038BD0000472E0008CD2E0008C4
:1031B000FD2D00080148FEF799BE00000C03002019
:1031C000FEE700002DE9F8431D4616460F468046EF
:1031D000DDF8209001F03EFB102001F09FF9040083
:1031E00011D0277066706580A5800E49C4E90298E9
:1031F0000B4A087842F82040401C087001F04AFB56
:103200002046BDE8F88308A0009009A309A20B4955
:103210000020FFF7BDFA01F03DFB0020F1E70000C0
:1032200038440120B40100201B5B306D0000000019
:10323000453A00001B5B313B33316D00CC5E00082A
:10324000F8B50D460646052808D325A0009026A30C
:1032500026A228A10020FFF79BFAF6E7324850F893
:10326000260040B11EA000901FA320A22FA1002085
:10327000FFF78EFAF6E701F0EDFA182001F04EF9AB
:10328000040020D026700020A560A0806070A0708F
:10329000C5F3074202EB8202C5F30720A28100EBCF
:1032A0008000E9B2E08101EB810020822C4800908F
:1032B0000423324601212046FFF784FF606101F0BC
:1032C000E9FA2046F8BD06A0009007A307A2254909
:1032D0000020FFF75DFA01F0DDFA0020F8BD0000E4
:1032E0001B5B306D00000000453A00001B5B313B6A
:1032F00033316D002020257325735B6C65645F633B
:1033000072656174655D546865204C4544204E7556
:103310006D62657220497320496C6C6567616C2130
:103320000D0A257300000000B0380120202025730D
:1033300025735B6C65645F6372656174655D4C45A4
:103340004420496E7374616E636520416C726561DF
:1033500064792043726561746564210D0A257300E8
:10336000E53C0008885E000838B51B48007840B18D
:103370001AA000901BA31CA21D490020FFF708FA09
:10338000F6E701F067FA202001F0C8F8040016D033
:10339000002020706070174B174A1921022000F09E
:1033A00031F8A061154803230090002219462046F9
:1033B000FFF708FFE06101F06DFA204638BD07A075
:1033C000009008A308A20E490020FFF7E1F901F0E0
:1033D00061FA002038BD0000B50100201B5B306D94
:1033E00000000000453A00001B5B313B33316D00AB
:1033F000E85F000811460008C402002009460008E2
:10340000185F00082DE9F843994617468846054697
:10341000032808D91DA000901EA31FA220A10020F0
:10342000FFF7B6F9F6E72B4E56F8250040B117A086
:10343000009018A318A228A10020FFF7A9F9F6E729
:1034400001F008FA4FF4867001F068F8040010D01B
:10345000C4F804712570A4F80281C4F8089146F8F4
:103460002540204601F098F901F014FA2046BDE805
:10347000F88306A0009007A307A225490020FFF7C4
:1034800087F901F007FA0020F1E700001B5B306DBF
:1034900000000000453A00001B5B313B33316D00FA
:1034A0002020257325735B756172745F637265619B
:1034B00074655D5468652055415254204E756D62A7
:1034C000657220497320496C6C6567616C210D0A37
:1034D00025730000A43601202020257325735B7519
:1034E0006172745F6372656174655D554152542009
:1034F000496E7374616E636520416C7265616479B5
:103500002043726561746564210D0A257300000013
:10351000405E000810B5134CA8212046FCF7FAFFC6
:1035200003202061606110A0A06104F1A800E061A7
:103530004FF4806020620020A0626062E0620AA115
:10354000216604F5956161661021A1662067E06639
:1035500060670849C0F10F028A5C2254401C1028A1
:10356000F8D310BDEC3101205465726D696E616C49
:10357000000000001E5E00080269C1688A4203D88C
:103580008068401A104400E0501A401E7047000046
:103590002DE9FC5F0E008146DDE90C47C6F1000015
:1035A00098469346824600D40846012503E000BFB2
:1035B00090FBFBF06D1C5845FADAA84500D945464A
:1035C00024B1002E01DB780700D5641EB80702D5B0
:1035D000B8F1000F0FD0F8070DD164B1A5420AD29F
:1035E00020214846641E00F0A1F8D9F80C000028FC
:1035F000F3DABDE8FC9FD9F80C000028F9DB002EB7
:1036000002DA56462D2102E0780707D52B214846DD
:1036100000F08CF8D9F80C000028EADB07F0030072
:1036200002280FD1B8F1000F0CD15CB1A54209D22C
:1036300030214846641E00F079F8D9F80C000028C3
:10364000F3DAD6E7CDE9004743465A4631464846C5
:1036500000F002F8CDE700002DE9F84F8246DDE9E1
:103660000A4B0126984691460D460846374602E029
:10367000B0FBF9F07F1C4845FAD2B84500D947465F
:103680005FEACB7017D1B4B15FEA8B7002D5B8F1A5
:10369000000F02D0202000900BE03020FBE75046C6
:1036A000641E009900F042F8DAF80C00002838DBBC
:1036B0000CB1A742F3D3DAF80C00002831DB00BFCD
:1036C000B8F1010F02D9A8F1010803E0B5FBF6F04B
:1036D000484502D306FB09F6F2E7DFF84C8000BF4D
:1036E000B5FBF6F000FB165518F80010504600F038
:1036F0001DF8DAF80C00002803DBB6FBF9F6002E03
:10370000EED15FEACB700CD0002C0AD0A74208D2D1
:1037100020215046641E00F009F8DAF80C00002859
:10372000F2DABDE8F88F00002F5E000810B50446FD
:10373000D4E90130421C934205D323681954A26096
:10374000E068401CE060D4E90102824209D12168AE
:103750002069FEF7D3FFA168884203D04FF0FF3005
:10376000E06010BD0020A06010BD2DE9F047C468E6
:103770001746894606464FF000083069A04201D935
:10378000051B02E0B168201A0D1AB0686D1E001BFF
:10379000A84200D80546BD4200D33D4670682A467F
:1037A00020444946FCF747FEB0687F1B2C44A844E0
:1037B000A944A04200D10024F460002FDDD140468E
:1037C000BDE8F0872DE9F04104468846D4E90207B8
:1037D000C51BE168606816460844B54206D94146F3
:1037E000FCF729FEB819E060BDE8F0812A464146A1
:1037F000FCF721FE761B08EB050132466068FCF7FA
:103800001AFEE660F0E70907090E002804DB00F164
:10381000E02080F80014704700F00F0000F1E02075
:1038200080F8141D7047000000224FF40061014829
:10383000FDF74ABA000C02400122D1020148FDF70F
:1038400043BA0000000C024000224FF4006101481E
:10385000FDF73ABA000C0240B0F80110C1F30A02B9
:10386000264909684A808278C378D20842EA43121E
:10387000C2F30A028A80C2780379920942EA83027B
:10388000437942EA8322C2F30A02CA8042798379E9
:10389000520842EAC312C2F30A020A818279C3794A
:1038A000120942EA0312C2F30A024A81C279037A78
:1038B000D20942EA4302437A42EA4322C2F30A02AD
:1038C0008A81427A837A920842EA8312C2F30A0218
:1038D000CA81827AC37A520942EAC3020A82828981
:1038E000C2F30A024A82427B837BD20842EA431235
:1038F000C2F30A028A82C07D48707047D00100205E
:103900001CB5FFF731FD0C49086058B10121017069
:103910000020019001F0DCFF0190052101A801F0D9
:103920007FFFFAE705A0009006A307A208A10020E8
:10393000FEF72EFFF6E70000D00100201B5B306D84
:1039400000000000453A00001B5B313B33316D0045
:103950002020257325735B636861737369735F74DB
:1039600061736B5D70726F64756365732061206E47
:10397000756C6C20706F696E746572210D0A0D0A8A
:10398000257300007CB5144C0E4605460146A06820
:1039900000F015FA90B13146284600F091F8002861
:1039A00019D0A068E9880181428802B005F10801B8
:1039B000BDE870400A30921EFCF73DBD208807A18B
:1039C000401C80B22080CDE9000106A306A208A118
:1039D0000020FEF7DDFE7CBDB80100201B5B306DD2
:1039E00000000000573A00001B5B313B33336D0091
:1039F00020202573257352656365697665204572BD
:103A0000726F72204672616D652C20616363756D03
:103A1000756C617465205B25645D2074696D6573E8
:103A20002E0D0A0D0A2573000EB58C2000F076FDD0
:103A3000144C154B154AA0604FF480710120FFF71C
:103A4000E1FC606012490020FFF7FAFB0025E0600E
:103A5000029501F03DFF4FF47A76029028460DA1C1
:103A6000CDE900016D1C0DA30DA20FA10020FEF7F2
:103A70008FFE0321E06800F075F9314602A801F0DD
:103A8000CFFEEBE7B8010020853900080C030020C9
:103A90002222B2001B5B306D00000000493A00009A
:103AA0001B5B313B33326D00202025732573486545
:103AB0006172742025640A0D0D0A25730000000050
:103AC00070B50C46050013D0022C11D9A01E81B28E
:103AD000284600F023F82919C2B211F8023C9A4294
:103AE00006D111F8011CB1EB102F01D1012070BDDE
:103AF000002070BD70B50C4605000DD0022C0BD90E
:103B0000601E81B2284600F029F8291911F8011C1D
:103B1000814201D1012070BD002070BD30B5044646
:103B20000C480D46007808B900F0B8F84FF6FF725F
:103B300074B10020084909E014F8013B5340DBB29E
:103B4000401C31F8133080B283EA1222A842F3D32A
:103B5000104630BD95010020B036012030B500235D
:103B600050B10022054C05E010F8015B5D40521C8D
:103B7000635D92B28A42F7D3184630BD95000020AB
:103B800070B500F067FE01F065F800F083FE0024D8
:103B9000094D0A4E08E000BF55F82400818839B16C
:103BA000491E8180641CE4B230788442F4D370BD35
:103BB00081688847F6E7000038440120B4010020FE
:103BC0001CB511A0009012A312A214A10020FEF7B0
:103BD000DFFD19490420CDE9000100234FF4827272
:103BE00016A1194801F0EEFD012807A008A309A2BB
:103BF000009007D015A10020FEF7CAFDBDE81C40CB
:103C000000F0BABF1AA1F6E71B5B306D00000000A0
:103C1000493A00001B5B313B33326D002020257395
:103C200025737374617274206672656572746F7344
:103C30000D0A0D0A257300000000002073746172E4
:103C4000745F7461736B0000C14600082020257307
:103C500025737374617274207461736B2063726571
:103C6000617465206661696C2E0D0A0D0A2573006A
:103C70002020257325737374617274207461736BD3
:103C80002063726561746520737563636573736621
:103C9000756C2E0D0A0D0A257300000070B50F4DCE
:103CA00000204AF20104002103460A4681EA030685
:103CB000F60702D084EA510100E04908521C5B0873
:103CC00092B2082AF2D325F81010401C80B2FF28C7
:103CD000E9D903490120087070BD0000B036012009
:103CE00095010020C16842888280487801280BD164
:103CF0008888002238B18B780C4833B10368DA63C6
:103D000003689A6308E04A70704703688A89DA6337
:103D10000368CA899A630A8A00680264887880F016
:103D2000010088708888401E888070471C0200202F
:103D30000B4810B502680021D163026891630068E6
:103D4000016408210648FDF765FE04210448FDF7DB
:103D500061FEBDE810400C210148FDF75BBE00008C
:103D60001C02002081800021C18001214170704728
:103D7000FCF7BEFFFEF7F4FDFEF726FBFEF7EEFABA
:103D8000FEF754FCFEF7D2FBFEF76EFBFEF72CFCB1
:103D9000FFF74AFD00F06EFCFFF7CAFF01F0D4F810
:103DA0004FF4C84000F0C0FFFFF746FD4FF47A70B3
:103DB000FCF780FEFFF748FDFFF702FFFEE770B556
:103DC000054608780C46A5280ED128700421204607
:103DD000FFF790FE40B1B4F801006880E0782871E8
:103DE000A088E880012070BD002070BD2DE9F04161
:103DF0001E4C0F460546E6682068001D00F0DEFCFC
:103E000038B9206890F82C1001208840216981433E
:103E10002161681C15D1A7B11549226848689060D6
:103E200023688268DA6022688368121D5A602268FB
:103E3000121D8260206841610868401C0860BDE86E
:103E4000F08120683544B5424560216805D2E06BB9
:103E5000BDE8F041091D00F0D9BCA06B091D00F0C0
:103E6000D5FCA06A8542EAD2A562E8E718000020E6
:103E7000B00500202DE9F041054600F0EBFC364C82
:103E8000A068401CA0602068344F10B1606940B346
:103E90002DE02560A068012829D1002606EB8600C8
:103EA00007EB800000F0A4FC761C052EF6D32B480F
:103EB000643000F09DFC2948783000F099FC2748D8
:103EC0008C3000F095FC2548A03000F091FC234890
:103ED000B43000F08DFC21486430A0631430E063FE
:103EE00005E02068E96AC06A884200D82560606AF7
:103EF000401C6062A864E96A01202269884010437E
:103F0000206101EB810007EB80004068A8608168B8
:103F1000E9608268291D51608160E86A00EB8000D9
:103F200007EB8001696157F82010491C47F8201001
:103F300000F0B0FC606900280CD02068E96AC06A13
:103F4000884207D206494FF080500860BFF34F8F78
:103F5000BFF36F8FBDE8F08118000020FC04002043
:103F600004ED00E010B500F075FC0E4C2068A0B91F
:103F70000D4800F03DFC0C48143000F039FC0A48B4
:103F8000E0601430206100220C210A2001F09AF92F
:103F9000206010B105A100F0FFFCBDE8104000F06A
:103FA00079BC000058000020C4050020546D7251F7
:103FB0000000000030B4026C0B46002A0BD0C16830
:103FC0001144C1608468A14201D30168C16030BC62
:103FD0001846FCF730BA30BC70472DE9F041856BCC
:103FE000174604460026026C82B1C7B1E068FCF7B0
:103FF00022FAE168206C091AE1602268914202D23B
:10400000A168081AE060022F16D017E02068A8B94E
:10401000A06801F0FFFC06460020A0600EE060688A
:10402000FCF709FA216C606808446060A168884266
:1040300004D32068606001E005B16D1E6D1CA563AE
:104040003046BDE8F08110B50446006B00F036FC48
:104050002046BDE8104000F031BC00000E484FF48F
:104060009631420706D0C01D0B4920F00700411AC7
:10407000C1F59631094A00230144C2E90003083919
:10408000143A21F0070111604B600B600B1AC0E974
:104090000013936053607047EC05002080000020FF
:1040A000144E154CA6F1A0074FF08058DFF84C9045
:1040B00012E000BF00F0CEFBF068C568281D00F0DC
:1040C0007DFBA068401EA0606068401E606000F03C
:1040D000E1FB2846FFF7B7FF60680028EAD138689F
:1040E0000128F9D9C9F80080BFF34F8FBFF36F8F54
:1040F000F2E700009C0500201800002004ED00E01D
:104100002DE9F0470D46DDE9098417468246910006
:104110009946089EA522206BFCF7D2F96FF00301A7
:10412000206B01EB8701084420F00707780707D0D0
:10413000502080F31188BFF34F8FBFF36F8FFEE7DE
:1041400065B100202218295C82F83410295C11B175
:10415000401C1428F6D3002084F84700052E07D30E
:10416000502080F31188BFF34F8FBFF36F8FFEE7AE
:10417000E662201D266500F046FB04F1180000F001
:1041800042FB2461C6F105006462A0614A465146C3
:10419000384600F023FA2060B8F1000F01D0C8F8CB
:1041A0000040BDE8F087000030B5114900E011463D
:1041B0000A688242FBD34B685C18844203D1406892
:1041C00018444860084643681C18944209D1084CBA
:1041D000143C2468A24209D052681A4442600A681A
:1041E00012680260814200D0086030BD0460F9E7C7
:1041F0008000002070B5002441600B4D00619142A9
:1042000006D8D11A8269914206D2011D286907E0B9
:104210009A4203D2994201D3012403E0011DE868C8
:1042200000F0F4FA204670BD5800002010B5044696
:1042300000F010FBA06B28B15FF0000400F02AFB37
:10424000204610BD0124F9E770B506460D480D461D
:10425000C068C068C468201D00F0B0FA94F8280057
:10426000410705D52A463146204600F0B5F803E05F
:1042700000F0FE0084F828002046216ABDE8704066
:1042800008470000580000207FB5374E63E00098D3
:10429000002860DB029C606910B1201D00F08EFADE
:1042A00003A800F0BBF8054600980A2853D2DFE8BF
:1042B00000F0520505282E460505282E94F8280002
:1042C0002A4640F0010084F828000199A069019B6A
:1042D00001442046FFF78EFF40B394F828004107C1
:1042E00007D50198A1692A460144204600F074F8D8
:1042F00003E000F0FE0084F82800216A2046884789
:1043000029E014F8280F00F0FE00207023E094F854
:10431000280040F0010084F828000198A06130B125
:1043200041192B461A462046FFF764FF13E0502040
:1043300080F31188BFF34F8FBFF36F8FFEE794F8C0
:104340002800810703D4204600F0B8FA03E000F00B
:10435000FE0084F8280000226946306801F058F910
:10436000002894D17FBD000058000020F8B50D460C
:10437000064600F039FC684600F050F80446009804
:1043800010B101F011FCF8BD1148ADB10169096827
:10439000D9B10025311B2A46006800F025FB01F049
:1043A00003FC0028EFD10B494FF080500860BFF3A9
:1043B0004F8FBFF36F8FF8BDA642EBD801F0F4FB2F
:1043C00021463046FFF740FFF8BD0125E2E7000037
:1043D0005800002004ED00E070B516460C46054676
:1043E00004E0A869296A044428468847A869234646
:1043F000011932462846FFF7FDFE0028F1D170BDB5
:104400000548816B096821B1816BC96809688162BF
:1044100070474FF0FF31FAE7180000202DE9F04116
:10442000064601F055FA0E4C0546A068854214D2A6
:104430004FF0FF3704E0C06839460068FFF704FF1B
:10444000E06801680029F6D12169C4E90310012060
:1044500030602846A560BDE8F0810020F8E7000044
:104460005800002008484068401C4FF0500080F37E
:10447000118804D0BFF34F8FBFF36F8FFEE7BFF3F8
:104480004F8FBFF36F8FFEE788000020074CE06876
:10449000016841B1C0680021D0F80000FFF766FF55
:1044A000FFF7F2FEF3E701210020F7E758000020B4
:1044B0002DE9F041044600F0CDF994F9455004F19E
:1044C000240609E0606A48B1304601F0FFFA08B1FD
:1044D00000F00CFB6D1E6DB2002DF3DC4FF0FF36CB
:1044E00084F8456000F0D6F900F0B4F994F944502E
:1044F00004F1100709E0206948B1384601F0E6FAF6
:1045000008B100F0F3FA6D1E6DB2002DF3DC84F8F3
:104510004460BDE8F04100F0BDB9000070B504464C
:10452000002600F061FB2C4D286808B9FFF796FDC6
:104530007CB304F00700C0F11000C1438C423DD8A9
:10454000211800293ADD6868814237D822481430A2
:104550000246146801E02046144662688A4202D28C
:104560002268002AF7D12A68944227D00668226878
:10457000026060680836421A102A0FD96018430793
:1045800008D0502080F31188BFF34F8FBFF36F8F97
:10459000FEE713E042606160FFF706FE616868684D
:1045A000401A6860AA68904200D2A86041F00040BA
:1045B000606000202060E868401CE86001F0F4FAC8
:1045C000700707D0502080F31188BFF34F8FBFF3DF
:1045D0006F8FFEE7304670BD6C00002010B5031FE2
:1045E0004FF080741C601B1F21F001011960191F1E
:1045F000044B0B6014390A60091F6FF00202443843
:104600000A6010BD6544000842888280704700003F
:1046100010B58CB0FFF720F911480DF11C0C0EA459
:104620000068018A838A428A8CE81E0001890DF1A4
:104630000C0CC489838942898CE81E00C188828859
:104640004088CDE90002029106A307A20849002094
:10465000FEF79EF80CB010BD1B5B306D0000000033
:10466000D0010020493A00001B5B313B33326D0022
:104670006C5F000810B5FDF7F7FF0020FDF7F6FFAF
:10468000BDE8104001A000F00FB8000052545420C3
:10469000496E6974205375636365737366756C6CDA
:1046A00079210D0A000000000FB408B503A800909E
:1046B0006A4600200299FEF777F801B05DF814FB16
:1046C0001CB51DA000901EA31EA220A10020FEF775
:1046D0005FF800F0BFF825490320CDE90001002371
:1046E0004FF4827222A1234801F06CF82249022083
:1046F000CDE9000100234FF4C37220A1214801F04D
:1047000061F82148012300901A4632211FA001F0D0
:10471000E1FA204C606001F0DBF80246002003461D
:1047200000900121606801F02DFB002000F07EF96F
:10473000BDE81C4000F0AEB81B5B306D000000000F
:10474000493A00001B5B313B33326D00202025735A
:104750002573456E74657220737461727420746180
:10476000736B0D0A0D0A257300000000C8010020BC
:10477000636F6D00293A0008CC0100206368617303
:104780007369730001390008813B00084461656D5D
:104790006F6E00000000002010B50446B0F8022142
:1047A000D0F80401611CFDF7EAFAD4F80401C06BEB
:1047B0000068016821F00801016010BDD0E90132F4
:1047C00001699A60D0E901235A604A68824201D1A6
:1047D00082684A60002202610868401E086008681A
:1047E00070470000014880687047000018000020F2
:1047F00000F108014FF0FF32C0E90112C160016110
:1048000000210160704700210161704730B50B68DD
:104810005A1C02D000F1080202E0026904E02246BC
:10482000546825689D42FAD953684B6099608A6044
:10483000516008610168491C016030BD42684A60EE
:1048400093688B6093685960916008610168491CA6
:1048500001607047502080F31188BFF34F8FBFF382
:104860006F8F0A494868401C486001280CD10848ED
:10487000006810F0FF0F07D0502080F31188BFF3BD
:104880004F8FBFF36F8FFEE7704700008800002056
:1048900004ED00E00849486828B1401E486001D195
:1048A00080F311887047502080F31188BFF34F8F39
:1048B000BFF36F8FFEE700008800002070B500286E
:1048C0002AD0A0F108046068002807DB502080F39C
:1048D0001188BFF34F8FBFF36F8FFEE7216839B1A7
:1048E000502080F31188BFF34F8FBFF36F8FFEE727
:1048F00020F00040606000F077F9084D606869685A
:10490000084468602046FFF74FFC2869401C286176
:10491000BDE8704001F048B970BD00006C00002097
:104920004FF0E02000210161816105494FF47A7266
:104930000968B1FBF2F1491E41610721016170472D
:104940001400002010B5FBF7DBFC114910280ED332
:1049500000F1E02090F8F0030A78904207D250204E
:1049600080F31188BFF34F8FBFF36F8FFEE70948C5
:104970000068896800F4E060884207D9502080F31D
:104980001188BFF34F8FBFF36F8FFEE710BD00009C
:10499000880000200CED00E070B5002260B1002915
:1049A0001ED0104C002300BF04EBC3056E68864286
:1049B0000AD104EBC3020FE0502080F31188BFF34B
:1049C0004F8FBFF36F8FFEE71AB954F8336006B903
:1049D0002A465B1C082BE7D3002A01D0C2E900104D
:1049E00070BD0000BC04002070B515460E4604469C
:1049F000FFF730FF94F944100020491C01D184F8DE
:104A0000440094F94510491C01D184F84500FFF792
:104A100041FFA06B28B92A46314604F1240000F07A
:104A200083F82046BDE87040FFF742BD70B50546EB
:104A3000FFF710FF264C05B92568281DFFF7BEFEBD
:104A400058B9E86A234A00EB800152F8211021B9D5
:104A500001218140206988432061A86A18B105F1CD
:104A60001800FFF7ABFE606A401C60622068854258
:104A700008D11848291DA030FFF7E0FE6068401CEF
:104A8000606004E0A068401EA060FFF7B9FCFFF77B
:104A900001FF2068854202D02846FFF7D4FA6069FA
:104AA000002814D02068854211D1606B38B15020A5
:104AB00080F31188BFF34F8FBFF36F8FFEE7064976
:104AC0004FF080500860BFF34F8FBFF36F8F70BD02
:104AD00018000020FC04002004ED00E002490A6AEE
:104AE0000260C96841607047180000200149012038
:104AF000C86170471800002010B50C4650B1094934
:104B000009681831FFF782FE2046BDE810400121F8
:104B1000FFF76CB9502080F31188BFF34F8FBFF3BC
:104B20006F8FFEE718000020F0B40C46D0B1114999
:104B300043680D68EB619D680E6835620D689E687C
:104B4000183575600D6818359D60096888620168C0
:104B5000491C01600AB14FF0FF342046F0BC1146F9
:104B6000FFF744B9502080F31188BFF34F8FBFF394
:104B70006F8FFEE7180000207CB517480025CDE9AF
:104B800000502B46822215A1164800F01BFE124C45
:104B90002C3C012803D101F0CFF8012802D0401CA1
:104BA00011D00EE0502080F31188BFF34F8FBFF378
:104BB0006F8F4FF0FF30A06201206061E56000F070
:104BC000F1FA206B7CBD502080F31188BFF34F8F2A
:104BD000BFF36F8FFEE700004400002049444C45BE
:104BE00000000000A14000080248416B491C4163DD
:104BF00070470000180000201448416B11B10121DA
:104C0000C16170470021C1610169B1FA81F1C1F14F
:104C10001F0101EB81020E4951F822306BB101EB0B
:104C2000820101F108034A6852684A609A4201D140
:104C300052684A60D16801607047502080F3118843
:104C4000BFF34F8FBFF36F8FFEE700001800002007
:104C5000FC0400201CB5254A511E481E00F08AF8AD
:104C600022491531081FA0F11404CDE90001031FEA
:104C7000E2786178A07800F0A3F9207894ED060A34
:104C8000D4ED030A70B170EE200AC4ED060A94ED6B
:104C9000020AF4EEC00AF1EE10FA12DB84ED060A05
:104CA00000200DE030EE600A84ED060AB5EEC00A81
:104CB000F1EE10FA05D801209FED0D0A84ED060AE9
:104CC00020700A4A04F11003911E93EC030A481C59
:104CD00000F0A6F8E278A178607800F00BFA00F016
:104CE0003BFABDE81C4000F05BB900009B010020CE
:104CF0000AD7233C00210B4A46234FF4AE6000BF85
:104D000022F81130491C89B28142F9D3002340F2C4
:104D1000A25100BF22F81030401C80B28842F9D363
:104D200000F03EB9C43801207FB59FED100A10494C
:104D30008DED020A8DED030AC6B24860C0F3074547
:104D4000C0F30724083103A8CDE9000102AB3246C5
:104D50002946204600F034F932462146284600F024
:104D6000C9F900F0F9F900F01BF97FBD000000005F
:104D700098010020F0B50027284B4FF0010C3E466B
:104D80003D46082403EB440E3EF802ECBEF18C0FC6
:104D90003AD026EA0C0600BF4FEA4C6C641E4FEA7C
:104DA0001C6C14F0FF04EDD14FF0010C5FF008040F
:104DB00003EB440EBEF80EE0BEF18C0F27D027EABD
:104DC0000C0700BF4FEA4C6C641E4FEA1C6C14F0D9
:104DD000FF04EDD14FF0010C5FF0080403EB440E2B
:104DE000BEF81EE0BEF18C0F14D025EA0C0500BF02
:104DF0004FEA4C6C641E4FEA1C6C14F0FF04EDD1BA
:104E000007700E701570F0BD46EA0C06C4E747EA5D
:104E10000C07D7E745EA0C05EAE700000844012043
:104E200010B59FED472AF5EEC00AF1EE10FA09D150
:104E300021EE020ABDEEC00A10EE103A13700370A4
:104E40000B7010BDDFED3F2AB7EE004ADFED3C3AB4
:104E5000C0EE221ABDEEE10A10EE103A00EE103A52
:104E6000062BB8EEC00A71EEC01AB7EE000AF0EEDB
:104E7000402A41EEE02A70EE611A01EEE00A74EE7B
:104E8000600A62EE812A20EE013AB6EE000AF0EEE8
:104E9000401A41EE231A20EE811AF0EE400A41EE4C
:104EA000230AFDEEE11AFDEEE00ACAD2DFE803F0C4
:104EB000030D1A232D3A03EE020A11EE903A0B70FD
:104EC000BDEEC00A10EE101A08E002EE820ABDEE36
:104ED000C00A10EE103A0B7011EE901A017010EE2D
:104EE000900A2BE010EE903A03EE020A0B7011EEDE
:104EF000901A01701EE002EE820A10EE903A0B70DA
:104F0000BDEEC00A10EE101A08E003EE020ABDEE74
:104F1000C00A10EE103A0B7010EE901A017011EEEC
:104F2000900A0BE011EE903A02EE820A0B7010EE3E
:104F3000901A0170BDEEC00A10EE100A107010BD7C
:104F400000007F430000704208B506A0009007A350
:104F500007A209A10020FDF71BFCBDE80840FFF7F0
:104F6000C9BE00001B5B306D00000000493A000024
:104F70001B5B313B33326D002020257325732D2DB3
:104F80002D2D2D2D2D55736520575332383132423A
:104F90002D2D2D2D2D2D2D2E0D0A0D0A25730000E2
:104FA000054900200968486240F2A253034A0C21D7
:104FB0000148FCF793BD0000D4010020C438012053
:104FC00030B500EE101ADDE90345B8EE400A9FED5A
:104FD000452A80EE021A00EE100AB8EE400AC0EE32
:104FE000020A00EE102AB8EE400AC0EE021AB4EE31
:104FF000E01AB0EE610AF1EE10FA02DDB0EE412ADD
:1050000001E0B0EE602AB4EEC02AF1EE10FA01DD44
:10501000B0EE420AF0EE602AB0EE402AB4EEE21A98
:10502000B0EE610AF1EE10FA01D2F0EE412AF4EE90
:10503000C02AF1EE10FA01D2B0EE620A9FED2A3AD0
:1050400032EE400AB5EEC00AF1EE10FA02D183ED5D
:10505000003A38E0DFED252AB4EE412AF1EE10FAED
:1050600012D1F4EEE10AF1EE10FA04DB30EEE11AAF
:10507000C1EE000A23E070EEE10A80EE801ADFED57
:105080001C0A41EE220A1CE0B4EE602AF1EE10FA8E
:1050900008D131EEC11AC1EE000AB0EE001A70EE6E
:1050A000810A0CE0B4EE612AF1EE10FA0BD171EE38
:1050B000600A80EE801AF1EE000A71EE200A60EEBE
:1050C000A20AC3ED000AB5EEC02AF1EE10FA02D131
:1050D00084ED003A03E0C0EE020AC4ED000A85ED5B
:1050E000002A30BD00007F43000000000000704235
:1050F0000000B44330B5174B00240D0601D58C25B4
:1051000000E0462523F814504906641C090EE4B259
:10511000082CF2D30021040601D58C2400E046249B
:1051200003EB41054006491C000EC9B22C82082938
:10513000F1D30020110601D58C2100E0462103EBBC
:105140004004401C218451060A0EC0B20828F1D345
:1051500030BD00000844012070B5114C0021A4F6B8
:105160004432002001EB410334F8105000EBC30639
:10517000401CC0B222F816501828F5D3491C89B239
:105180003A29EED34FF4AE60002140F2A25300BFA3
:1051900022F81010401C80B29842F9D370BD000074
:1051A000084401201CB537480168374A914207D1AD
:1051B000502080F31188BFF34F8FBFF36F8FFEE74E
:1051C00000683149491E884207D1502080F3118878
:1051D000BFF34F8FBFF36F8FFEE72C490878019024
:1051E000FF20087008788DF800009DF800009DF8F9
:1051F000002000F0F000904207D0502080F311888A
:10520000BFF34F8FBFF36F8FFEE79DF80000204C78
:1052100000F0500020700720A06005E09DF80020FD
:1052200052008DF80020401E9DF800201206F5D493
:10523000A060032807D0502080F31188BFF34F8F60
:10524000BFF36F8FFEE74FF44070A06001980870C5
:105250000C482030016841F470010160016841F0A0
:1052600070410160FFF75CFB00206060FBF710F805
:105270000848016841F040410160FAF7F5FF00205D
:105280001CBD000000ED00E071C20F4100E400E031
:105290008800002034EF00E010B5502080F3118822
:1052A000BFF34F8FBFF36F8F00F018FB18B10449A5
:1052B0004FF080500860002080F3118810BD00007E
:1052C00004ED00E02DE9F04117460E46050020D020
:1052D0004FF0FF30B0FBF5F0B0421AD305FB06F0FB
:1052E00010F1510F15D85030FFF718F904000CD009
:1052F00004F150005EB12060C4E90F562046012140
:1053000000F010F8204684F84C70BDE8F08124606D
:10531000F2E7502080F31188BFF34F8FBFF36F8FF8
:10532000FEE700002DE9F0410F4604004FF00106B2
:105330002DD0E06B98B3B51EB5FBF0F1206C814227
:105340003ED3FFF787FAD4E90F20216802FB001152
:10535000A1600021A163216861600A46D4E90F01C0
:10536000401E00FB01212046E16000F8445F4570CB
:1053700004F11000A7B1FFF73BFA04F12400FFF796
:1053800037FA00BFFFF786FA3046BDE8F0815020BB
:1053900080F31188BFF34F8FBFF36F8FFEE70FE0ED
:1053A00021690029EED000F091FB0028EAD00849DD
:1053B0004FF080500860BFF34F8FBFF36F8FE1E76E
:1053C000502080F31188BFF34F8FBFF36F8FFEE73C
:1053D00004ED00E02DE9FF4782B01D468A464FF0FC
:1053E0000008040003D0BAF1000F08D011E05020EB
:1053F00080F31188BFF34F8FBFF36F8FFEE7206CF0
:1054000038B1502080F31188BFF34F8FBFF36F8FF7
:10541000FEE7022D0AD1E06B012807D0502080F36F
:105420001188BFF34F8FBFF36F8FFEE700F042FA92
:105430003F4F4FF000094FF0805648B9049838B1FB
:10544000502080F31188BFF34F8FBFF36F8FFEE7BB
:10545000FFF700FAA06BE16B884207D3022D05D05D
:105460000498D0B1B8F1000F1AD01EE02A46514678
:105470002046FEF7B2FD616A19B104F1240000F084
:1054800025FB20B13E60BFF34F8FBFF36F8FFFF757
:1054900001FA012006B0BDE8F087FFF7FBF922E032
:1054A0006846FFF71BFB4FF00108FFF7F3F9FFF722
:1054B0009BFBFFF7CFF994F94400401C01D184F81D
:1054C000449094F94500401C01D184F84590FFF7C1
:1054D000E1F904A9684600F037F930B12046FEF73B
:1054E000E7FF00F061FB0020D4E7FFF7B3F9A06B02
:1054F000E16B884213D1FFF7CDF904F11000049954
:10550000FFF7FAFA2046FEF7D3FF00F04DFB002824
:105510009ED13E60BFF34F8FBFF36F8F98E7FFF7C9
:10552000B9F92046FEF7C4FF00F03EFB90E700000B
:1055300004ED00E02DE9F0471F469046894604003F
:1055400003D0B9F1000F08D011E0502080F311888A
:10555000BFF34F8FBFF36F8FFEE7206C38B1502041
:1055600080F31188BFF34F8FBFF36F8FFEE7022FD9
:105570000AD1E06B012807D0502080F31188BFF3D7
:105580004F8FBFF36F8FFEE7FFF7DCF95020EFF38B
:10559000118680F31188BFF34F8FBFF36F8FA06B1D
:1055A000E16B884206D3022F04D0002086F31188D5
:1055B000BDE8F08794F94550A06B3A46494620462D
:1055C000FEF70BFD681C0AD0FFF70CF9854204D2E8
:1055D0007F2D14D06D1C84F845500120E6E7606AE9
:1055E0000028FAD004F1240000F070FA0028F4D06A
:1055F000B8F1000FF1D00121C8F80010EDE75020FC
:1056000080F31188BFF34F8FBFF36F8FFEE7000069
:105610002DE9F747002683B08A46040003D0BAF18B
:10562000000F08D011E0502080F31188BFF34F8F96
:10563000BFF36F8FFEE7206C38B1502080F31188E4
:10564000BFF34F8FBFF36F8FFEE700F033F9DFF842
:10565000F4804FF000094FF0805748B9059838B1F1
:10566000502080F31188BFF34F8FBFF36F8FFEE799
:10567000FFF7F0F8A56BC5B151462046FEF79AFC3E
:105680006D1EA563206950B104F1100000F01EFAF0
:1056900028B1C8F80070BFF34F8FBFF36F8FFFF7CB
:1056A000F9F8012006B0BDE8F087059808B11EB1F1
:1056B00006E0FFF7EFF827E06846FFF70FFA01264C
:1056C000FFF7E8F8FFF790FAFFF7C4F894F9440001
:1056D000401C01D184F8449094F94500401C01D14C
:1056E00084F84590FFF7D6F805A9684600F02CF835
:1056F000002820460AD0FEF7DBFE00F055FA2046CF
:10570000FEF794FD0028B3D00020CBE7FEF78EFD16
:1057100090B104F124000599FFF7EEF92046FEF759
:10572000C7FE00F041FA0028A2D1C8F80070BFF30C
:105730004F8FBFF36F8F9BE72046FEF7B9FE00F057
:1057400033FA95E704ED00E02DE9F0410C46050041
:1057500014D0DCB1FFF77EF8194EF2686B68206850
:10576000D11A471C1AD02F68D6F820C000266745EA
:1057700016D0934214D8012526601BE0502080F3F8
:105780001188BFF34F8FBFF36F8FFEE7502080F378
:105790001188BFF34F8FBFF36F8FFEE7002509E03D
:1057A000884205D9401A20602846FFF797F9F5E7A7
:1057B00001252660FFF76EF82846BDE8F08100005D
:1057C000180000202DE9FF5F8346DDE90E8799462A
:1057D00016468A469000FEF7A1FE05001DD0602007
:1057E000FEF79CFE040015D06021FAF793FE2563B6
:1057F0000021CDE90241CDE900874B4632465146B2
:105800005846FEF77DFC2046FEF734FB012004B02D
:10581000BDE8F09F2846FFF751F84FF0FF30F6E75C
:1058200070B50E4605004FF000040BD096B11F4A2C
:10583000506BB8B1502080F31188BFF34F8FBFF386
:105840006F8FFEE7502080F31188BFF34F8FBFF3B7
:105850006F8FFEE7502080F31188BFF34F8FBFF3A7
:105860006F8FFEE7FFF7C0F9D2682B689919934252
:1058700004D98B420BD9914202D808E08B42FAD965
:10588000881A296001240021FEF7B0FA00E029609F
:1058900000F08AF938B906494FF080500860BFF32C
:1058A0004F8FBFF36F8F204670BD0000180000209F
:1058B00004ED00E00548416919B1406B18B10020C2
:1058C0007047012070470220704700001800002038
:1058D0000148C06870470000180000202DE9F04121
:1058E0004A4C0026606B28B1A069401CA06130467C
:1058F000BDE8F081E5686D1CE56013D1A06B006820
:1059000038B1502080F31188BFF34F8FBFF36F8FF2
:10591000FEE7A06BE16BA163E063206A401C20629C
:10592000FEF76EFDA16A3A488D420FD34FF0000E8C
:10593000A16B096839B1A16BC968C9684A68954209
:1059400012D2A26202E04FF0FF31A1622168C96A5F
:1059500001EB810150F82100012800D90126E069FE
:105960000028C4D00126C2E7D1E902724B69BA60AF
:10597000D1E902277A605F680A1D974201D1CF689A
:105980005F60C1F814E01F687F1E1F60D1F828C057
:10599000BCF1000F15D0D1E907379F60D1E9073777
:1059A0007B60DCF8047001F118039F4202D10B6A9E
:1059B000CCF80430C1F828E0DCF800305B1ECCF8ED
:1059C0000030CB6A0127D4F810C09F4047EA0C078B
:1059D000276103EB830300EB83035B688B609F68A5
:1059E000CF609F687A609A60CA6A02EB820200EB1D
:1059F00082034B6150F822305B1C40F82230C96AA8
:105A00002268D26A914293D9012691E718000020BA
:105A1000FC04002070B504004FF000014FD0294D68
:105A20002868844207D0502080F31188BFF34F8F3D
:105A3000BFF36F8FFEE7606D38B1401E6065236D68
:105A4000E26A9A423BD040B139E0502080F311889D
:105A5000BFF34F8FBFF36F8FFEE7201DFEF7AEFE43
:105A6000012130B994F82C002A6901FA00F0824330
:105A70002A61206DE062C0F10500A061E06A2A6938
:105A8000814011432961104900EB800001EB800047
:105A90004068A0608268E2608368221D5A6082606C
:105AA000E06A00EB800001EB80006061E06A00EBDF
:105AB000800051F82020521C41F820200121084686
:105AC00070BD000018000020FC04002070B5C06804
:105AD000C06850B3D0E90732816A9A60D0E90723E1
